:100000000C9415010C943F010C943F010C943F019A
:100010000C943F010C943F010C943F010C943F0160
:100020000C943F010C943F010C943F010C943F0150
:100030000C943F010C943F010C943F010C943F0140
:100040000C943F010C943F010C943F010C943F0130
:100050000C943F010C943F010C943F010C9430062A
:100060000C943F010C943F050C9415050C943F0132
:100070000C943F010C943F010C943F010C943F0100
:100080000C943F010C943F010C943F010C943F01F0
:100090000C943F010C943F010C943F010C943F01E0
:1000A0000C943F010C943F010C943F010C943F01D0
:1000B0000C943F010C943F010C943F010C943F01C0
:1000C0000C943F010C943F010C943F010C943F01B0
:1000D0000C943F010C943F010C943F010C943F01A0
:1000E0000C943F018F029202810285028B02C902A9
:1000F00096029A02A002A402A802AE02B202B602BE
:10010000C902BC02C002C402000020002300260075
:1001100029002C002F00320000010000030106011D
:10012000090100002100240027002A002D003000D2
:10013000330001010000040107010A010000220050
:10014000250028002B002E003100340002010000A1
:10015000050108010B010505050507050808080844
:10016000020202020A0A080804040404010101014F
:10017000010101010303030303030303040707074A
:100180000C0C0C0C0C0C0C0C0202020206060606EF
:10019000060606060B0B0B0B0B0B0B0B01021020BC
:1001A00020080810204010204080020102010804AD
:1001B0000201010204081020408080402010080441
:1001C000020180040201804020100804020108049A
:1001D00002010102040810204080010204081020DE
:1001E000408000000A0B02090C0D0E0807030401F1
:1001F00000000000000000000000000000000000FF
:1002000000000000000000000000000000001211CB
:1002100010000000000000000000000000000000CE
:100220000000000000000000000C11241FBECFEFF2
:10023000D1E2DEBFCDBF24E0A6E6B2E001C01D9250
:10024000A133B207E1F712E0A0E0B2E0E6E7F0E2A6
:1002500000E00BBF02C007900D92A636B107D9F798
:1002600011E0C5E1D1E004C02197FE010E94001019
:10027000C431D107C9F70E94DE090C9439100C94DF
:100280000000CF92DF92EF92FF920F931F93CF93D4
:10029000DF936C017A018B01C0E0D0E0CE15DF0561
:1002A00089F0D8016D918D01D601ED91FC910190FD
:1002B000F081E02DC6010995892B11F47E0102C061
:1002C0002196ECCFC701DF91CF911F910F91FF9045
:1002D000EF90DF90CF900895FC01538D448D252F32
:1002E00030E0842F90E0821B930B541710F0CF96D0
:1002F000089501970895FC01918D828D981761F002
:10030000828DDF01A80FB11D5D968C91928D9F5F4C
:100310009F73928F90E008958FEF9FEF0895FC01F7
:10032000918D828D981731F0828DE80FF11D858DAA
:1003300090E008958FEF9FEF0895FC01918D228D3D
:10034000892F90E0805C9F4F821B91098F739927C2
:10035000089587E792E00E949D0121E0892B09F42E
:1003600020E0822F0895FC01848DDF01A80FB11DCC
:10037000A35ABF4F2C91848D90E001968F739927DB
:10038000848FA689B7892C93A089B1898C918064C8
:100390008C93938D848D981306C00288F389E02D89
:1003A00080818F7D80830895EF92FF920F931F933A
:1003B000CF93DF93EC0181E0888F9B8D8C8D981318
:1003C00005C0E889F989808185FD24C0F62E0B8D52
:1003D00010E00F5F1F4F0F731127E02E8C8DE81276
:1003E0000CC00FB607FCFACFE889F989808185FF38
:1003F000F5CFCE010E94B301F1CF8B8DFE01E80F46
:10040000F11DE35AFF4FF0820B8FEA89FB8980814F
:10041000806207C0EE89FF896083E889F98980815D
:100420008064808381E090E0DF91CF911F910F91F4
:10043000FF90EF900895CF93DF93EC01888D882390
:10044000C9F0EA89FB89808185FD05C0A889B98941
:100450008C9186FD0FC00FB607FCF5CF808185FF1C
:10046000F2CFA889B9898C9185FFEDCFCE010E948A
:10047000B301E7CFDF91CF91089580E090E0892B21
:1004800021F00E94A901811125C080E090E0892B14
:1004900041F080E090E0892B21F00E940000811162
:1004A0001CC080E090E0892B41F080E090E0892B37
:1004B00021F00E940000811113C080E090E0892BA0
:1004C000A1F080E090E0892B81F00E940000811172
:1004D0000AC008950E940000D8CF0E940000E1CF1A
:1004E0000E940000EACF0C940000089590E0FC0107
:1004F0003197E231F10508F04CC0EE58FF4F0C94F3
:100500000010809180008F7703C0809180008F7DE4
:1005100080938000089580918000877FF9CF84B513
:100520008F7702C084B58F7D84BD08958091B0001F
:100530008F7703C08091B0008F7D8093B0000895C5
:10054000809190008F7707C0809190008F7D03C0CD
:1005500080919000877F8093900008958091A00003
:100560008F7707C08091A0008F7D03C08091A0008D
:10057000877F8093A0000895809120018F7707C026
:10058000809120018F7D03C080912001877F80931F
:1005900020010895CF93DF9370E0FB01EE51FE4FF1
:1005A0008491FB01E456FE4FD491FB01EA5AFE4FC1
:1005B000C491CC2391F081110E947602EC2FF0E0DF
:1005C000EE0FFF1FE85FFE4FA591B491EC91ED2374
:1005D00081E090E021F480E002C080E090E0DF91D3
:1005E000CF910895089580E090E0089580E890E02C
:1005F0000895EF92FF920F931F93CF93DF93EC0137
:100600007B0101E010E0E881F9810190F081E02DAB
:10061000CE010995801791074CF0E016F10619F408
:10062000FF8AEE8A03C0000F111FEDCF8E899F89CC
:10063000DF91CF911F910F91FF90EF9008952F922E
:100640003F924F925F926F927F928F929F92AF9262
:10065000BF92CF92DF92EF92FF920F931F93CF93AF
:10066000DF936B017C0180911F0490912004A09185
:100670002104B091220440912704509128046091F4
:10068000290470912A0480901B0490901C04A0906F
:100690001D04B0901E0440902304509024046090E8
:1006A0002504709026040097A105B10599F16CF01E
:1006B000481759076A077B075CF4481459046A0411
:1006C0007B044CF422E030E008C020E030E005C0BC
:1006D00023E030E002C021E030E02115310519F3BC
:1006E000233031050CF02EC18C0D9D1DAE1DBF1D9C
:1006F000F7FE07C084179507A607B70714F4DB01B8
:10070000CA0180931F0490932004A0932104B09306
:10071000220418C1D701C60180959095A095B09587
:100720008827B7FD83959927AA27BB279093300484
:1007300080932F041092010410920204109203047B
:1007400010920404F7FE08C0F094E094D094C09492
:10075000C11CD11CE11CF11CC0921F04D0922004CA
:10076000E0922104F092220410921B0410921C04C7
:1007700010921D0410921E041092FD031092FE03AD
:100780001092FF03109200048091150490911604BA
:1007900020911304309114040091090410910A046B
:1007A000C0911104D0911204019709F099C0209FC3
:1007B000C001219F900D309F900D11246CE370E0DB
:1007C0000E94CD0F00911704109118049B01DB01CA
:1007D0000E9409109B01AC01DE010E9418109801D3
:1007E000220F331F032E000C440B550B0E94E10F08
:1007F00049015A0120932304309324044093250493
:10080000509326042090190430901A042101032CDF
:10081000000C66087708D8010E941810A301920105
:100820000E94E10F20932704309328044093290469
:1008300050932A04D501C401820F931FA41FB51F32
:10084000C816D906EA06FB061CF5A7019601C301E6
:10085000B2010E947E0E9801220D331D032E000C62
:10086000440B550B0E94E10F209323043093240482
:100870004093250450932604C21AD30AE40AF50AC9
:10088000C0922704D0922804E0922904F0922A040E
:100890000C9FB0010D9F700D1C9F700D1124072E31
:1008A000000C880B990B0E94850D9B01AC0160E048
:1008B00070E080E090E40E94CA0E0E94780F20E071
:1008C0003AE045E259E40E94C00D0E943C0F60935B
:1008D0002B0470932C0480932D0490932E0432C02B
:1008E000032E000C440B550B60E077E883E993E09E
:1008F0000E94E10FCA01B9019801110F440B550B79
:100900000E94E10FCA01B9019E01DD0F440B550B96
:100910000E94E10F20932B0430932C0440932D046C
:1009200050932E0410922304109224041092250454
:100930001092260410922704109228041092290481
:1009400010922A04DF91CF911F910F91FF90EF90A9
:10095000DF90CF90BF90AF909F908F907F906F90DF
:100960005F904F903F902F9008950E943410611532
:10097000710579F0FB0101900020E9F73197AF0193
:10098000461B570BDC01ED91FC910280F381E02DB9
:10099000099480E090E008954F925F926F927F9269
:1009A000EF92FF920F931F93CF93DF93CDB7DEB7F4
:1009B000A1970FB6F894DEBF0FBECDBF7C01FA0140
:1009C000CB0119A2223008F42AE08E010F5D1F4FDF
:1009D000422E512C612C712CBF01A30192010E9467
:1009E0008E0EF901CA01015011096A3014F4605DDC
:1009F00001C0695CD8016C93232B242B252B61F754
:100A0000B801C7010E94B704A1960FB6F894DEBFE3
:100A10000FBECDBFDF91CF911F910F91FF90EF904F
:100A20007F906F905F904F9008951F920F920FB636
:100A30000F9211240BB60F922F933F934F935F9316
:100A40006F937F938F939F93AF93BF93EF93FF9396
:100A500087E792E00E94B301FF91EF91BF91AF91C0
:100A60009F918F917F916F915F914F913F912F91C6
:100A70000F900BBE0F900FBE0F901F9018951F92F6
:100A80000F920FB60F9211240BB60F922F938F93E4
:100A90009F93EF93FF93E0918702F091880280810A
:100AA000E0918D02F0918E0282FD12C090818091C2
:100AB00090028F5F8F7320919102821751F0E09125
:100AC0009002F0E0E958FD4F958F8093900201C0AD
:100AD0008081FF91EF919F918F912F910F900BBE8D
:100AE0000F900FBE0F901F9018951F93CF93DF9319
:100AF000282F30E0F901EE51FE4F8491F901E456C0
:100B0000FE4FD491F901EA5AFE4FC491CC23C9F0AB
:100B1000162F81110E947602EC2FF0E0EE0FFF1FDE
:100B2000E45CFE4FA591B4918FB7F894111105C004
:100B30009C91ED2FE095E92302C0EC91ED2BEC9315
:100B40008FBFDF91CF911F910895862F642F0C9452
:100B50007505CF93DF93EC0160E08E810E947505EF
:100B600061E08E810E94750560E08E810E947505AE
:100B70008BE891E00197F1F7DF91CF910895CF9342
:100B8000DF9390E0FC01E456FE4F2491FC01EA5A09
:100B9000FE4F8491882361F190E0880F991FFC013A
:100BA000EE5DFE4FC591D491FC01E45CFE4FA59132
:100BB000B491611109C09FB7F89488812095822370
:100BC0008883EC912E230BC0623061F49FB7F894B8
:100BD0003881822F809583238883EC912E2B2C9350
:100BE0009FBF06C08FB7F894E8812E2B28838FBF54
:100BF000DF91CF910895862F642F0C94BF053FB7E6
:100C0000F89480916B0290916C02A0916D02B0916A
:100C10006E0226B5A89B05C02F3F19F00196A11DB5
:100C2000B11D3FBFBA2FA92F982F8827820F911D82
:100C3000A11DB11DBC01CD0142E0660F771F881FC9
:100C4000991F4A95D1F708952FB7F89460916702DC
:100C5000709168028091690290916A022FBF089595
:100C60001F920F920FB60F9211242F933F938F93E1
:100C70009F93AF93BF938091670290916802A09178
:100C80006902B0916A023091660223E0230F2D378A
:100C900020F40196A11DB11D05C026E8230F029680
:100CA000A11DB11D20936602809367029093680294
:100CB000A0936902B0936A0280916B0290916C02DA
:100CC000A0916D02B0916E020196A11DB11D80939D
:100CD0006B0290936C02A0936D02B0936E02BF9171
:100CE000AF919F918F913F912F910F900FBE0F90D9
:100CF0001F901895CF92DF92EF92FF920F931F9360
:100D0000CF93DF937C016C0187E0C80ED11CC0E05B
:100D1000D0E0062F10E0B8010C2E02C07595679543
:100D20000A94E2F76170F60181916F010E947505E6
:100D30002196C430D10579F7C701DF91CF911F917A
:100D40000F91FF90EF90DF90CF900C94A905CF9278
:100D5000DF92EF92FF920F931F93CF93DF93EC01FB
:100D6000F62E642F8C810E9475058D818F3F19F0BE
:100D700060E00E9475058F850F2D10E084FF25C06F
:100D80006E0187E0C80ED11CE12CF12CB8010E2CAD
:100D900002C0759567950A94E2F76170F60181913A
:100DA0006F010E947505FFEFEF1AFF0A88E0E81651
:100DB000F10461F7CE01DF91CF911F910F91FF9068
:100DC000EF90DF90CF900C94A905B80184E0759561
:100DD00067958A95E1F7CE010E947A066F2DCE01C4
:100DE000DF91CF911F910F91FF90EF90DF90CF9007
:100DF0000C947A0641E00E94A70681E090E00895F5
:100E0000EF92FF920F931F93CF93DF93EC01423049
:100E100018F08F8588608F874B8B1C8A80E48D8BC0
:100E20006E8B70E0605C7F4F6F8B61E08C810E9405
:100E3000BF058D818F3F19F061E00E94BF0561E021
:100E40008E810E94BF057E0187E0E80EF11C00E064
:100E500010E08F8584FD03C084E090E002C088E04C
:100E600090E0081719074CF461E0F70181917F01C8
:100E70000E94BF050F5F1F4FECCF8BE39DE00197F2
:100E8000F1F760E08C810E94750560E08E810E9420
:100E900075058D818F3F19F060E00E9475056F85A3
:100EA00064FD1DC063E0CE010E947A060BE416E4E7
:100EB000C8010197F1F763E0CE010E947A06C801EC
:100EC0000197F1F763E0CE010E947A0683E592E094
:100ED0000197F1F762E0CE010E947A0619C06062C4
:100EE00040E0CE010E94A7068BE496E40197F1F75B
:100EF0006F85606240E0CE010E94A70683E592E024
:100F00000197F1F76F85606240E0CE010E94A7066D
:100F10006F85606240E0CE010E94A70684E0888B66
:100F200040E06CE0CE010E94A70640E061E0CE0107
:100F30000E94A7068BE39FE10197F1F782E0898B7E
:100F400040E066E0CE01DF91CF911F910F91FF90BD
:100F5000EF900C94A706E7E7F2E0A089B18982E060
:100F60008C93A485B5851C92A685B7858FEC8C9350
:100F7000108EA489B58986E08C93A289B3898C915F
:100F800080618C93A289B3898C9188608C93A289AB
:100F9000B3898C9180688C930288F389E02D8081DD
:100FA0008F7D808308958F929F92AF92BF92CF9250
:100FB000DF92EF92FF926B017C010E9424064B01AD
:100FC0005C01C60ED71EE81EF91E0E942406681595
:100FD00079058A059B0528F0C616D706E806F906A6
:100FE000A0F7FF90EF90DF90CF90BF90AF909F90D1
:100FF0008F9008954F925F926F927F928F929F92FF
:10100000AF92BF92CF92DF92EF92FF920F931F9316
:10101000CF93DF93CDB7DEB728970FB6F894DEBF36
:101020000FBECDBF80911F0490912004A091210498
:10103000B0912204181619061A061B060CF08FC16F
:10104000C0900104D0900204E0900304F0900404E6
:101050008090050490900604A0900704B0900804C6
:1010600081149104A104B10439F560912F04809199
:101070000B040E94750561E080910D040E947505C6
:101080000E94FF056D837E838F839887C0902B0419
:10109000D0902C04E0902D04F0902E0480911F0439
:1010A00090912004A0912104B091220418161906F1
:1010B0001A061B06C4F015C1C114D104E104F104E1
:1010C00021F40E94FF056B017C010E94FF05DC01F9
:1010D000CB018C199D09AE09BF0988159905AA0590
:1010E000BB0598F3C2CF9C01AD01215031094109E4
:1010F000510920931F0430932004409321045093FE
:10110000220480901B0490901C04A0901D04B090B9
:101110001E048FEF881A980AA80AB80A80921B0446
:1011200090921C04A0921D04B0921E04809115049C
:1011300090911604019709F0D4C02115310541059D
:101140005105E9F08091270490912804A091290489
:10115000B0912A0482179307A407B5079CF48091E5
:10116000230490912404A0912504B09126048815AD
:101170009905AA05BB054CF482E090E008C080E028
:1011800090E005C083E090E002C081E090E0813013
:101190009105F1F1039709F0A4C08090FD039090B0
:1011A000FE03A090FF03B0900004ACEFBFEF0E94DD
:1011B0001B102B013C01D701C601880F991FAA1FE4
:1011C000BB1FBC01CD01680D791D8A1D9B1DA301AC
:1011D000920120953095409550950E94E10FD701DE
:1011E000C601820F931FA41FB51F80932B049093F9
:1011F0002C04A0932D04B0932E04880F991FAA1FCE
:10120000BB1FBC01CD01680D791D8A1D9B1D59C0F6
:101210002091FD033091FE034091FF0350910004A3
:1012200029833A834B835C832401350162E0440CBB
:10123000551C661C771C6A95D1F7D701C601880F2B
:10124000991FAA1FBB1F280F391F4A1F5B1FCA0106
:10125000B901A301920120953095409550950E94C7
:10126000E10FBA01A9014C0D5D1D6E1D7F1D40935C
:101270002B0450932C0460932D0470932E048091C2
:10128000230490912404A0912504B091260488168B
:101290009906AA06BB068CF4DB01CA01880F991FC8
:1012A000AA1FBB1F29813A814B815C81280F391FFE
:1012B0004A1F5B1FCA01B90104C060E070E0CB01A6
:1012C00008C0A30192012F5F3F4F4F4F5F4F0E9415
:1012D000E10F6093FD037093FE038093FF039093EF
:1012E00000040E94FF058B014D815E81041B150BDC
:1012F00069F40E94FF054B015C010E94FF0568151F
:1013000079058A059B05C9F301E010E060E0809152
:101310000D040E9475050E94FF05609301047093FF
:1013200002048093030490930404C801A0E0B0E099
:101330008C159D05AE05BF052CF4C81AD90AEA0A1A
:10134000FB0A04C0C12CD12C7601C394C0920504C1
:10135000D0920604E0920704F092080410C01092A4
:1013600001041092020410920304109204041092DB
:10137000050410920604109207041092080460916C
:101380000504709106048091070490910804289642
:101390000FB6F894DEBF0FBECDBFDF91CF911F9186
:1013A0000F91FF90EF90DF90CF90BF90AF909F9004
:1013B0008F907F906F905F904F900895789484B550
:1013C000826084BD84B5816084BD85B5826085BD41
:1013D00085B5816085BD80916E00816080936E00CF
:1013E00010928100809181008260809381008091C1
:1013F0008100816080938100809180008160809372
:1014000080008091B10084608093B1008091B00031
:1014100081608093B0008091910082608093910000
:101420008091910081608093910080919000816013
:10143000809390008091A10082608093A1008091B0
:10144000A10081608093A1008091A00081608093C1
:10145000A00080912101826080932101809121016F
:10146000816080932101809120018160809320011F
:1014700080917A00846080937A0080917A00826003
:1014800080937A0080917A00816080937A008091C5
:101490007A00806880937A001092C10010925803FD
:1014A0001092590310925A0310925B031092160384
:1014B00010921703109218031092190368EB7BE047
:1014C00080E090E00E94D30787E792E09093570373
:1014D000809356030E94AB070E9424066093160374
:1014E00070931703809318039093190360E472E0DC
:1014F00080915603909157030E94B7046AE070E010
:1015000080E090E00E94D30781E080932A030E944C
:10151000AB0798E6892E99249394A12CB12C0E94B4
:101520002406672B682B692B41F40E942406623045
:1015300071058105910508F40FC10E94240660938E
:1015400073027093740280937502909376024090B8
:101550006F02509070026090710270907202641578
:1015600075058605970540F460936F0270937002CD
:10157000809371029093720240906F0250907002BB
:1015800060907102709072029B01AC0124193509C0
:101590004609570929013A013AEF431651046104FB
:1015A000710408F4D9C060936F0270937002809345
:1015B00071029093720284EF91E0A0E0B0E080931A
:1015C000220390932303A0932403B0932503109246
:1015D000260310922703109228031092290380916A
:1015E0001A0390911B03A0911C03B0911D038093DB
:1015F0001E0390931F03A0932003B09321030E9426
:10160000240660931A0370931B0380931C0390932A
:101610001D030E94240660931603709317038093A2
:101620001803909319030E9424062B013C0162E5E4
:1016300072E080915603909157030E94B7042AE00C
:1016400041E050E060E070E08091560390915703D4
:101650000E94CC0469E572E0809156039091570393
:101660000E94B7042AE0B301A20180915603909131
:1016700057030E94CC046BE572E080915603909171
:1016800057030E94B70480911A0390911B03A09105
:101690001C03B0911D03B301A201481B590B6A0B37
:1016A0007B0B2AE080915603909157030E94CC0453
:1016B0006BE572E080915603909157030E94B70446
:1016C00040911A0350911B0360911C0370911D03FC
:1016D00080911E0390911F03A0912003B0912103DC
:1016E000481B590B6A0B7B0B2AE0809156039091A3
:1016F00057030E94CC046DE572E0809156039091EF
:1017000057030E94B7040E942406AB01BC012AE0E3
:1017100080915603909157030E94CC046090560329
:10172000709057036FE572E0C3010E94B7046FE445
:1017300072E0C3010E94B70465E070E080E090E0D1
:101740000E94D3070E94240660931A0370931B0320
:1017500080931C0390931D03A0910904B0910A0487
:1017600028E631E00E9411109B01AC01A091110408
:10177000B09112040E941810A50194010E94E10F7B
:10178000CA01B9010E941F030E94FA07672B682B48
:10179000692BD1F768E37FEF8FEF9FEF0E941F0364
:1017A0000E94FA07672B682B692BD1F70E94FF056F
:1017B0006B017C0188E8482E83E1582E612C712C46
:1017C0000E94FF05DC01CB018C199D09AE09BF0900
:1017D000883E9340A105B10558F091E0491A51089F
:1017E00061087108A8EECA0EA3E0DA1EE11CF11C24
:1017F000411451046104710419F70E943D028FCE17
:1018000010927A021092790288EE93E0A0E0B0E0A4
:1018100080937B0290937C02A0937D02B0937E0222
:1018200084E192E0909378028093770285EC90E0D7
:10183000909384028093830284EC90E090938602DC
:101840008093850280EC90E09093880280938702D9
:1018500081EC90E090938A028093890282EC90E080
:1018600090938C0280938B0286EC90E090938E0292
:1018700080938D0210929002109291021092920227
:101880001092930210921A0310921B0310921C03E1
:1018900010921D0310921E0310921F03109220033A
:1018A000109221031092220310922303109224031A
:1018B00010922503109226031092270310922803FA
:1018C00010922903ECE5F3E085EDDF011D928A9586
:1018D000E9F786E180935C0388E180935D038AE108
:1018E00080935E038CE180935F038EE180936003BD
:1018F00080E28093610382E28093620384E28093BA
:10190000630380E1E0E0F2E0A4E6B3E001900D9231
:101910008A95E1F786E292E09093750380937403D1
:1019200080E090E0FC01E45AFC4F14AA10AE17AA24
:1019300011AE06968C339105A9F78CE593E0909350
:10194000D7038093D60380E693E09093D9038093E6
:10195000D80384E08093DA038093DB0324E633E04A
:101960003093D5032093D4032AE030E03093DD0395
:101970002093DC0324EF31E03093DF032093DE0378
:101980001092E2031092E1031092D0031092D1035F
:101990001092D2031092D3031092E0031092E60348
:1019A0001092E50320E332E03093E4032093E30355
:1019B0009CE09093E7039FEF9093E8039BE0909364
:1019C000E90395E09093EA038093EB0383E080932F
:1019D000EC0382E08093ED031092EE031092EF038C
:1019E0001092F0031092F1031092F20341E060E1D3
:1019F00083EE93E00E94000744E064E183EE93E00D
:101A00000E9400078CE392E09093FC038093FB0319
:101A10001092010410920204109203041092040424
:101A20001092050410920604109207041092080404
:101A300088EC90E090930A048093090486E090E09B
:101A400090930C0480930B0483E090E090930E0439
:101A500080930D048FEF9FEF9093100480930F04F9
:101A600081E090E09093120480931104109214048A
:101A700010921304109216041092150488EE93E04D
:101A8000909318048093170490931A048093190478
:101A900061E086E00E94BF0561E080910B040E9436
:101AA000750561E080910D040E94BF0560E08091A2
:101AB0000D040E94750580910F04909110048F3FD2
:101AC000BFEF9B0741F061E00E94BF0561E080919C
:101AD0000F040E94750588E790E0909314048093AA
:101AE000130461E070E08BEF93E00E94F9028091B3
:101AF0000F04909110048F3F2FEF920719F060E0D0
:101B00000C9475050895E89409C097FB3EF49095F0
:101B10008095709561957F4F8F4F9F4F9923A9F0C6
:101B2000F92F96E9BB279395F69587957795679555
:101B3000B795F111F8CFFAF4BB0F11F460FF1BC099
:101B40006F5F7F4F8F4F9F4F16C0882311F096E92C
:101B500011C0772321F09EE8872F762F05C06623DA
:101B600071F096E8862F70E060E02AF09A95660F93
:101B7000771F881FDAF7880F9695879597F908954C
:101B80000E94D30D0C94440E0E94360E38F00E9431
:101B90003D0E20F0952311F00C942D0E0C94330E75
:101BA00011240C94780E0E94550E70F3959FC1F38A
:101BB000950F50E0551F629FF001729FBB27F00DFB
:101BC000B11D639FAA27F00DB11DAA1F649F662750
:101BD000B00DA11D661F829F2227B00DA11D621F9F
:101BE000739FB00DA11D621F839FA00D611D221F59
:101BF000749F3327A00D611D231F849F600D211D3D
:101C0000822F762F6A2F11249F5750409AF0F1F0BF
:101C100088234AF0EE0FFF1FBB1F661F771F881F28
:101C200091505040A9F79E3F510580F00C942D0E25
:101C30000C94780E5F3FE4F3983ED4F38695779545
:101C40006795B795F795E7959F5FC1F7FE2B880FCE
:101C5000911D9695879597F9089597F99F6780E864
:101C600070E060E008959FEF80EC089500240A94EE
:101C70001616170618060906089500240A94121667
:101C80001306140605060895092E0394000C11F49A
:101C9000882352F0BB0F40F4BF2B11F460FF04C047
:101CA0006F5F7F4F8F4F9F4F089557FD9058440FA0
:101CB000551F59F05F3F71F04795880F97FB991FAB
:101CC00061F09F3F79F08795089512161306140668
:101CD000551FF2CF4695F1DF08C0161617061806F5
:101CE000991FF1CF86957105610508940895E894D0
:101CF000BB2766277727CB0197F90895DB018F93E0
:101D00009F930E94B00EBF91AF91A29F800D911D35
:101D1000A39F900DB29F900D11240895A1E21A2E59
:101D2000AA1BBB1BFD010DC0AA1FBB1FEE1FFF1F7F
:101D3000A217B307E407F50720F0A21BB30BE40BCF
:101D4000F50B661F771F881F991F1A9469F7609516
:101D50007095809590959B01AC01BD01CF010895D0
:101D60000E94BB0EA59F900DB49F900DA49F800D67
:101D7000911D11240895A29FB001B39FC001A39F9C
:101D8000700D811D1124911DB29F700D811D1124B4
:101D9000911D08950E94DE0E0C94440E0E943D0E8B
:101DA00058F00E94360E40F029F45F3F29F00C9461
:101DB0002D0E51110C94780E0C94330E0E94550E7A
:101DC00068F39923B1F3552391F3951B550BBB276A
:101DD000AA2762177307840738F09F5F5F4F220FAF
:101DE000331F441FAA1FA9F335D00E2E3AF0E0E8A6
:101DF00032D091505040E695001CCAF72BD0FE2FF0
:101E000029D0660F771F881FBB1F26173707480783
:101E1000AB07B0E809F0BB0B802DBF01FF2793583B
:101E20005F4F3AF09E3F510578F00C942D0E0C94C4
:101E3000780E5F3FE4F3983ED4F3869577956795E7
:101E4000B795F7959F5FC9F7880F911D9695879570
:101E500097F90895E1E0660F771F881FBB1F62178F
:101E600073078407BA0720F0621B730B840BBA0B4D
:101E7000EE1F88F7E09508950E94430F6894B11112
:101E80000C94780E08950E945D0E88F09F5798F08C
:101E9000B92F9927B751B0F0E1F0660F771F881F6F
:101EA000991F1AF0BA95C9F714C0B13091F00E9489
:101EB000770EB1E008950C94770E672F782F88275E
:101EC000B85F39F0B93FCCF3869577956795B395B0
:101ED000D9F73EF490958095709561957F4F8F4F1F
:101EE0009F4F089519F416F40C94330E0C94B80F08
:101EF0000E945D0EB8F39923C9F3B6F39F57550BB3
:101F000087FF0E94C60F0024A0E640EA9001805897
:101F10005695979528F4805C660F771F881F20F0F0
:101F200026173707480730F4621B730B840B2029F0
:101F300031294A2BA69517940794202531254A2745
:101F400058F7660F771F881F20F0261737074807B6
:101F500030F4620B730B840B200D311D411DA095D5
:101F600081F7B901842F9158880F96958795089528
:101F70009F3F31F0915020F4879577956795B795FD
:101F8000880F911D9695879597F908959150504027
:101F9000660F771F881FD2F7089597FB072E16F458
:101FA000009407D077FD09D00E94201007FC05D0CF
:101FB0003EF4909581959F4F0895709561957F4F60
:101FC0000895052E97FB1EF400940E94F80F57FD0C
:101FD00007D00E948E0E07FC03D04EF40C94F80F2D
:101FE00050954095309521953F4F4F4F5F4F089545
:101FF00090958095709561957F4F8F4F9F4F089575
:10200000EE0FFF1F0024001C0BBE0790F691E02D81
:1020100009940E94BB0E332312F48A1B9B0B0C9471
:1020200013100E94BB0EB7FF0895821B930B0895F7
:10203000B7FF0C94B00E0E94B00E821B930B089554
:10204000AA1BBB1B51E107C0AA1FBB1FA617B707DE
:1020500010F0A61BB70B881F991F5A95A9F78095FA
:102060009095BC01CD01089581E090E0F8940C9426
:062070003910F894FFCFC7
:102076003132334134353642373839432A302344F6
:1020860000000000D40141016C011B029D017B018F
:102096008F0100000000FB05A505CA020000000034
:1020A600FA064101F302F20200000000F602F9020C
:1020B600564D4450565F317C315F564D4450560D57
:1020C6000A00564D4450455F003A323A007C005FA4
:0620D600564D4450450088
:020000021000EC
:10F000000C9472F80C9492F80C9492F80C9492F878
:10F010000C9492F80C9492F80C9492F80C9492F848
:10F020000C9492F80C9492F80C9492F80C9492F838
:10F030000C9492F80C9492F80C9492F80C9492F828
:10F040000C9492F80C9492F80C9492F80C9492F818
:10F050000C9492F80C9492F80C9492F80C9492F808
:10F060000C9492F80C9492F80C9492F80C9492F8F8
:10F070000C9492F80C9492F80C9492F80C9492F8E8
:10F080000C9492F80C9492F80C9492F80C9492F8D8
:10F090000C9492F80C9492F80C9492F80C9492F8C8
:10F0A0000C9492F80C9492F80C9492F80C9492F8B8
:10F0B0000C9492F80C9492F80C9492F80C9492F8A8
:10F0C0000C9492F80C9492F80C9492F80C9492F898
:10F0D0000C9492F80C9492F80C9492F80C9492F888
:10F0E0000C9492F811241FBECFEFD1E2DEBFCDBF4A
:10F0F00012E0A0E0B2E0EEEDFEEF01E00BBF02C0D7
:10F1000007900D92A833B107D9F71BBE13E0A8E30F
:10F11000B2E001C01D92A334B107E1F70E9412FAD8
:10F120000C946DFF0C9400F8982F959595959595F6
:10F130009595905D8F708A301CF1282F295A809107
:10F140003802813019F0823071F008958091C0004A
:10F1500085FFFCCF9093C6008091C00085FFFCCF57
:10F160002093C60008958091C80085FFFCCF90933E
:10F17000CE008091C80085FFFCCF2093CE0008957B
:10F18000282F205DDCCF982F80913802813019F034
:10F19000823041F008958091C00085FFFCCF9093AC
:10F1A000C60008958091C80085FFFCCF9093CE00E3
:10F1B0000895EF92FF920F931F9380913802813050
:10F1C00069F1823031F080E01F910F91FF90EF9054
:10F1D0000895EE24FF2487018091C80087FD17C0A1
:10F1E0000894E11CF11C011D111D81E4E81682E464
:10F1F000F8068FE0080780E0180770F3E0913A0204
:10F20000F0913B0209958091C80087FFE9CF80917A
:10F21000CE001F910F91FF90EF900895EE24FF24F0
:10F2200087018091C00087FD17C00894E11CF11C84
:10F23000011D111D81E4E81682E4F8068FE008073D
:10F2400080E0180770F3E0913A02F0913B020995D3
:10F250008091C00087FFE9CF8091C6001F910F9178
:10F26000FF90EF9008950E94D9F8982F809138026E
:10F27000813049F0823091F091366CF490330CF08B
:10F280009053892F08958091C00085FFFCCF909303
:10F29000C60091369CF39755892F08958091C80038
:10F2A00085FFFCCF9093CE00E7CF1F930E9433F9E8
:10F2B000182F0E9433F91295107F810F1F91089526
:10F2C000982F20913802992339F0213031F02230E3
:10F2D00061F091509923C9F708958091C00087FF8C
:10F2E000FCCF8091C6009150F5CF8091C80087FF78
:10F2F000FCCF8091CE009150EDCF1F93182F0E942C
:10F30000D9F8803249F0809139028F5F80933902B9
:10F31000853091F11F910895809138028130B9F0C4
:10F320008230C1F78091C80085FFFCCF84E18093D3
:10F33000CE008091C80085FFFCCF1093CE00809155
:10F34000C80085FFFCCF80E18093CE00E3CF8091A1
:10F35000C00085FFFCCF84E18093C6008091C0008F
:10F3600085FFFCCF1093C6008091C00085FFFCCFC5
:10F3700080E18093C600CECFE0913A02F0913B024B
:10F3800009951F9108950E94D9F8803241F080912B
:10F3900039028F5F80933902853029F10895809179
:10F3A0003802813089F08230C9F78091C80085FF2A
:10F3B000FCCF84E18093CE008091C80085FFFCCF14
:10F3C00080E18093CE0008958091C00085FFFCCF3E
:10F3D00084E18093C6008091C00085FFFCCF80E16E
:10F3E0008093C6000895E0913A02F0913B0209959E
:10F3F000089540E951E08823A1F02F9A28EE33E0E8
:10F40000FA013197F1F721503040D1F72F9828EECB
:10F4100033E0FA013197F1F721503040D1F78150B4
:10F4200061F708952F923F924F925F926F927F9271
:10F430008F929F92AF92BF92CF92DF92EF92FF9204
:10F440000F931F93CF93DF93000081E080933802E6
:10F4500080E18093C4001092C5001092C00086E045
:10F460008093C20088E18093C1006898709A279ABF
:10F4700081E00E94F9F9E4E1EE2E7EE1D72E67E902
:10F48000C62E53E0B52E40E1A42E9924939431E486
:10F49000832E26E5722E92E5692E80E2582E09E42D
:10F4A000402E13E5312EB0E52B2E0E94D9F8803383
:10F4B000C9F1813309F452C0803409F4C8C08134E1
:10F4C00009F4EAC0823489F1853409F4CAC0803570
:10F4D00049F1823539F1813529F1853509F4ECC0DE
:10F4E000863509F409C1843609F428C1843709F442
:10F4F000ABC1853709F473C2863709F4D9C08132AC
:10F5000009F4B7C2809139028F5F80933902853048
:10F5100061F6E0913A02F0913B0209950E94D9F818
:10F52000803339F60E94C3F9C0CF2091380293E1AD
:10F5300005C0223061F09923A9F391502130C9F719
:10F540008091C00087FFFCCF8091C600F4CF8091EE
:10F55000C80087FFFCCF8091CE00EDCF0E94D9F884
:10F56000803281F6809138028130D1F1823009F009
:10F570009CCF8091C80085FFFCCFE092CE008091A7
:10F58000C80085FFFCCF8092CE008091C80085FF27
:10F59000FCCF7092CE008091C80085FFFCCF6092B6
:10F5A000CE008091C80085FFFCCF5092CE008091A4
:10F5B000C80085FFFCCF4092CE008091C80085FF37
:10F5C000FCCF3092CE008091C80085FFFCCF209206
:10F5D000CE008091C80085FFFCCFA092CE0065CF01
:10F5E0008091C00085FFFCCFE092C6008091C000F2
:10F5F00085FFFCCF8092C6008091C00085FFFCCFC4
:10F600007092C6008091C00085FFFCCF6092C6005A
:10F610008091C00085FFFCCF5092C6008091C00051
:10F6200085FFFCCF4092C6008091C00085FFFCCFD3
:10F630003092C6008091C00085FFFCCF2092C600AA
:10F640008091C00085FFFCCFA092C6002ECF0E9403
:10F65000D9F8863808F466CF0E94D9F80E94C3F919
:10F6600024CF2091380294E0213041F0223069F01B
:10F67000992309F457CF91502130C1F78091C000F0
:10F6800087FFFCCF8091C600F3CF8091C80087FF31
:10F69000FCCF8091CE00ECCF0E94D9F8803841F1A8
:10F6A000813809F447C0823809F4CAC08839E1F0CA
:10F6B00080E00E947DF9F9CE0E94D9F880933C0247
:10F6C0000E94D9F880933D020E94C3F9EECE0E94B9
:10F6D000D9F80E94D9F8182F0E94D9F8112309F4FB
:10F6E0007EC2113009F40AC283E00E947DF9DDCEAA
:10F6F00082E00E947DF9D9CE0E94D9F8803339F397
:10F700002091380292E0213039F0223061F09923C3
:10F7100079F291502130C9F78091C00087FFFCCF6A
:10F720008091C600F4CF8091C80087FFFCCF809104
:10F73000CE00EDCF81E00E947DF9B7CE0E94D9F8CE
:10F7400080933F030E94D9F880933E038091420347
:10F750008E7F809342030E94D9F8853409F4B3C1A7
:10F7600080913E0390913F03892B89F000E010E0E7
:10F770000E94D9F8F801E25CFD4F80830F5F1F4FB4
:10F7800080913E0390913F030817190788F30E9468
:10F79000D9F8803209F0B6CE8091420380FFB2C121
:10F7A00040913C0250913D02440F551F50933D0241
:10F7B00040933C0260913E0370913F0361157105D7
:10F7C000F1F080E090E09A01280F391FFC01E25C23
:10F7D000FD4FE081F999FECF1FBA32BD21BDE0BDDA
:10F7E0000FB6F894FA9AF99A0FBE01968617970702
:10F7F00050F3460F571F50933D0240933C028091B7
:10F800003802813081F0823009F04FCE8091C800FB
:10F8100085FFFCCFE092CE008091C80085FFFCCF31
:10F82000A092CE0042CE8091C00085FFFCCFE09236
:10F83000C6008091C00085FFFCCFA092C60035CEE7
:10F8400080E10E947DF931CE0E94D9F880933F0378
:10F850000E94D9F880933E0320913C0230913D02F2
:10F8600037FD46C1809142038D7F80934203220F72
:10F87000331F30933D0220933C020E94D9F8853417
:10F8800009F430C1809142038E7F809342030E942D
:10F89000D9F8803209F009CE60913802613009F45C
:10F8A0006FC0623009F473C000913E0310913F03B2
:10F8B0000115110509F440C080914203782F717041
:10F8C000F82EF69481E0F82240913C0250913D02DE
:10F8D00020E030E013C0FF2009F060C0FA019491ED
:10F8E000613009F43BC0623009F441C0CA0101969D
:10F8F0002F5F3F4FAC0120173107D0F4772359F326
:10F90000F999FECF52BD41BDF89A90B56130F9F03A
:10F91000623061F78091C80085FFFCCF9093CE00E4
:10F92000CA0101962F5F3F4FAC012017310730F31A
:10F9300090933D0280933C02613009F4CAC062306A
:10F9400009F0B3CD8091C80085FFFCCF46CE8091F1
:10F95000C00085FFFCCF9093C600C8CF8091C00047
:10F9600085FDF9CF8091C00085FFF8CFF4CF80915D
:10F97000C80085FDD3CF8091C80085FFF8CFCECFDA
:10F980008091C00085FFFCCFE092C6008DCF8091B2
:10F99000C80085FFFCCFE092CE0086CFCA01A0E070
:10F9A000B0E080509040AF4FBF4FABBFFC0197918C
:10F9B000613061F0623009F099CF8091C80085FD17
:10F9C000ADCF8091C80085FFF8CFA8CF8091C0004F
:10F9D00085FDC1CF8091C00085FFF8CFBCCF0E94CC
:10F9E000D9F8803209F08ECD80913802813011F142
:10F9F000823009F05ACD8091C80085FFFCCFE0929B
:10FA0000CE008091C80085FFFCCFD092CE008091BF
:10FA1000C80085FFFCCFC092CE008091C80085FF52
:10FA2000FCCFB092CE008091C80085FFFCCFA092A1
:10FA3000CE003BCD8091C00085FFFCCFE092C60098
:10FA40008091C00085FFFCCFD092C6008091C0009D
:10FA500085FFFCCFC092C6008091C00085FFFCCF1F
:10FA6000B092C6008091C00085FFFCCFA092C60076
:10FA70001CCD0E94D9F8813209F017CD0E94D9F827
:10FA8000813209F012CD279A2F98109240032091CD
:10FA90003802E1E491E00EC0223009F4A4C0909352
:10FAA0004003E92FF0E0E050FE4FE0819F5FEE233E
:10FAB00009F4A0C0213081F78091C00085FFFCCF00
:10FAC000E093C600ECCF80914203816080934203B3
:10FAD00047CE8091C00085FDB7CD8091C00085FFE5
:10FAE000F8CFB2CD80914203816080934203CFCEA4
:10FAF00080914203826080934203B9CE87E90E94DD
:10FB00007DF9D3CC80913D028823880F880B892111
:10FB1000809341038BBF80913C0290913D02880FFE
:10FB2000991F90933D0280933C0280913E0380FF99
:10FB300009C080913E0390913F03019690933F034B
:10FB400080933E03F894F999FECF1127E0913C028F
:10FB5000F0913D02CEE3D2E080913E0390913F03CD
:10FB6000103091F40091570001700130D9F303E097
:10FB700000935700E8950091570001700130D9F3C8
:10FB800001E100935700E895099019900091570002
:10FB900001700130D9F301E000935700E895139507
:10FBA000103898F011270091570001700130D9F3F7
:10FBB00005E000935700E89500915700017001306F
:10FBC000D9F301E100935700E8953296029709F0C6
:10FBD000C7CF103011F00296E5CF112410CE8EE180
:10FBE0000E947DF962CC8091C80085FFFCCFE09334
:10FBF000CE0055CF7AE0B72E6DE0A62E5AE3952EB3
:10FC000040E2842E3DE3732E90E3692E81E3582E6B
:10FC1000213009F442C0223009F45FC00E94D9F8B3
:10FC2000982F20913802213089F1223009F44EC0FA
:10FC3000943709F46BC0923709F405C1973709F47A
:10FC40007BC0953799F0923609F4BDC09A3601F71A
:10FC5000E0913A02F0913B02099520913802D8CF09
:10FC60008091C00085FFFCCF9093C6000E94D9F818
:10FC7000982F80913802813099F38230B9F78091C2
:10FC8000C80085FFFCCF9093CE00F0CF8091C000DC
:10FC900085FFFCCF9093C600CBCF8091C00085FF3D
:10FCA000FCCFB092C6008091C00085FFFCCFA0922F
:10FCB000C6008091C00085FFFCCF9092C600809165
:10FCC000C00085FFFCCF8092C600A8CF8091C800FD
:10FCD00085FFFCCF9093CE00ABCF8091C80085FF0D
:10FCE000FCCFB092CE008091C80085FFFCCFA092DF
:10FCF000CE008091C80085FFFCCF9092CE0080910D
:10FD0000C80085FFFCCF8092CE0088CF1F9947C0E6
:10FD10002F9A213051F0223009F07ACF8091C8001B
:10FD200085FFFCCF6092CE0073CF8091C00085FF2D
:10FD3000FCCF6092C6006CCF0E94D9F8982F8091BA
:10FD400038028130F1F0823009F4ABC00E9455F9DD
:10FD5000082F0E9455F9182F0E94D9F8982F8091EA
:10FD600038028130A9F0823009F4A2C00E9455F90E
:10FD7000D02ECC24F601E10FF11D808320913802B2
:10FD800047CF8091C00085FFFCCF9093C600DECFA7
:10FD90008091C00085FFFCCF9093C600E7CF2F98DD
:10FDA000213051F0223009F033CF8091C80085FF17
:10FDB000FCCF5092CE002CCF8091C00085FFFCCFAD
:10FDC0005092C60025CF213041F1223081F080E8E9
:10FDD00085BF109274001092750080E091E1FC01E3
:10FDE000819180E091E13097D1F3CF01F8CF8091FC
:10FDF000C80085FFFCCF82E68093CE008091C800CA
:10FE000085FFFCCF85E78093CE008091C80085FFF9
:10FE1000FCCF83E78093CE00DACF8091C00085FFCE
:10FE2000FCCF82E68093C6008091C00085FFFCCFA6
:10FE300085E78093C6008091C00085FFFCCF83E7F3
:10FE40008093C600C4CF0E94D9F8982F80913802C1
:10FE50008130C9F08230D1F10E9455F9182F0E94EB
:10FE600055F9982F809138028130A1F0823039F114
:10FE7000F12EEE24F701E90FF11D80810E9494F824
:10FE800020913802C5CE8091C00085FFFCCF9093B1
:10FE9000C600E2CF8091C00085FFFCCF7092C60003
:10FEA000E7CF8091C80085FFFCCF9093CE004ECF66
:10FEB0008091C80085FFFCCF9093CE0057CF8091F2
:10FEC000C80085FFFCCF7092CE00D2CF8091C800D1
:0EFED00085FFFCCF9093CE00BFCFF894FFCFFC
:10FEDE0041546D656761424F4F54202F204172642B
:10FEEE0075696E6F204D656761202D20284329208E
:10FEFE0041726475696E6F204C4C43202D20303951
:08FF0E00303933300A0D008088
:040000031000F000F9
:00000001FF