:1000000020C100004FC100004DC100004BC10000E5
:1000100049C1000047C1000045C1000043C10000C4
:1000200041C100003FC100003DC100003BC10000D4
:1000300039C100000C94381335C1000033C10000F1
:1000400031C100002FC100002DC100002BC10000F4
:1000500029C1000027C1000025C100000C94FE103A
:1000600021C100000C94FC0F0C94D30F1BC10000A5
:1000700019C1000017C1000015C1000013C1000024
:1000800011C100000FC100000DC100000BC1000034
:1000900009C1000007C1000005C1000003C1000044
:1000A00001C10000FFC00000FDC00000FBC0000057
:1000B000F9C00000F7C00000F5C00000F3C0000068
:1000C000F1C00000EFC00000EDC00000EBC0000078
:1000D000E9C00000E7C00000E5C00000E3C0000088
:1000E000E1C00000F60DFB0D030E0E0E100E150EF6
:1000F0001D0E280E360E380E720F750F640F680F26
:100100006E0FAC0F790F7D0F830F870F8B0F910F41
:10011000950F990FAC0F9F0FA30FA70F00002100A1
:10012000240027002A002D003000330001010000C8
:10013000040107010A0100002200250028002B000D
:100140002E003100340002010000050108010B01FE
:10015000000020002300260029002C002F00320080
:100160000001000003010601090105050505070559
:1001700008080808020202020A0A08080404040423
:10018000010101010101010103030303030303034F
:10019000040707070C0C0C0C0C0C0C0C02020202DE
:1001A00006060606060606060B0B0B0B0B0B0B0BC7
:1001B0000102102020080810204010204080020179
:1001C000020108040201010204081020408080405E
:1001D000201008040201800402018040201008045D
:1001E00002010804020101020408102040800102FB
:1001F00004081020408000000A0B02090C0D0E08B4
:1002000007030401000000000000000000000000DF
:1002100000000000000000000000000000000000DE
:10022000000012111000000000000000000000009B
:100230000000000000000000000000000200EB15BC
:10024000AC1311241FBECFEFD1E2DEBFCDBF00E063
:100250000CBF25E0A0E7B3E001C01D92AB31B207AF
:10026000E1F713E0A0E0B2E0E4E8FDE300E00BBF5B
:1002700002C007900D92A037B107D9F711E0C0E294
:10028000D1E000E006C021970109802FFE010E9405
:100290007619CF31D10780E00807A9F70E94F31340
:1002A0000C94B11EADCE08950C94491ADF92EF92D2
:1002B000FF920F931F93CF93DF937C018A01FC0180
:1002C000828DC62FD0E0CC0FDD1FCE0DDF1D882321
:1002D000A1F0DB8C462F6D2DC7010E947D0DB8016A
:1002E000C7010E949713F80101900020E9F73197A8
:1002F000E01BF10BED0DEB8F13C0FA010190002014
:10030000E9F73197E41BF50BDC8CDE1A462F6D2DD7
:10031000C7010E947D0DB801C7010E949713DC8EB2
:10032000DF91CF911F910F91FF90EF90DF90089593
:100330004F925F926F927F928F929F92AF92BF92F5
:10034000EF92FF920F931F93CF93DF93EC0188817D
:10035000869F9001879F300D11244A81429FC001E2
:10036000439F900D112468E671E00E9447197B01BC
:10037000072E000C880B990B0E94FA174B015C01A9
:1003800020E030E0A9010E944319181624F0B7FAC2
:10039000B094B7F8B0948E829F82A886B9860A84FA
:1003A000DB85C02D8701F7FE04C0002711270E1939
:1003B0001F091E141F042CF481E090E099838883A8
:1003C00004C0EF2811F01982188284E0E82EF12C85
:1003D0009AE0A92EB12C0115110509F449C00E941B
:1003E000CD104E885F88688C798C9B01AC012419F4
:1003F0003509460957094A805B806C807D80241549
:1004000035054605570538F36E8B7F8B888F998F9E
:10041000288139818A859B852130310559F40196DF
:100420009B878A872E813F818217930771F41B86F1
:100430001A860BC0892B21F48E819F819B878A8726
:100440008A859B8501979B878A870150110928859A
:1004500039858A859B852530310511F4B50101C0A8
:10046000B7010E944719BC01CE010E948F0DB3CF86
:10047000DF91CF911F910F91FF90EF90BF90AF90C0
:100480009F908F907F906F905F904F900895CF9343
:10049000DF93EC01EC85FD8580810E943210892B71
:1004A00029F06BEF7FEFCE0143DFF4CFDF91CF91E7
:1004B0000895AF92BF92CF92DF92EF92FF920F9387
:1004C0001F93CF93DF931F92CDB7DEB77C01C62E6B
:1004D00088ECF701808388E78183DD24D394D2827E
:1004E000638344832583158704878AE190E04983E9
:1004F0000E94B4195C01FC011386128611821082DD
:10050000168A178A108E118E88EC90E09783868366
:100510008C2D90E095878487498150E057874687E6
:1005200061E08C2D0E948E1061E0F50186850E94AD
:100530008E10F501118A108A138A128A158A148A7C
:1005400082E090E091878087F701B386A286F5016B
:1005500026813781032E000C440B550B60E077E8B1
:1005600083E993E00E945A19CA01B901F701018198
:10057000202F30E040E050E00E945A19F50122831C
:1005800033834483558361E0F70185810E948E1097
:1005900060E0F70185810E945C10F701D6860F901C
:1005A000DF91CF911F910F91FF90EF90DF90CF904F
:1005B000BF90AF900895CF92DF92EF92FF920F938A
:1005C0001F93CF93FC012585621708F041C08A0173
:1005D000C62F7C0183E090E00E94B4196C01FC01FD
:1005E000C08312830183F80162817381F70107815F
:1005F0001085F6E0CF9F000D111D112461157105C6
:1006000061F0FB0101900020E9F73197AF01461B33
:10061000570BC8010E94B6120EC0F801808191816B
:10062000009711F00E94491AF80111821082158278
:10063000148213821282F70191858285E92FF82FA7
:10064000EC0FF11DEC0FF11DD182C08281E001C0E1
:1006500080E0CF911F910F91FF90EF90DF90CF90AE
:1006600008950F931F93CF93DF93EC0185E192E000
:10067000998388830F81188501151105E9F0F80128
:1006800032972081318146E0429FC001439F900D07
:100690001124080F191FC8012F8138850650110930
:1006A0008217930731F0F801808191810E94491AE5
:1006B000F2CF02970E94491A10E08D85E985FA85EC
:1006C000181750F4E10FF11DE10FF11D80819181A8
:1006D0000E94491A1F5FF1CF309719F0CF010E9495
:1006E000491A8B859C85009731F0DF91CF911F913E
:1006F0000F910C94491ADF91CF911F910F9108959A
:10070000CF93DF93EC01ADDFCE01DF91CF910C945D
:10071000491AEF92FF920F931F93CF93DF93EC014F
:10072000E62E8A01F12C888DF81678F44E2D6F2D67
:10073000CE010E947D0DE881F9810190F081E02DCC
:1007400060E2CE011995F394EECF2E2D30E0F90141
:10075000EE0FFF1FEC0FFD1F138EF9013E96EE0FFB
:10076000FF1FEC0FFD1F81508083A8016E2DCE016D
:10077000DF91CF911F910F91FF90EF9097CD8F92C6
:100780009F92AF92BF92CF92DF92EF92FF920F9320
:100790001F93CF93DF93CDB7DEB7A1970FB6F89431
:1007A000DEBF0FBECDBFDC0150962D913C9151971D
:1007B000232B09F416C45296ED90FC905397E11444
:1007C000F10409F40EC48C01D701ED91FC91019064
:1007D000F081E02DC7011995D82E882309F46DC248
:1007E000B9E8EB0EF11CF701828190910002981795
:1007F00021F09F3F09F0CDC104C0ECE3F2E09491F9
:10080000FFC080930002ECE3F2E0E491EF3F09F4D3
:10081000C0C1E23009F47EC06CF5EE2309F459C082
:10082000E13009F0ECC010928000109281009091AC
:1008300081009860909381009091810091609093E5
:100840008100282F30E0F901E659FE4FE491F0E0F5
:10085000EE0FFF1FEA5CFE4F4591549150937B03CE
:1008600040937A03F901E055FE4FE491E093790358
:1008700091E0C8C0E43009F49BC00CF472C0E530CC
:1008800009F0BDC010922001109221019091210128
:1008900098609093210190912101916090932101A2
:1008A000282F30E0F901E659FE4FE491F0E0EE0F19
:1008B000FF1FEA5CFE4F45915491509372034093A1
:1008C0007103F901E055FE4FE491E093700395E068
:1008D00099C014BC15BC94B5926094BD95B5916057
:1008E00095BD282F30E0F901E659FE4FE491F0E084
:1008F000EE0FFF1FEA5CFE4F4591549150937E032B
:1009000040937D03F901E055FE4FE491E0937C03B1
:1009100090E078C01092B0001092B1009091B000B9
:1009200092609093B0009091B10091609093B1006B
:10093000282F30E0F901E659FE4FE491F0E0EE0F88
:10094000FF1FEA5CFE4F4591549150939D034093E5
:100950009C03F901E055FE4FE491E0939E0392E081
:1009600051C0109290001092910090919100986067
:100970009093910090919100916090939100282F15
:1009800030E0F901E659FE4FE491F0E0EE0FFF1F71
:10099000EA5CFE4F4591549150937803409377035E
:1009A000F901E055FE4FE491E093760393E02AC00D
:1009B0001092A0001092A1009091A10098609093D5
:1009C000A1009091A10091609093A100282F30E0A8
:1009D000F901E659FE4FE491F0E0EE0FFF1FEA5CEB
:1009E000FE4F459154915093750340937403F90160
:1009F000E055FE4FE491E093730394E003C09E2F13
:100A000097FDC7C061E099A30E948E1099A1992318
:100A100051F09230F9F48091B100887F8260809328
:100A2000B10089EF5FC085B5887F826085BD89EFA1
:100A300087BD8FEF9FEFDC0180938F03909390032E
:100A4000A0939103B093920380916E008260809393
:100A50006E009FC09130E9F480918100887F8160B1
:100A6000809381008FEC97E09093890080938800B9
:100A70008FEF9FEFDC0180938B0390938C03A09307
:100A80008D03B0938E0380916F00826080936F001E
:100A900080C0933039F480919100887F8160809389
:100AA000910033C0943039F48091A100887F816037
:100AB0008093A10041C0953039F480912101887F55
:100AC0008160809321014FC09330F9F02CF4923073
:100AD00009F05FC08FEC06C0943071F1953009F0D9
:100AE00058C041C08093B3008FEF9FEFDC0180932B
:100AF0009F039093A003A093A103B093A2038091BE
:100B0000700082608093700044C08FEC97E09093F7
:100B10009900809398008FEF9FEFDC01809387030B
:100B200090938803A0938903B0938A038091710006
:100B30008260809371002DC08FEC97E09093A900A4
:100B40008093A8008FEF9FEFDC0180938303909345
:100B50008403A0938503B093860380917200826022
:100B60008093720016C08FEC97E0909329018093D8
:100B700028018FEF9FEFDC0180937F039093800328
:100B8000A0938103B093820380917300826080936D
:100B900073000E948112D70112968C910E94F51267
:100BA0000E948112B3E0DB122BC0F8019785868585
:100BB000911108C0811104C08585815086871BC0B2
:100BC000815032C0F80121859285E22FF92FE80F7C
:100BD000F11DE80FF11D0190F081E02D0180F281FF
:100BE000E02D309741F096858585890F858794851E
:100BF000981708F4958781E0D80114968C935DC00E
:100C0000B4E0DB122EC0F80197858685911110C0E3
:100C1000482F50E0258530E0215031094217530715
:100C200011F41686E8CF8F5FD8011E968C93E3CF20
:100C3000F80121859285E22FF92FE80FF11DE80FC9
:100C4000F11D0190F081E02D0180F281E02D3097BF
:100C500091F285859685891B85879385891750F242
:100C6000CACFF1E0DF1229C0D8011E968C911E97E1
:100C700090E0880F991F1996ED91FC911A97E80F53
:100C8000F91F0190F081E02D21813281232B31F079
:100C90001F962C911F97D2261F96DC92F801238570
:100CA0003485F901E80FF91F0190F081E02D3097AC
:100CB00009F4A1CFC80119959ECFD80114968C9143
:100CC0001497882309F48DC15096ED90FC905197AC
:100CD0001E96CC901E97C11002C01D96CC90CA944F
:100CE000B6E0CB9E60011124D8011796ED91FC91DE
:100CF0001897EC0DFD1D448155816081718183EA57
:100D000093E00E94C41142E050E065E972E083EA9A
:100D100093E00E94C411F80187819085FC01EC0DDD
:100D2000FD1DC080D180F7E9CF16F2E0DF0609F49F
:100D30004AC048E952E060E0C701EBDCA60160E090
:100D4000C701B4DAD7015A961C92F8018685811141
:100D500001C085858150D80119962C9119971A9652
:100D60009C91E22FF92FE80FF11DE80FF11D019082
:100D7000F081E02D309709F422C10180F281E02D4D
:100D800085856E01BBE1CB0ED11C96E0F601119278
:100D90009A95E9F71F928F9383E193E09F938F9346
:100DA000DF92CF920E94E81B4BE952E060E0C7015E
:100DB0007DDAA60160E0C70179DA0F900F900F90FD
:100DC0000F900F900F9081E0D7015A968C93FE01FF
:100DD00031966F0184E1DF011D928A95E9F7F801F0
:100DE000868587809084F6E08F9F800C911C11246B
:100DF000D4011496AD90BC901597A114B10491F054
:100E0000B3E1AB16B10418F083E1A82EB12CF401C4
:100E100060817181A501C6010E94D91BF601EA0D0E
:100E2000FB1D1082D401AD90BC90B7E9AB16B2E0C7
:100E3000BB0609F446C04DE952E061E0C70169DC38
:100E4000A50161E0C70132DAF701128ED8011E96C2
:100E50008C911E9719962C9119971A969C91E22FB6
:100E6000F92FE80FF11DE80FF11D0190F081E02D41
:100E7000309709F4AAC00180F281E02D85855E01DA
:100E8000B5E1AB0EB11C96E0F50111929A95E9F728
:100E90001F928F9383E193E09F938F93BF92AF92C2
:100EA0000E94E81B40EA52E061E0C701FFD9A501BA
:100EB00061E0C701FBD90F900F900F900F900F903A
:100EC0000F9081E0D7015A968C93F8018685482FC0
:100ED00050E0258530E0215031094217530711F0C9
:100EE0008F5F01C080E0D8011796ED91FC911897B3
:100EF000B6E08B9FE00DF11D1124A080B180E7E9E1
:100F0000AE16E2E0BE0609F44EC048E952E062E0E7
:100F1000C701FFDBA50162E0C701C8D9D7015A9616
:100F20001C92F8018685482F50E0258530E021503D
:100F300031094217530711F08F5F01C080E0D801DB
:100F400019962C9119971A969C91E22FF92FE80F78
:100F5000F11DE80FF11D0190F081E02D309709F4AB
:100F60003AC00180F281E02D858596E0F60111926C
:100F70009A95E9F71F928F9383E193E09F938F9364
:100F8000DF92CF920E94E81B42EA52E062E0C70182
:100F90008DD9A60162E0C70189D90F900F900F90FB
:100FA0000F900F900F9081E0D7015A968C9344EAEE
:100FB00052E063E0C701ADDBF801148212C04BE9D7
:100FC00052E060E0C70172D9FECE40EA52E061E033
:100FD000C7016CD976CF42EA52E062E0C70166D918
:100FE000E2CFA1960FB6F894DEBF0FBECDBFDF9162
:100FF000CF911F910F91FF90EF90DF90CF90BF9016
:10100000AF909F908F9008950F931F93CF93DF938E
:10101000EC018F819885892B71F189859A850097DC
:1010200051F1DC01ED91FC910190F081E02D1995D9
:10103000882339F0ED81FE8181819281019692832E
:1010400081838C818823B9F00F8118854B855C855D
:1010500060E0C8015EDB4D855E8561E0C80159DB5B
:101060004F85588962E0C80154DB49895A8963E099
:10107000C8014FDB1C82DF91CF911F910F91089522
:101080000895FC01308140E050E0242F4317C0F464
:10109000CA01880F991FA381B481A80FB91F0D90B1
:1010A000BC91A02D12968D919C9113974F5F5F4F2D
:1010B0008617970751F730E03283218381E0089546
:1010C00080E00895AF92BF92CF92DF92EF92FF92AD
:1010D0000F931F93CF93DF93FC01D08020E030E08B
:1010E000FC01A380B4802D1578F4A901440F551F8D
:1010F000F501E40FF51F2F5F3F4F40815181452BD4
:1011000079F7718360832BC07B018C01CC24C3945D
:10111000CD0CCC2DD0E0CE01880F991FA114B104C5
:1011200051F00E94B419F7E0DF9EA0011124B5012F
:101130000E94C91B05C00E94B419F80194838383DF
:10114000F801C082C150D048CC0FDD1F838194814B
:10115000C80FD91FF982E882F70116830583DF9152
:10116000CF911F910F91FF90EF90DF90CF90BF90A4
:10117000AF900895089580E090E00895089508954F
:10118000CF93DF93EC0160E08E8196D761E08E8192
:1011900093D760E08E8190D78BE891E00197F1F7CB
:1011A000DF91CF9108952F923F924F925F926F926D
:1011B0007F928F929F92AF92BF92CF92DF92EF92E7
:1011C000FF920F931F93CF93DF93CDB7DEB72E9788
:1011D0000FB6F894DEBF0FBECDBF9E878D878A57AE
:1011E0009F4F9A83898381E0A981BA818C93FAD732
:1011F0002D853E852A583F4F3C832B83D9010D9185
:101200001D912D913C91AB01BC01401B510B620B18
:10121000730BED85FE85EE57FF4F80819181A0E035
:10122000B0E084179507A607B70708F07CC1ED84E6
:10123000FE84BAE1EB0EF11C10E02D843E84E0E860
:101240002E0E311CCD84DE84FCE7CF0ED11CD101E3
:101250008C911817A8F4AD85BE855A968D919C91F6
:101260005B97F601A081B181A10FB11DFC01208126
:10127000318142E06C91C701F90119951F5FE7CFF9
:10128000D12C2D853E852F573F4F3E832D83AD8436
:10129000BE843EE7A30EB11C412C512C3201439475
:1012A0002D853E8524583F4F38872F83ED81FE8161
:1012B0008081D81608F08FC08D2C912CAD85BE850D
:1012C0005A968D919C915B97F501A081B181A80DF3
:1012D000B91DFC012081318141E06C91C701F90108
:1012E0001995AD85BE855A968D919C915B97F501B8
:1012F000A081B181A80DB91DFC012281338140E09C
:101300006C91C701F9011995D301C2010D2C04C0DC
:10131000880F991FAA1FBB1F0A94D2F7AC019C012A
:1013200020953095C12CF1018081AD85BE855A96FE
:10133000ED91FC915B97C81660F50C2D10E0AF8124
:10134000B8858D919C91DC01A00FB11F0480F581BF
:10135000E02D6C91C7012B873C8749875A871995E7
:10136000000F111F2B853C8549855A85ED85FE852B
:10137000E00FF11F892B29F482A193A1842B952BD7
:1013800004C082A193A18223932393A382A3C39435
:10139000CACFD5018D919C91DC01A80DB91D0280A9
:1013A000F381E02D41E06C91C7011995AD85BE85B3
:1013B0005A96ED91FC915B97D5018D919C91DC0142
:1013C000A80DB91D0190F081E02D40E06C91C7019E
:1013D0001995D3946BCF0D851E850A5C1F4F8D85A3
:1013E0009E858E589F4FF8012FEF3FEF4381548128
:1013F000452B21F410823283218315823696E8171B
:10140000F907A1F7912CCD84DE84FAE7CF0ED11C29
:10141000AD84BE8427E3A20EB11C86E0882EF101C4
:101420008081981608F057C0712C4D845E84490C59
:10143000511C490C511C32E2430E511CAD81BE813E
:101440008C91781608F045C0D2014D915C91072C23
:1014500002C0569547950A94E2F741705527989E29
:10146000C0011124870D911DD601ED91FC91E80F6B
:10147000F91FA081F50160E020813181281739072B
:1014800011F441701BC06F5F36966A30A9F7452B87
:10149000F1F0F80160E070E02081211112C0869E19
:1014A000F001879EF00D11242D853E85E20FF31F7C
:1014B000A6AB90AF87AB12AE11AE41E0C701E8D644
:1014C00006C06F5F7F4F36966A30710529F77394B7
:1014D000B5CF9394A4CFED85FE85FB968D859E8533
:1014E00089589F4F10E02081211111E03696E817AE
:1014F000F907C9F777D6AB81BC816D937D938D9346
:101500009C931397112379F0ED85FE8583AD882395
:1015100051F081AD92AD8130910529F426A92A328E
:1015200009F448C004C0A981BA811C921AC02332B0
:10153000D9F02134E1F02434E9F02033F1F0213303
:10154000F9F0223301F1233309F1243311F125336A
:1015500019F1263321F1273329F1283331F12933C9
:1015600039F180E090E026C082E090E023C083E083
:1015700090E020C084E090E01DC085E090E01AC0BB
:1015800086E090E017C087E090E014C088E090E02B
:1015900011C089E090E00EC08AE090E00BC08BE0C3
:1015A00090E008C08CE090E005C08DE090E002C0C3
:1015B0008EE090E02E960FB6F894DEBF0FBECDBF42
:1015C000DF91CF911F910F91FF90EF90DF90CF901F
:1015D000BF90AF909F908F907F906F905F904F9053
:1015E0003F902F9008950C94491A0C94491A6F92C9
:1015F0007F929F92AF92BF92CF92DF92EF92FF9233
:101600000F931F93CF93DF938C01DC011996ED911B
:10161000FC911A97A081B181109739F011960D9025
:10162000BC91A02D1D96BC9001C0B12C0280F3810D
:10163000E02D309729F00180F281E02DA58401C0D2
:10164000A12C84E290E00E94B419EC01F801848D91
:10165000958D228D338D408D518D66897789628875
:101660007388A489B589E088F188992493949C8231
:10167000E9EBCE2EE2E0DE2EDB82CA821E821D82E4
:10168000FBE0CF2EF2E0DF2ED982C8829B8E1C8E2B
:101690009D8EE5E0CE2ED12CDF8ECE8E18A219A223
:1016A0001AA21BA2F886EF82BA87A9877C866B866E
:1016B0007E876D875A8B498B388B2F879C8B8B8BC2
:1016C000BD8AAF8A9E8A988E6B2D70E080E090E094
:1016D0000E94FA179B01AC0160E070E084EB93E498
:1016E0000E94AA180E9412197A8F698FBE01D80130
:1016F00015968D919C911697E5DC69EB72E0F801E7
:1017000085819681DF91CF911F910F91FF90EF908E
:10171000DF90CF90BF90AF909F907F906F90B1CCB3
:10172000CF92DF92EF92FF920F931F93CF93DF93AD
:101730007C016C0187E0C80ED11CC0E0D0E0062F10
:1017400010E0B8010C2E02C0759567950A94E2F777
:101750006170F60181916F01AFD42196C430D1053B
:1017600081F7C701DF91CF911F910F91FF90EF900B
:10177000DF90CF9005CDCF92DF92EF92FF920F9343
:101780001F93CF93DF93EC01F62E642F8C8194D4BA
:101790008D818F3F11F060E08FD48F850F2D10E089
:1017A00084FF23C06E0187E0C80ED11CE12CF12C10
:1017B000B8010E2C02C0759567950A94E2F7617026
:1017C000F60181916F0178D4FFEFEF1AFF0A88E0EC
:1017D000E816F10469F7CE01DF91CF911F910F91C7
:1017E000FF90EF90DF90CF90CBCCB80184E075955F
:1017F00067958A95E1F7CE0193DF6F2DCE01DF91DA
:10180000CF911F910F91FF90EF90DF90CF9088CFF5
:1018100041E0B1DF81E090E0089540E0ACCF8F92ED
:101820009F92AF92BF92CF92DF92EF92FF920F936F
:101830001F93CF93DF93CDB7DEB7A8970FB6F89479
:10184000DEBF0FBECDBFFC0187819085892B09F4D7
:1018500041C181859285892B09F43CC1838594859A
:10186000009709F437C125853685232B09F432C149
:101870008F01DC01ED91FC910190F081E02D199533
:10188000F80193A1992389F1813079F5E580F680FB
:10189000D70111968D919C911297181619062CF567
:1018A000880F991F1396ED91FC911497E80FF91F7B
:1018B00080819181009739F0DC01ED91FC910280EB
:1018C000F381E02D1995F70181819281019792832F
:1018D0008183880F991F0380F481E02DE80FF91FA1
:1018E0000190F081E02D81E08483D80114968C91E1
:1018F0001497882309F469C01796ED90FC90189707
:1019000093968C918823A1F061E0C70186DF8BE379
:101910009FE10197F1F741EC52E060E0C7010E94BE
:1019200089034CEC52E063E0C7010E9489034AC07E
:1019300040EE52E060E0C7010E948903F8019689F9
:101940002589908C878884E16E01F5E1CF0ED11C4A
:10195000D601E82F1D92EA95E9F7AE014F5F5F4F80
:101960005A01DA011D928A95E9F71F922F931F926F
:101970009F9385EF92E09F938F93DF92CF920E9487
:10198000E81B1F928F921F929F9286E093E09F9395
:101990008F93BF92AF920E94E81BA60161E0C7013E
:1019A0000E948903A50162E0C7010E94890347E9FB
:1019B00052E063E0C7010E9489030FB6F894DEBFCE
:1019C0000FBECDBFD80114961C92F80182A18111DF
:1019D0001DC085859685DC011C962D913C911D9737
:1019E000232B11F00E944702F80181899289DC01C2
:1019F0001C962D913C911D97232B11F00E944702BC
:101A000081E0F801838F848F82A364C083A1811158
:101A100061C00388F489E02D808124D3F801668DAC
:101A2000778D892B61F0818992890E949801F80154
:101A3000848D882309F44EC0F801148E4BC0848D28
:101A4000811141C0D8015D968C915D9791E0892705
:101A50005D968C935D977195619571095F967C9306
:101A60006E935E97882359F156968C9156978F5FA7
:101A700056968C93569755962C915597281788F41F
:101A800056969C93569758968C9158978F5F589678
:101A90008C93589757962C915797281710F4939634
:101AA0009C93F80183A1811106C0618D728D85859B
:101AB00096850E94980181E0D80114968C9381E06C
:101AC000F801848F07C0D80151968D919C9152974F
:101AD0000E949801A8960FB6F894DEBF0FBECDBF46
:101AE000DF91CF911F910F91FF90EF90DF90CF90FA
:101AF000BF90AF909F908F900895FC01443008F004
:101B000043E08389481710F04FEF480FDF01A40F1F
:101B1000B11D54969C91690F6068CF017ECE0F93E2
:101B20001F93CF93DF93EC018B01888599850297F2
:101B3000D9F46130710569F024F4672BA9F460E0F1
:101B400009C06230710551F06330710569F460E0DD
:101B500006C061E08C85B0D261E004C061E08C8594
:101B6000ABD260E08E85A8D288859985049771F5FF
:101B700001301105A1F044F40115110539F561E0BA
:101B80008C859AD260E00FC00230110599F00330C5
:101B90001105E1F461E08C858FD260E00FC060E058
:101BA0008C858AD261E08E8587D261E0888984D273
:101BB00060E00AC060E08C857FD261E08E857CD2D7
:101BC00060E0888979D261E08A8976D288859985B2
:101BD000059709F060C00A30110508F05CC0F801F3
:101BE0008827EE58FF4F8F4F0C94761960E08C8554
:101BF00063D261E041C060E08C855ED261E08E8599
:101C00005BD260E03CC060E08C8556D261E08E859E
:101C100053D260E0888950D261E034C060E001C0F6
:101C200061E08C8549D261E004C061E08C8544D2DA
:101C300060E08E8541D260E007C061E08C853CD2D7
:101C400060E08E8539D261E0888936D261E00AC0D1
:101C500061E08C8531D260E08E852ED261E088898A
:101C60002BD260E08A8928D260E00FC061E001C019
:101C700060E08C8521D260E08E851ED261E088898B
:101C80001BD260E08A8918D261E08C89DF91CF9104
:101C90001F910F9111C2DF91CF911F910F91089564
:101CA0000895FC01538D448D252F30E0842F90E062
:101CB000821B930B541710F0CF9608950197089547
:101CC000FC01918D828D981761F0828DDF01A80F44
:101CD000B11D5D968C91928D9F5F9F73928F90E066
:101CE00008958FEF9FEF0895FC01918D828D9817D5
:101CF00031F0828DE80FF11D858D90E008958FEF12
:101D00009FEF0895FC01918D228D892F90E0805CDA
:101D10009F4F821B91098F739927089583EA93E05F
:101D2000F1DF21E0892B09F420E0822F0895FC01E6
:101D3000848DDF01A80FB11DA35ABF4F2C91848D54
:101D400090E001968F739927848FA689B7892C9389
:101D5000A089B1898C9180648C93938D848D981324
:101D600006C00288F389E02D80818F7D80830895ED
:101D7000EF92FF920F931F93CF93DF93EC0181E0DB
:101D8000888F9B8D8C8D981305C0E889F989808197
:101D900085FD23C0F62E0B8D10E00F5F1F4F0F73D4
:101DA0001127E02E8C8DE8120BC00FB607FCFACF7E
:101DB000E889F989808185FFF5CFCE01B8DFF2CFC0
:101DC0008B8DFE01E80FF11DE35AFF4FF0820B8F60
:101DD000EA89FB898081806207C0EE89FF89608380
:101DE000E889F98980818064808381E090E0DF91D7
:101DF000CF911F910F91FF90EF900895CF93DF93B4
:101E0000EC01888D8823C1F0EA89FB89808185FDFA
:101E100005C0A889B9898C9186FD0EC00FB607FC54
:101E2000F5CF808185FFF2CFA889B9898C9185FF94
:101E3000EDCFCE017CDFE8CFDF91CF91089580E038
:101E400090E0892B19F06ADF811125C080E090E0D5
:101E5000892B41F080E090E0892B21F00E94000066
:101E600081111CC080E090E0892B41F080E090E07F
:101E7000892B21F00E940000811113C080E090E0C6
:101E8000892BA1F080E090E0892B81F00E94000076
:101E900081110AC008950E940000D8CF0E9400005E
:101EA000E1CF0E940000EACF0C940000089590E07A
:101EB000FC013197E231F10508F04EC08827E45863
:101EC000FF4F8F4F0C947619809180008F7703C05D
:101ED000809180008F7D80938000089580918000A4
:101EE000877FF9CF84B58F7702C084B58F7D84BD9D
:101EF00008958091B0008F7703C08091B0008F7DEE
:101F00008093B0000895809190008F7707C08091F2
:101F100090008F7D03C080919000877F8093900018
:101F200008958091A0008F7707C08091A0008F7DD9
:101F300003C08091A000877F8093A00008958091C6
:101F400020018F7707C0809120018F7D03C0809191
:101F50002001877F809320010895DC0126E0629FA5
:101F6000A00DB11D112490965C934E935F9721E0D4
:101F700091962C939197FC01E459FF4F2081319663
:101F80000190F081E02D222331F0309749F061116A
:101F900007C0DC0102C0309719F05C968C9119944F
:101FA00008950E94C51B1F920F920FB60F92112425
:101FB0000BB60F922F933F934F935F936F937F9343
:101FC0008F939F93AF93BF93EF93FF9383EA93E035
:101FD000AEDEFF91EF91BF91AF919F918F917F9175
:101FE0006F915F914F913F912F910F900BBE0F908A
:101FF0000FBE0F901F9018951F920F920FB60F9261
:1020000011240BB60F922F938F939F93EF93FF930F
:10201000E091B303F091B4038081E091B903F091B2
:10202000BA0382FD12C090818091BC038F5F8F73D1
:102030002091BD03821751F0E091BC03F0E0ED5513
:10204000FC4F958F8093BC0301C08081FF91EF917D
:102050009F918F912F910F900BBE0F900FBE0F90FD
:102060001F901895CF93DF93282F30E0F901EA50A5
:10207000FE4F8491F901E055FE4FD491F901E659E4
:10208000FE4FC491CC2389F0811111DFEC2FF0E0D9
:10209000EE0FFF1FE05BFE4FA591B491EC91ED2395
:1020A00081E090E021F480E002C080E090E0DF91E8
:1020B000CF910895862FD6CF1F93CF93DF93282FEC
:1020C00030E0F901EA50FE4F8491F901E055FE4FEE
:1020D000D491F901E659FE4FC491CC23C1F0162FDB
:1020E0008111E5DEEC2FF0E0EE0FFF1FEA5CFE4F02
:1020F000A591B4918FB7F894111105C09C91ED2F63
:10210000E095E92302C0EC91ED2BEC938FBFDF91BA
:10211000CF911F910895862F642FCECFCF93DF9359
:1021200090E0FC01E055FE4F2491FC01E659FE4F82
:102130008491882361F190E0880F991FFC01E45E8F
:10214000FE4FC591D491FC01EA5CFE4FA591B4917C
:10215000611109C09FB7F8948881209582238883F4
:10216000EC912E230BC0623061F49FB7F894388154
:10217000822F809583238883EC912E2B2C939FBFF5
:1021800006C08FB7F894E8812E2B28838FBFDF918C
:10219000CF910895862F642FC1CF3FB7F8948091D7
:1021A000980390919903A0919A03B0919B0326B54F
:1021B000A89B05C02F3F19F00196A11DB11D3FBF7F
:1021C000BA2FA92F982F8827820F911DA11DB11D0D
:1021D000BC01CD0142E0660F771F881F991F4A9509
:1021E000D1F708952FB7F8946091940370919503F7
:1021F00080919603909197032FBF08951F920F929D
:102200000FB60F9211242F933F938F939F93AF9309
:10221000BF938091940390919503A0919603B09100
:1022200097033091930323E0230F2D3720F4019679
:10223000A11DB11D05C026E8230F0296A11DB11DE9
:10224000209393038093940390939503A093960314
:10225000B09397038091980390919903A0919A036A
:10226000B0919B030196A11DB11D8093980390939B
:102270009903A0939A03B0939B03BF91AF919F9151
:102280008F913F912F910F900FBE0F901F90189537
:102290006F927F928F929F92AF92BF92CF92DF9276
:1022A000EF92FF921F93CF93DF931F92CDB7DEB7CC
:1022B0003C01162FFC0186E0689FE00DF11D112402
:1022C00011A2878D90A181309105E9F01CF4892B32
:1022D00051F04BC08230910599F1039709F045C048
:1022E00040E050E031C0442309F43FC041E050E0F9
:1022F000C30133DE77DFF301E85AFF4F6083718358
:102300008283938332C049836DDFF301E85AFF4F24
:10231000C080D180E280F3804B015C018C189D0865
:10232000AE08BF08729680819181A0E0B0E049813B
:1023300088159905AA05BB0518F442E050E004C0D1
:10234000411113C043E050E0612FC3010F90DF91B2
:10235000CF911F91FF90EF90DF90CF90BF90AF9003
:102360009F908F907F906F90F8CD0F90DF91CF91DD
:102370001F91FF90EF90DF90CF90BF90AF909F9014
:102380008F907F906F900895CF92DF92EF92FF929F
:102390000F931F93CF93DF936C017A018B01C0E001
:1023A000D0E0CE15DF0589F0D8016D918D01D60101
:1023B000ED91FC910190F081E02DC6011995892BDA
:1023C00011F47E0102C02196ECCFC701DF91CF91BD
:1023D0001F910F91FF90EF90DF90CF900895EF92B3
:1023E000FF920F931F93CF93DF93EC01423018F0CD
:1023F0008F8588608F874B8B1C8A80E48D8B6E8BDA
:1024000070E0605C7F4F6F8B61E08C8187DE8D8137
:102410008F3F11F061E082DE61E08E817FDE7E0120
:1024200087E0E80EF11C00E010E08F8584FD03C01A
:1024300084E090E002C088E090E00817190744F4B7
:1024400061E0F70181917F0169DE0F5F1F4FEDCFE2
:102450008BE39DE00197F1F760E08C812DDE60E079
:102460008E812ADE8D818F3F11F060E025DE6F8541
:1024700064FD19C063E0CE0153D90BE416E4C80132
:102480000197F1F763E0CE014BD9C8010197F1F74D
:1024900063E0CE0145D983E592E00197F1F762E070
:1024A000CE013ED913C06062CE01B7D98BE496E469
:1024B0000197F1F76F856062CE01AFD983E592E0B5
:1024C0000197F1F76F856062CE01A7D96F856062D1
:1024D000CE01A3D984E0888B6CE0CE019ED961E067
:1024E000CE019BD98BE39FE10197F1F782E0898BC5
:1024F00066E0CE01DF91CF911F910F91FF90EF9099
:102500008CC98F929F92AF92BF92CF92DF92EF923F
:10251000FF9243DE4B015C0180E5C82ED12CE12CFB
:10252000F12C3BDEDC01CB0188199909AA09BB0912
:10253000883E9340A105B10558F021E0C21AD108A8
:10254000E108F10888EE880E83E0981EA11CB11CFA
:10255000C114D104E104F10421F7FF90EF90DF9062
:10256000CF90BF90AF909F908F900895EF92FF9281
:102570000F931F93CF93DF93EC017B018A01888136
:102580009981009729F02A813B8124173507F0F4BF
:10259000B8016F5F7F4F0E94E11A009759F099834D
:1025A00088831B830A832C813D81232B79F4FC01D2
:1025B00010820CC088819981009709F06AD719822E
:1025C00018821D821C821B821A8207C01D830C8305
:1025D000B701888199810E94D21BCE01DF91CF91F2
:1025E0001F910F91FF90EF90089590910002981322
:1025F0003DC0ECE3F2E0E4919FEF90930002E23003
:10260000C9F050F4EE2399F0E13081F590916F001C
:102610009D7F90936F002AC0E43019F1E0F0E5301F
:1026200029F5909173009D7F909373001FC01092C5
:102630006E001CC0909170009D7F9093700091E09F
:102640009093B0009091B100987F94609093B10006
:102650001092B3000BC0909171009D7F9093710018
:1026600005C0909172009D7F9093720060E024CD30
:102670001F920F920FB60F9211240BB60F922F9349
:102680003F934F935F936F937F938F939F93AF93FA
:10269000BF93EF93FF9380919F039091A003A0912C
:1026A000A103B091A203892B8A2B8B2B51F180912E
:1026B0009E03E0919C03F0919D0390818927808384
:1026C00080919F039091A003A091A103B091A203D8
:1026D000181619061A061B06BCF480919F039091E8
:1026E000A003A091A103B091A2030197A109B10990
:1026F00080939F039093A003A093A103B093A203A0
:1027000003C08091000271DFFF91EF91BF91AF9103
:102710009F918F917F916F915F914F913F912F91F9
:102720000F900BBE0F900FBE0F901F901895611564
:10273000710579F0FB0101900020E9F73197AF01B5
:10274000461B570BDC01ED91FC910280F381E02DDB
:10275000199480E090E00895CF93DF93C0910A052B
:10276000D0910B05209729F08A859B8592D6CE01C2
:1027700090D6C0910C05D0910D05209729F08A853F
:102780009B8587D6CE0185D680910E0590910F0549
:1027900080D680911005909111057BD6C0E02091E4
:1027A00012058091150590911605C21790F4FC0151
:1027B000EC0FF11DEC0FF11D80819181009739F034
:1027C000DC01ED91FC910280F381E02D1995CF5F42
:1027D000E6CF009709F05DD68091F2049091F30462
:1027E000DF91CF9156C6789484B5826084BD84B55C
:1027F000816084BD85B5826085BD85B5816085BDFC
:1028000080916E00816080936E00109281008091B3
:10281000810082608093810080918100816080933B
:102820008100809180008160809380008091B10060
:1028300084608093B1008091B00081608093B0008B
:1028400080919100826080939100809191008160DD
:10285000809391008091900081608093900080919E
:10286000A10082608093A1008091A100816080938B
:10287000A1008091A00081608093A000809121013F
:1028800082608093210180912101816080932101E8
:102890008091200181608093200180917A00846082
:1028A00080937A0080917A00826080937A00809190
:1028B0007A00816080937A0080917A0080688093AA
:1028C0007A001092C100E091B303F091B403C2E02A
:1028D000C083E091AF03F091B0031082E091B103A7
:1028E000F091B2038FEC80831092BB03E091B703A9
:1028F000F091B80386E08083E091B503F091B603D0
:10290000808180618083E091B503F091B60380817E
:1029100088608083E091B503F091B6038081806880
:102920008083E091B503F091B60380818F7D808331
:1029300083E190E019D58C0177247394DC0114961F
:102940007C92149786E193E013969C938E93129752
:1029500016961C921E92159789E292E011969C930E
:102960008E938CE193E01C969C938E931B9788E248
:1029700093E01E969C938E931D978FE293E0509662
:102980009C938E931F978FE393E052969C938E9324
:10299000519750E4852E54E0952E18969C928E9275
:1029A000179763E6A62E64E0B62E1A96BC92AE92F6
:1029B00019978FE090E0D8D46C01FC01748280E517
:1029C00093E093838283168215827FE1472E72E023
:1029D000572E5182408290868782B286A186C38715
:1029E00080E2848784E08587C6878FE090E0BCD44E
:1029F0007C01DC0114967C92149786E593E0139693
:102A00009C938E93129716961C921E921597119670
:102A10005C924E9218969C928E9217971A96BC9240
:102A2000AE9219971B967C921B9780E11C968C9313
:102A30001C971D967C921D971E967C928EE190E0CD
:102A400093D4EC01E0911005F091110580910E05F1
:102A500090910F0520910C0530910D0540910A05CC
:102A600050910B057C826CE573E07B836A831E8248
:102A70001D8265E172E0798368837E861F86998A6C
:102A8000888ABB8AAA8A62EF74E07D8B6C8B5F8B2D
:102A90004E8B398F288F9B8F8A8FFD8FEC8F83E031
:102AA0008D8784E190E060D423E030E0FC01219345
:102AB00031933F015F014C01F4E18F0E911CD50170
:102AC00011961C921E9213961C921E9212971596A6
:102AD0001C921E92149740E050E067E972E0C50135
:102AE00045DDB6E0AB0EB11CA814B90441F77886F9
:102AF0006F828D8590E0880F991F36D49A878987D9
:102B000086E090E031D49C878B8720E08D85281764
:102B100098F4822F90E0880F991FE985FA85E80FD5
:102B2000F91F118210824B855C85FA01E80FF91FAD
:102B3000118210822F5FEACFA60160E0CE010E94D1
:102B4000DB02A70161E0CE010E94DB028D858330AC
:102B500070F08F8198854AE050E065E673E00C964E
:102B600005DDEB85FC8587EF9AE095838483B801CA
:102B700082E195E00E946208BE0182E195E00E9438
:102B8000620866E173E082E195E00E94410880916D
:102B90001305909114058F3FEFEF9E0789F0209168
:102BA000120530E0821793075CF4880F991FE091BB
:102BB0001505F0911605E80FF91F8081918102C07B
:102BC00080E090E0DC01ED91FC910480F581E02D46
:102BD000199535D9DCCFAF92BF92CF92DF92EF92A9
:102BE000FF920F931F93CF93DF931092A60310923F
:102BF000A50388EE93E0A0E0B0E08093A703909354
:102C0000A803A093A903B093AA0385E692E090934A
:102C1000A4038093A30385EC90E09093B00380938A
:102C2000AF0384EC90E09093B2038093B10380EC07
:102C300090E09093B4038093B30381EC90E0909381
:102C4000B6038093B50382EC90E09093B803809331
:102C5000B70386EC90E09093BA038093B903109287
:102C6000BC031092BD031092BE031092BF031092DA
:102C700043041092420487E792E0909341048093CA
:102C8000400486E1809344048FEF8093450488E1FB
:102C9000809346048AE1809347048CE18093480442
:102CA0008EE18093490480E280934A0410924B04A1
:102CB00010924C0410924D0410924E0410924F0446
:102CC00041E060E180E494E08ADB84E18093580491
:102CD00084E08093590481E080935A0488E0E9E31A
:102CE000F2E0ABE5B4E001900D928A95E1F744E0A3
:102CF00064E180E494E073DB8DE892E090936404F7
:102D00008093630482E38093650480E38093660488
:102D10008EE2809367048CE2809368048AE2809359
:102D2000690488E280936A0486E280936B0484E2FB
:102D300080936C0480E1E1E4F2E0ADE6B4E0019060
:102D40000D928A95E1F710927F04109283041092FD
:102D500082041092840483E892E090937E0480932E
:102D60007D0420E030E0C901805C9B4FFC01E75A04
:102D7000FF4F1082339611821082329610822A5FA2
:102D80003F4F2C33310579F785E694E09093E004CA
:102D90008093DF0489E694E09093E2048093E10459
:102DA00084E08093E3048093E4048DE694E09093C0
:102DB000DE048093DD048AE090E09093E604809343
:102DC000E50484EF91E09093E8048093E704109287
:102DD000EB041092EA041092D9041092DA041092D3
:102DE000DB041092DC041092E90403E912E0109372
:102DF000ED040093EC04C4E3C093EE0461E084E3CB
:102E00008DD91093F0040093EF04C093F10461E0B6
:102E100084E384D983E290E09093F5048093F404F2
:102E200085E290E09093F7048093F60480E1E1E579
:102E3000F2E0A8EFB4E001900D928A95E1F709E085
:102E400010E0109309050093080584E390E08CD20C
:102E5000EC011FA70EA78FE390E0998F888F86E083
:102E600090E09B8F8A8F8BE590E09D8F8C8F8FE415
:102E700090E09F8F8E8F86E690E099A388A38DE6E1
:102E800090E09BA38AA38DE790E09DA38CA387E0AD
:102E900090E09FA38EA38FE790E099A788A78FE685
:102EA00090E09BA78AA780E890E09DA78CA782E08E
:102EB00090E099AB88AB94EFE92E94E0F92E8E0167
:102EC000C12CD12C88A999A9C816D906ACF4F70150
:102ED00080819181F2E0EF0EF11CF80180839183F3
:102EE00061E01CD960E0F80180810E5F1F4FE4D8DB
:102EF000FFEFCF1ADF0AE6CF88E090E09BAB8AAB0A
:102F000088EFE82E84E0F82E8E01085F1F4FC12C59
:102F1000D12C8AA99BA9C816D906ACF4F7018081E7
:102F20009181F2E0EF0EF11CF8018083918361E062
:102F3000F5D861E0F80180810E5F1F4FBDD8FFEF2B
:102F4000CF1ADF0AE6CFD093F304C093F2041092B5
:102F500012058FEF9FEF9093140580931305109245
:102F600016051092150581E090E0FED1EC018AE093
:102F7000888362E0D3D8D0930F05C0930E0581E01B
:102F800090E0F2D1EC0189E0888362E0C7D8D09369
:102F90001105C09310058FE090E0E6D1EC0100919F
:102FA0000E0510910F0528E043E066E00E945902EB
:102FB000D0930B05C0930A058FE090E0D5D1EC01CA
:102FC000009110051091110528E042E065E00E9493
:102FD0005902D0930D05C0930C05DF91CF911F913D
:102FE0000F91FF90EF90DF90CF90BF90AF9008953A
:102FF000E89409C097FB3EF4909580957095619593
:103000007F4F8F4F9F4F9923A9F0F92F96E9BB2748
:103010009395F695879577956795B795F111F8CFC4
:10302000FAF4BB0F11F460FF1BC06F5F7F4F8F4F2F
:103030009F4F16C0882311F096E911C0772321F025
:103040009EE8872F762F05C0662371F096E8862FBD
:1030500070E060E02AF09A95660F771F881FDAF714
:10306000880F9695879597F90895990F0008550F41
:10307000AA0BE0E8FEEF16161706E807F907C0F0FE
:1030800012161306E407F50798F0621B730B840B06
:10309000950B39F40A2661F0232B242B252B21F4E0
:1030A00008950A2609F4A140A6958FEF811D811D80
:1030B000089597F99F6780E870E060E008959FEFBA
:1030C00080EC089500240A941616170618060906BF
:1030D000089500240A94121613061406050608958E
:1030E000092E0394000C11F4882352F0BB0F40F416
:1030F000BF2B11F460FF04C06F5F7F4F8F4F9F4F56
:10310000089557FD9058440F551F59F05F3F71F0D7
:103110004795880F97FB991F61F09F3F79F087953E
:103120000895121613061406551FF2CF4695F1DFC7
:1031300008C0161617061806991FF1CF8695710557
:10314000610508940895E894BB2766277727CB018B
:1031500097F908950CD0C4CFBCDF40F0B3DF30F056
:1031600021F45F3F19F0A5CF5111EECFA8CFC9DFF1
:1031700098F39923C9F35523B1F3951B550BBB273E
:10318000AA2762177307840738F09F5F5F4F220FEB
:10319000331F441FAA1FA9F333D00E2E3AF0E0E8E4
:1031A00030D091505040E695001CCAF729D0FE2F30
:1031B00027D0660F771F881FBB1F261737074807C2
:1031C000AB07B0E809F0BB0B802DBF01FF27935878
:1031D0005F4F2AF09E3F510568F06BCFB5CF5F3F40
:1031E000ECF3983EDCF3869577956795B795F79560
:1031F0009F5FC9F7880F911D9695879597F9089558
:10320000E1E0660F771F881FBB1F621773078407F3
:10321000BA0720F0621B730B840BBA0BEE1F88F702
:10322000E095089504D06894B1118ECF089571DFB0
:1032300088F09F5790F0B92F9927B751A0F0D1F09F
:10324000660F771F881F991F1AF0BA95C9F712C029
:10325000B13081F078DFB1E0089575CF672F782F16
:103260008827B85F39F0B93FCCF386957795679595
:10327000B395D9F73EF490958095709561957F4F01
:103280008F4F9F4F0895F1DE08F48FEF089597FB5D
:10329000072E16F4009406D077FD08D02FD007FC37
:1032A00005D03EF4909581959F4F08957095619556
:1032B0007F4F0895052E97FB16F400940FD057FD0D
:1032C00005D030D007FC02D046F408C05095409598
:1032D000309521953F4F4F4F5F4F089590958095C2
:1032E000709561957F4F8F4F9F4F0895EE0FFF1F91
:1032F000881F8BBF0790F691E02D1994AA1BBB1B6A
:1033000051E107C0AA1FBB1FA617B70710F0A61BE5
:10331000B70B881F991F5A95A9F780959095BC0106
:10332000CD010895A1E21A2EAA1BBB1BFD010DC001
:10333000AA1FBB1FEE1FFF1FA217B307E407F50765
:1033400020F0A21BB30BE40BF50B661F771F881F41
:10335000991F1A9469F760957095809590959B01D7
:10336000AC01BD01CF010895CF93DF938230910569
:1033700010F482E090E0E0911905F0911A0520E048
:1033800030E0C0E0D0E0309711F140815181481722
:103390005907C0F04817590761F48281938120973B
:1033A00019F09B838A832BC090931A05809319058B
:1033B00026C02115310519F04217530718F49A0158
:1033C000BE01DF01EF010280F381E02DDCCF21158A
:1033D000310509F1281B390B2430310590F4129680
:1033E0008D919C9113976115710521F0FB019383D9
:1033F000828304C090931A0580931905FD013296CB
:1034000044C0FD01E20FF31F8193919322503109D3
:103410002D933C933AC02091170530911805232B2A
:1034200041F4209103023091040230931805209357
:10343000170520910102309102022115310541F456
:103440002DB73EB74091050250910602241B350B63
:10345000E0911705F0911805E217F307A0F42E1B71
:103460003F0B2817390778F0AC014E5F5F4F2417E8
:10347000350748F04E0F5F1F50931805409317050E
:103480008193919302C0E0E0F0E0CF01DF91CF9112
:1034900008950F931F93CF93DF93009709F48CC087
:1034A000FC013297138212820091190510911A05BE
:1034B0000115110581F420813181820F931F209124
:1034C0001705309118052817390779F5F093180575
:1034D000E093170571C0D80140E050E0AE17BF0778
:1034E00050F412962D913C911397AD0121153105A1
:1034F00009F1D901F3CF9D01DA0133832283608181
:103500007181860F971F8217930769F4EC01288158
:103510003981260F371F2E5F3F4F318320838A81E9
:103520009B8193838283452B29F4F0931A05E093C2
:10353000190542C01396FC93EE931297ED01499141
:1035400059919E01240F351FE217F30771F4808112
:103550009181840F951F029611969C938E93828180
:10356000938113969C938E931297E0E0F0E0D8013C
:1035700012968D919C911397009719F0F8018C0188
:10358000F6CF8D919C9198012E5F3F4F820F931F34
:1035900020911705309118052817390769F43097DD
:1035A00029F410921A051092190502C01382128292
:1035B0001093180500931705DF91CF911F910F917C
:1035C00008956F927F928F929F92AF92BF92CF9207
:1035D000DF92EF92FF920F931F93CF93DF93EC0153
:1035E000009781F4CB01DF91CF911F910F91FF9054
:1035F000EF90DF90CF90BF90AF909F908F907F9093
:103600006F90B2CEFC01E60FF71F9C0122503109EA
:10361000E217F30708F4A8C0D9010D911C91119786
:1036200006171707A8F00530110508F49BC0C8015C
:1036300004978617970708F495C002501109061BD6
:10364000170B019311936D937C93CF0122DF8AC0F6
:103650005B01A01AB10A4C01800E911EA0911905C0
:10366000B0911A0540E050E0E12CF12C109709F4DC
:103670004AC0A815B905D1F56D907C9011976301EA
:1036800082E0C80ED11CCA14DB0480F1A3014A19E0
:103690005B096A0182E0C80ED11C1296BC90129799
:1036A0001396AC91B5E0CB16D10440F0B282A3835F
:1036B00051834083D9016D937C930AC00E5F1F4FE5
:1036C000C301800F911FF90191838083EB2DFA2FA5
:1036D000E114F10431F0D7011396FC93EE931297A5
:1036E00041C0F0931A05E09319053CC08D919C915F
:1036F00011974817590708F4AC017D0112960D90F7
:10370000BC91A02DB3CF8091170590911805881515
:103710009905E1F446175707C8F48091010290918A
:103720000202009741F48DB79EB740910502509177
:103730000602841B950BE817F907B0F4F0931805FF
:10374000E0931705F901718360830CC0CB010CDE97
:103750007C01009749F0A801BE011BD0CE0199DE83
:10376000C70104C0CE0102C080E090E0DF91CF919C
:103770001F910F91FF90EF90DF90CF90BF90AF908F
:103780009F908F907F906F90089581E090E0F894E3
:10379000E8C2FB01DC0102C001900D924150504093
:1037A000D8F70895FB01DC0101900D920020E1F7AC
:1037B0000895FB01DC014150504048F001900D920A
:1037C0000020C9F701C01D9241505040E0F7089514
:1037D0000F931F93CF93DF93CDB7DEB72E970FB61E
:1037E000F894DEBF0FBECDBF0E891F8986E08C83A3
:1037F0001A8309838FEF9FE79E838D83AE01465E18
:103800005F4F688D798DCE01019611D02F8138855B
:10381000F801E20FF31F10822E960FB6F894DEBF68
:103820000FBECDBFDF91CF911F910F9108952F92C1
:103830003F924F925F926F927F928F929F92AF9240
:10384000BF92CF92DF92EF92FF920F931F93CF938D
:10385000DF93CDB7DEB72C970FB6F894DEBF0FBE5F
:10386000CDBF7C016B018A01FC0117821682838126
:1038700081FFB0C1CE0101964C01F7019381F601A1
:1038800093FD859193FF81916F01882309F49EC177
:10389000853239F493FD859193FF81916F018532D3
:1038A00021F4B70190E0C7D1E8CF512C312C20E0B2
:1038B0002032A0F48B3269F030F4803259F0833238
:1038C00069F420612CC08D3239F0803339F42160E5
:1038D00026C02260246023C0286021C027FD27C0A5
:1038E00030ED380F3A3078F426FF06C0FAE05F9EDC
:1038F000300D1124532E13C08AE0389E300D112450
:10390000332E20620CC08E3221F426FD5FC120646C
:1039100006C08C3611F4206802C0883641F4F601E6
:1039200093FD859193FF81916F018111C1CF982FF4
:103930009F7D9554933028F40C5F1F4FFFE3F9836C
:103940000DC0833631F0833771F0833509F057C0ED
:1039500021C0F801808189830E5F1F4F4424439466
:10396000512C540114C03801F2E06F0E711CF801A3
:10397000A080B18026FF03C0652D70E002C06FEF0C
:103980007FEFC5012C874CD12C0183012C852F772B
:10399000222E16C03801F2E06F0E711CF801A080D3
:1039A000B18026FF03C0652D70E002C06FEF7FEF8E
:1039B000C5012C872AD12C012C852068222E830159
:1039C00023FC19C0832D90E048165906A0F4B701D6
:1039D00080E290E030D13A94F5CFF50127FC859153
:1039E00027FE81915F01B70190E025D131103A9413
:1039F000F1E04F1A51084114510479F7DEC08436C2
:103A000011F0893631F5F80127FF07C06081718117
:103A1000828193810C5F1F4F08C060817181072EE6
:103A2000000C880B990B0E5F1F4F2F76722E97FF9D
:103A300009C090958095709561957F4F8F4F9F4FEE
:103A40002068722E2AE030E0A4012DD1A82EA818FB
:103A500043C0853729F42F7EB22E2AE030E025C0FE
:103A6000F22FF97FBF2E8F36C1F018F4883579F028
:103A7000ADC0803719F0883721F0A8C02F2F206102
:103A8000B22EB4FE0DC08B2D8460B82E09C024FF69
:103A90000AC09F2F9660B92E06C028E030E005C00E
:103AA00020E130E002C020E132E0F801B7FE07C0BB
:103AB00060817181828193810C5F1F4F06C060819C
:103AC000718180E090E00E5F1F4FA401ECD0A82E22
:103AD000A818FB2DFF777F2E76FE0BC0372D3E7F7B
:103AE000A51450F474FE0AC072FC08C0372D3E7E47
:103AF00005C0BA2C372D03C0BA2C01C0B52C34FF39
:103B00000DC0FE01EA0DF11D8081803311F4397E74
:103B100009C032FF06C0B394B39404C0832F8678E3
:103B200009F0B39433FD12C030FF06C05A2CB31411
:103B300018F4530C5B18B32CB31460F4B70180E293
:103B400090E03C8778D0B3943C85F6CFB31410F462
:103B50003B1801C0312C34FF11C0B70180E390E065
:103B60003C8769D03C8532FF16C031FD03C088E731
:103B700090E002C088E590E0B7010CC0832F867802
:103B800051F031FF02C08BE201C080E237FD8DE2CF
:103B9000B70190E050D0A51430F4B70180E390E075
:103BA0004AD05A94F8CFAA94F401EA0DF11D80810D
:103BB000B70190E040D0A110F6CF332009F45DCEDC
:103BC000B70180E290E037D03A94F7CFF7018681D1
:103BD000978102C08FEF9FEF2C960FB6F894DEBF4F
:103BE0000FBECDBFDF91CF911F910F91FF90EF904E
:103BF000DF90CF90BF90AF909F908F907F906F900D
:103C00005F904F903F902F900895FC010590615078
:103C100070400110D8F7809590958E0F9F1F0895E2
:103C2000FC016150704001900110D8F7809590958B
:103C30008E0F9F1F08950F931F93CF93DF93FB0168
:103C4000238121FD03C08FEF9FEF28C022FF16C004
:103C500046815781248135814217530744F4A0815E
:103C6000B1819D012F5F3F4F318320838C9326814B
:103C700037812F5F3F4F3783268310C0EB01092F19
:103C8000182F0084F185E02D1995892BE1F68E819E
:103C90009F8101969F838E83812F902FDF91CF91FB
:103CA0001F910F910895FA01AA27283051F1203170
:103CB00081F1E8946F936E7F6E5F7F4F8F4F9F4FC0
:103CC000AF4FB1E03ED0B4E03CD0670F781F891F02
:103CD0009A1FA11D680F791F8A1F911DA11D6A0FD0
:103CE000711D811D911DA11D20D009F468943F9183
:103CF0002AE0269F11243019305D3193DEF6CF0182
:103D00000895462F4770405D4193B3E00FD0C9F747
:103D1000F6CF462F4F70405D4A3318F0495D31FDB4
:103D20004052419302D0A9F7EACFB4E0A695979507
:103D3000879577956795BA95C9F7009761057105DD
:103D400008959B01AC010A2E069457954795379527
:103D50002795BA95C9F7620F731F841F951FA01D81
:103D6000089511E0C0E2D1E000E005C0802FFE011F
:103D7000BDDA2196011DC132D10780E00807B1F7F5
:043D8000F894FFCFE5
:103D8400FF00001B05800000000000BF08F50A0FBB
:103D94000C0000000031038003BF0300000000504A
:103DA4000EF30ABE08000000004008540104080095
:103DB40000000000000000D10F00130013001300E6
:103DC400133132334134353642373839432A3023BC
:103DD400442900270017001D001B0021001F0019A3
:103DE4000000000000B80EC411510EFE0E820E60D9
:103DF4000E740E00000000080CC411BB08BA0800C1
:103E0400000000CA108B105A1000000000D30800F4
:103E140000000053010D0A002D20005E002A20003E
:103E240049005600412D476F726120442D446F6C48
:103E3400202A2D456E7465720050726F6772616D31
:103E4400005A616B6F6E637A6F6E6F002A2062791D
:103E54002077726F63696320646F206D656E7500EF
:103E640050727A65747761727A616E696520772021
:103E7400746F6B750050696F726F206E72202564C9
:103E8400207A2025640043796B6C206E72202564AF
:103E9400207A20256400696E74726F005348415281
:103EA40050204D4554414C00484F502D313500535E
:103EB400594C574553544552204D494C4F53005784
:103EC4004349534E494A2050525A594349534B008F
:103ED40050696F72610043796B6C65006D61696E46
:103EE4004D656E7500526F7A706F637A6E696A0001
:020000023000CC
:10E000000D9489F10D94B2F10D94B2F10D94B2F129
:10E010000D94B2F10D94B2F10D94B2F10D94B2F1F0
:10E020000D94B2F10D94B2F10D94B2F10D94B2F1E0
:10E030000D94B2F10D94B2F10D94B2F10D94B2F1D0
:10E040000D94B2F10D94B2F10D94B2F10D94B2F1C0
:10E050000D94B2F10D94B2F10D94B2F10D94B2F1B0
:10E060000D94B2F10D94B2F10D94B2F10D94B2F1A0
:10E070000D94B2F10D94B2F10D94B2F10D94B2F190
:10E080000D94B2F10D94B2F10D94B2F10D94B2F180
:10E090000D94B2F10D94B2F10D94B2F10D94B2F170
:10E0A0000D94B2F10D94B2F10D94B2F10D94B2F160
:10E0B0000D94B2F10D94B2F10D94B2F10D94B2F150
:10E0C0000D94B2F10D94B2F10D94B2F10D94B2F140
:10E0D0000D94B2F10D94B2F10D94B2F10D94B2F130
:10E0E0000D94B2F141546D656761323536300041AF
:10E0F000726475696E6F206578706C6F72657220DE
:10E1000073746B3530305632206279204D4C530099
:10E11000426F6F746C6F616465723E004875683F52
:10E1200000436F6D70696C6564206F6E203D200048
:10E130004350552054797065202020203D20005FF9
:10E140005F4156525F415243485F5F3D2000415658
:10E1500052204C696243205665723D20004743437C
:10E160002056657273696F6E203D20004350552024
:10E1700049442020202020203D20004C6F7720663D
:10E18000757365202020203D20004869676820665F
:10E190007573652020203D200045787420667573D6
:10E1A00065202020203D20004C6F636B2066757336
:10E1B000652020203D20004D617220203720323024
:10E1C000313300312E362E3800342E332E350056A2
:10E1D00023202020414444522020206F7020636F70
:10E1E00064652020202020696E73747275637469E1
:10E1F0006F6E2061646472202020496E74657272B3
:10E20000757074006E6F20766563746F7200726A49
:10E210006D702020006A6D70200057686174207056
:10E220006F72743A00506F7274206E6F7420737541
:10E2300070706F72746564004D7573742062652030
:10E2400061206C6574746572002000577269747483
:10E25000696E672045450052656164696E672045B7
:10E26000450045452065727220636E743D00504F35
:10E27000525400303D5A65726F2061646472003FF1
:10E280003D43505520737461747300403D454550C3
:10E29000524F4D207465737400423D426C696E6B41
:10E2A000204C454400453D44756D70204545505215
:10E2B0004F4D00463D44756D7020464C415348001B
:10E2C000483D48656C70004C3D4C69737420492F83
:10E2D0004F20506F72747300513D51756974005234
:10E2E0003D44756D702052414D00563D73686F7707
:10E2F00020696E7465727275707420566563746FF0
:10E30000727300593D506F727420626C696E6B00BD
:10E310002A0011241FBECFEFD1E2DEBFCDBF01E046
:10E320000CBF12E0A0E0B2E0EEE1FDEF03E00BBFB6
:10E3300002C007900D92A030B107D9F712E0A0E01B
:10E34000B2E001C01D92AE30B107E1F70F9460F367
:10E350000D948DFE01E20EBF0FEF0DBF11241FBE05
:10E360000D9460F30D9400F020E030E040ED57E0B4
:10E3700005C0FA013197F1F72F5F3F4F2817390792
:10E38000C0F308959C01260F311DC901A0E0B0E043
:10E390002F5F3F4FABBFFC018791882361F08093D3
:10E3A000C6008091C00086FFFCCF8091C0008064D1
:10E3B0008093C000EACF08958DE08093C6008091DD
:10E3C000C00086FFFCCF8091C00080648093C000B5
:10E3D0008AE08093C6008091C00086FFFCCF8091C8
:10E3E000C00080648093C00008950F94C2F10F9420
:10E3F000DCF10895FC019081992359F09093C600B7
:10E400008091C00086FFFCCF8091C0008064809323
:10E41000C0003196992379F70895282F982F929567
:10E420009F70892F805D8A3308F0895F8093C600D2
:10E430008091C00086FFFCCF8091C00080648093F3
:10E44000C000822F8F70982F905D9A3308F0995FEB
:10E450009093C6008091C00086FFFCCF8091C000E1
:10E4600080648093C00008959C01FB01853691056E
:10E470001CF46330710594F0C90164E670E00F94F8
:10E480002EFE605D7F4F6093C6008091C00086FFC6
:10E49000FCCF8091C00080648093C0002B30310598
:10E4A00014F43297B4F0C90164E670E00F942EFEC4
:10E4B0006AE070E00F942EFE605D7F4F6093C600AF
:10E4C0008091C00086FFFCCF8091C0008064809363
:10E4D000C000C9016AE070E00F942EFEC0968093E0
:10E4E000C6008091C00086FFFCCF8091C000806490
:10E4F0008093C00008951F93182F8EE692EE60E07F
:10E500000F94C2F11093C6008091C00086FFFCCF2B
:10E510008091C00080648093C0000F94DCF11F9153
:10E5200008952F923F924F925F926F927F928F92B7
:10E530009F92AF92BF92CF92DF92EF92FF920F9392
:10E540001F93DF93CF93CDB7DEB762970FB6F894E2
:10E55000DEBF0FBECDBF382E622ECA01DB015C01CB
:10E560006D01772420E2222E2E010894411C511CBB
:10E570008BC081E0A81680E0B80681E0C80680E084
:10E58000D80628F0C601AA27BB270F940DF2BB2797
:10E59000AD2D9C2D8B2D0F940DF28A2D0F940DF225
:10E5A0002092C6008091C00086FFFCCF8091C00001
:10E5B00080648093C0009DE29093C6008091C0006B
:10E5C00086FFFCCF8091C00080648093C0002092C1
:10E5D000C6008091C00086FFFCCF8091C00080649F
:10E5E0008093C00019828601750188249924A1E0D6
:10E5F0003A1651F03A1620F0B2E03B1661F409C029
:10E600000BBFF701779007C0C7010F9477FE782EF4
:10E6100002C0F7017080872D0F940DF22092C60082
:10E620008091C00086FFFCCF8091C0008064809301
:10E63000C000872D8052F401EF70F0708F3520F408
:10E64000E40DF51D708204C0E40DF51D8EE280839B
:10E650000894E11CF11C011D111D0894811C911CE2
:10E6600090E18916910409F0C2CF80E190E0A0E02A
:10E67000B0E0A80EB91ECA1EDB1E198AC2010F9493
:10E68000FAF10F94DCF16A94662009F072CF629679
:10E690000FB6F894DEBF0FBECDBFCF91DF911F91B3
:10E6A0000F91FF90EF90DF90CF90BF90AF909F9031
:10E6B0008F907F906F905F904F903F902F90089534
:10E6C0002F923F924F925F926F927F928F929F9282
:10E6D000AF92BF92CF92DF92EF92FF920F931F9370
:10E6E000DF93CF93CDB7DEB7CD53D1400FB6F894BB
:10E6F000DEBF0FBECDBF01E20EBF0FEF0DBF94B75F
:10E70000F894A89514BE80916000886180936000A1
:10E7100010926000789493FF05C0E0910002F091A0
:10E7200001021995279A2F9A8091C00082608093E8
:10E73000C00080E18093C40088E18093C1000000A4
:10E74000EE24FF24870144E0A42EB12CCC24DD2448
:10E7500024C0C5010197F1F70894E11CF11C011DCB
:10E76000111D21E2E2162EE4F20620E0020720E06D
:10E77000120718F031E0C32ED12CC801B70127ECE5
:10E780003BE140E050E00F9441FE611571058105C9
:10E79000910519F485B1805885B98091C00087FD35
:10E7A00003C0C114D104A9F2A6014F5F5F4FC25E3E
:10E7B000DE4F59834883CE51D140C25EDE4F8881FF
:10E7C0009981CE51D140019711F00D9410FEC05D9A
:10E7D000DE4F19821882C053D14060E0C15DDE4F28
:10E7E0001882CF52D14088249924C35DDE4F19820C
:10E7F0001882CD52D140C05EDE4F188219821A8233
:10E800001B82C052D140CE5CDE4F188219821A8220
:10E810001B82C253D140EE24FF2487010BBFF701B6
:10E8200007911691C45CDE4F19830883CC53D14005
:10E830000D940BFEC25EDE4F28813981CE51D1404E
:10E840002130310509F52091C600C25EDE4F1982E4
:10E850001882CE51D14022C02F5F3F4F4F4F5F4FA4
:10E86000213082E138078AE7480780E0580780F0C6
:10E87000C45CDE4FE881F981CC53D140EF5FFF4F9C
:10E8800019F0EE27FF27099420E030E040E050E047
:10E890008091C00087FFE0CF2091C600C35DDE4FAE
:10E8A00048815981CD52D1404F5F5F4FC35DDE4FEC
:10E8B00059834883CD52D140213209F063C64A3092
:10E8C000510508F05FC60894811C911C53E0851621
:10E8D000910409F059C600E010E018C081E280936D
:10E8E000C6008091C00086FFFCCF8091C00080648C
:10E8F0008093C0002F5F3F4F2931310579F70F9486
:10E90000DCF10F5F1F4F0530110519F020E030E0FA
:10E91000E5CF10920A0210920B0210920C02109294
:10E920000D02109206021092070210920802109235
:10E930000902109202021092030210920402109235
:10E9400005028FEE90EE60E00F94F5F180E191EE1C
:10E9500060E00F94C2F18091C00087FFFCCF9091DE
:10E96000C600903608F09F759032B8F09093C600BC
:10E970008091C00086FFFCCF8091C00080648093AE
:10E98000C000A0E2A093C6008091C00086FFFCCF2B
:10E990008091C00080648093C000983409F4D7C18E
:10E9A0009934B8F4923409F459C1933458F490333B
:10E9B00019F1903308F4E3C59F33A1F1903409F0C5
:10E9C000DEC5BDC0953409F470C1963409F0D7C5D1
:10E9D00098C1923509F42BC2933538F49C3409F46C
:10E9E000F5C1913509F0CBC518C2963509F445C279
:10E9F000993509F0C4C567C483E792EE62E00F94CD
:10EA0000F5F110920602109207021092080210927D
:10EA1000090210920A0210920B0210920C0210923C
:10EA20000D0213C18FE792EE62E00F94F5F18FEEC5
:10EA300090EE60E00F94F5F181E291EE60E00F94CA
:10EA4000C2F187EB91EE60E00F94F5F180E391EE77
:10EA500060E00F94C2F184EE90EE60E00F94F5F167
:10EA60008FE391EE60E00F94C2F186E090E061E008
:10EA700070E00F9434F20F94DCF18DE591EE60E0DC
:10EA80000F94C2F189EC91EE60E00F94F5F18EE401
:10EA900091EE60E00F94C2F183EC91EE60E00F9490
:10EAA000F5F18CE691EE60E00F94C2F18EE10F94E7
:10EAB0000DF288E90F940DF281E00F940DF20F949E
:10EAC000DCF18BE791EE60E00F94C2F119E0E0E039
:10EAD000F0E010935700E4918E2F0F940DF20F94F5
:10EAE000DCF18AE891EE60E00F94C2F1E3E0F0E03F
:10EAF00010935700E4918E2F0F940DF20F94DCF1D8
:10EB000089E991EE60E00F94C2F1E2E0F0E0109349
:10EB10005700E4918E2F0F940DF20F94DCF188EAE8
:10EB200091EE60E00F94C2F1E1E0F0E01093570045
:10EB30001491812F0F940DF20F94DCF107CF8BE825
:10EB400092EE62E00F94F5F18BE492EE60E00F94A8
:10EB5000F5F10F94DCF100E010E019C0C8016F2D51
:10EB60000F947FFEFF2031F489E492EE60E00F9471
:10EB7000C2F10BC0F092C6008091C00086FFFCCFAE
:10EB80008091C00080648093C0000F5F1F4FC80158
:10EB900081519F41A0E0B0E0ABBFFC01F790BAE229
:10EBA000FB1621F0E2E000301E07C1F60F94DCF105
:10EBB0000F94DCF187E592EE60E00F94F5F10F948D
:10EBC000DCF1CC24DD2400E010E01EC0C8010F946D
:10EBD00077FEF82E882331F489E492EE60E00F94FA
:10EBE000C2F10BC08093C6008091C00086FFFCCFAD
:10EBF0008091C00080648093C000FE1419F00894D6
:10EC0000C11CD11C0F5F1F4FC80181519F41A0E063
:10EC1000B0E0ABBFFC01E790FAE2EF1621F022E092
:10EC20000030120799F60F94DCF10F94DCF182E6C4
:10EC300092EE60E00F94C2F1C60161E070E00F94C3
:10EC400034F20F94DCF10F94DCF110920202109276
:10EC50000302109204021092050278CE89E992EE26
:10EC600062E00F94F5F1279A2F9A16C02F9880E052
:10EC700090E0E0EDF7E03197F1F7019684369105E9
:10EC8000C1F72F9A80E090E0E0EDF7E03197F1F7DF
:10EC9000019684369105C1F78091C00087FFE6CFC9
:10ECA0008091C00087FFFCCF64C485EA92EE62E0E9
:10ECB0000F94F5F140910202509103026091040219
:10ECC0007091050281E020E10F9491F2809102029F
:10ECD00090910302A0910402B091050280509F4FD1
:10ECE000AF4FBF4F8093020290930302A0930402A0
:10ECF000B093050280509041A040B04008F426CE69
:10ED0000A4CF83EB92EE62E00F94F5F140910602FE
:10ED100050910702609108027091090280E020E1A1
:10ED20000F9491F28091060290910702A09108023F
:10ED3000B091090280509F4FAF4FBF4F80930602A2
:10ED400090930702A0930802B0930902FFCD80ECD4
:10ED500092EE62E00F94F5F183E792EE60E00F949B
:10ED6000F5F18FE792EE60E00F94F5F18BE892EE0B
:10ED700060E00F94F5F189E992EE60E00F94F5F10F
:10ED800085EA92EE60E00F94F5F183EB92EE60E09D
:10ED90000F94F5F180EC92EE60E00F94F5F187ECC2
:10EDA00092EE60E00F94F5F188ED92EE60E00F9442
:10EDB000F5F18FED92EE60E00F94F5F18AEE92EEB0
:10EDC00060E00F94F5F183E093EEBDCD87EC92EE19
:10EDD00062E00F94F5F181E40F947BF282E40F94EA
:10EDE0007BF283E40F947BF284E40F947BF285E45E
:10EDF0000F947BF286E40F947BF287E40F947BF20E
:10EE000088E40F947BF28AE40F947BF28BE40F94F6
:10EE10007BF28CE40F947BF299CD88ED92EE62E068
:10EE20000F94F5F1772473948824992409C48FED05
:10EE300092EE62E00F94F5F140910A0250910B02BC
:10EE400060910C0270910D0282E020E10F9491F22A
:10EE500080910A0290910B02A0910C02B0910D02D8
:10EE600080509F4FAF4FBF4F80930A0290930B0289
:10EE7000A0930C02B0930D0269CD8AEE92EE62E08F
:10EE80000F94F5F184EE90EE60E00F94F5F18FECC5
:10EE900091EE60E00F94F5F1662477244301CC5D98
:10EEA000DE4F19821882C452D140D401C301B695F5
:10EEB000A79597958795CA5DDE4F88839983AA8326
:10EEC000BB83C652D140CC5DDE4FA881B981C4520C
:10EED000D1401196CC5DDE4FB983A883C452D14096
:10EEE000CD0162E070E00F9434F2B0E2B093C6005E
:10EEF0008091C00086FFFCCF8091C0008064809329
:10EF0000C000EDE2E093C6008091C00086FFFCCF18
:10EF10008091C00080648093C000F0E2F093C6004E
:10EF20008091C00086FFFCCF8091C00080648093F8
:10EF3000C000CA5DDE4FE880F9800A811B81C6529D
:10EF4000D140BB27A12F902F8F2D0F940DF2CA5DBA
:10EF5000DE4F8881C652D1400F940DF2B0E2FB2EF5
:10EF6000F092C6008091C00086FFFCCF8091C00067
:10EF700080648093C0000DE30093C6008091C000C0
:10EF800086FFFCCF8091C00080648093C00010E2B7
:10EF90001093C6008091C00086FFFCCF8091C00016
:10EFA00080648093C0008BBEF3012791C65DDE4F65
:10EFB0002883CA52D140A22EBB24CC24DD2408943D
:10EFC000611C711C811C911C8BBEF3018791282E42
:10EFD0003324442455240894611C711C811C911C09
:10EFE0008BBEF3013791C55DDE4F3883CB52D140E4
:10EFF0000894611C711C811C911C8BBEF30147910C
:10F00000C45DDE4F4883CC52D140ADEFEA2EAFEF66
:10F01000FA2EAFEF0A2FAFEF1A2F6E0C7F1C801E57
:10F02000911E142D032DF22CEE24EA0CFB1C0C1D5A
:10F030001D1D0F940DF220E22093C6008091C000A8
:10F0400086FFFCCF8091C00080648093C000C65DC5
:10F05000DE4F8881CA52D1400F940DF230E23093D6
:10F06000C6008091C00086FFFCCF8091C000806404
:10F070008093C000C45DDE4F8881CC52D1400F9494
:10F080000DF240E24093C6008091C00086FFFCCFA5
:10F090008091C00080648093C000C55DDE4F888190
:10F0A000CB52D1400F940DF250E25093C6008091A4
:10F0B000C00086FFFCCF8091C00080648093C000B8
:10F0C0008FEFE8168FEFF80680E0080780E018075A
:10F0D00031F484E092EE60E00F94C2F1DFC0D80119
:10F0E000C7018070907CA070B0708050904CA040A0
:10F0F000B040D1F52FEF3FE340E050E0E222F322B1
:10F1000004231523CA5DDE4FA880B980CA80DB8046
:10F11000C652D140AE0CBF1CC01ED11EAA0CBB1CD7
:10F12000CC1CDD1C8EE092EE60E00F94C2F1BB2798
:10F13000A12F902F8F2D0F940DF28E2D0F940DF285
:10F1400030E23093C6008091C00086FFFCCF8091F2
:10F15000C00080648093C0004EE34093C60080915D
:10F16000C00086FFFCCF87C08EE09EEFA0E0B0E03D
:10F17000E822F9220A231B239CE0E91694E9F90608
:10F1800090E0090790E0190709F088C0C45DDE4FE0
:10F19000A881CC52D140EA2EFF2400E010E0102FCD
:10F1A0000F2DFE2CEE24C55DDE4FB881CB52D14031
:10F1B000EB0EF11C011D111DD601C501817090706F
:10F1C000A070B070DC0199278827E80EF91E0A1F8D
:10F1D0001B1F20EF30E040E050E0A222B322C42207
:10F1E000D52241E1AA0CBB1CCC1CDD1C4A95D1F7F1
:10F1F000EA0CFB1C0C1D1D1D81E090E0A0E0B0E0BE
:10F20000282239224A225B2235E1220C331C441C7D
:10F21000551C3A95D1F7E20CF31C041D151D57013E
:10F220006801AA0CBB1CCC1CDD1C85E192EE60E0E1
:10F230000F94C2F1C801AA27BB270F940DF2BB2778
:10F24000A12F902F8F2D0F940DF28E2D0F940DF274
:10F2500090E29093C6008091C00086FFFCCF809121
:10F26000C00080648093C000AEE3A093C60080918C
:10F27000C00086FFFCCF8091C00080648093C000F6
:10F28000C601AA27BB270F940DF2BB27AD2D9C2DDD
:10F290008B2D0F940DF28A2D0F940DF20F94DCF14B
:10F2A000CC5DDE4FE881F981C452D140F99709F471
:10F2B0004DCBF4E0EF2EF12C012D112D6E0C7F1CA7
:10F2C000801E911EF2CD83E093EE62E00F94F5F183
:10F2D0008AE192EE60E00F94C2F18091C00087FF56
:10F2E000FCCF1091C6001F751093C6008091C0001E
:10F2F00086FFFCCF8091C00080648093C0000F9493
:10F30000DCF1812F81548A3108F036C1163409F4BA
:10F3100095C0173490F4133409F44EC0143430F40B
:10F320001134F1F0123409F01DC130C0143409F465
:10F3300059C0153409F016C16BC01A3409F4C4C0A1
:10F340001B3438F4173409F48FC0183409F00AC19B
:10F35000A1C01B3409F4D2C01C3409F003C1E8C0B9
:10F360008FEF81B90DC082B1809582B980E090E0C5
:10F37000E0EDF7E03197F1F70196883C9105C1F790
:10F380008091C00087FFEFCF12B8EFC08FEF84B934
:10F390000DC085B1809585B980E090E0E0EDF7E0A3
:10F3A0003197F1F70196883C9105C1F78091C00033
:10F3B00087FFEFCF15B8D9C08FEF87B90DC088B1DF
:10F3C000809588B980E090E0E0EDF7E03197F1F7C3
:10F3D0000196883C9105C1F78091C00087FFEFCF6F
:10F3E00018B8C3C08FEF8AB90DC08BB180958BB9A7
:10F3F00080E090E0E0EDF7E03197F1F70196883C8E
:10F400009105C1F78091C00087FFEFCF1BB8ADC059
:10F410008FEF8DB90DC08EB180958EB980E090E0F0
:10F42000E0EDF7E03197F1F70196883C9105C1F7DF
:10F430008091C00087FFEFCF1EB897C08FEF80BBD1
:10F440000DC081B3809581BB80E090E0E0EDF7E0F6
:10F450003197F1F70196883C9105C1F78091C00082
:10F4600087FFEFCF11BA81C08FEF83BB0DC084B38C
:10F47000809584BB80E090E0E0EDF7E03197F1F714
:10F480000196883C9105C1F78091C00087FFEFCFBE
:10F4900014BA6BC08FEF809301010FC080910201FD
:10F4A00080958093020180E090E0E0EDF7E03197F5
:10F4B000F1F70196883C9105C1F78091C00087FF64
:10F4C000EDCF1092020151C08FEF809304010FC065
:10F4D0008091050180958093050180E090E0E0ED4A
:10F4E000F7E03197F1F70196883C9105C1F78091DB
:10F4F000C00087FFEDCF1092050137C08FEF8093DA
:10F5000007010FC08091080180958093080180E079
:10F5100090E0E0EDF7E03197F1F70196883C910536
:10F52000C1F78091C00087FFEDCF109208011DC088
:10F530008FEF80930A010FC080910B01809580931B
:10F540000B0180E090E0E0EDF7E03197F1F70196F4
:10F55000883C9105C1F78091C00087FFEDCF1092E4
:10F560000B0103C085E292EEEEC98091C00087FFD7
:10F57000FCCF8091C600EAC988E392EEE4C98CE131
:10F5800091EEE1C988249924933011F1943028F444
:10F59000913089F09230B8F408C0953061F195301F
:10F5A000F0F0963009F048C043C02B3109F042C951
:10F5B00091E06BE13FC96227C15DDE4F2883CF52E6
:10F5C000D14092E037C9B22FA0E0622793E032C960
:10F5D000822F90E0A82BB92B622794E02BC92E3004
:10F5E00009F039C3622795E0C05DDE4F19821882A9
:10F5F000C053D1401FC9E1E0F0E0EC0FFD1FC05D3A
:10F60000DE4F08811981C053D140E00FF11F2083E4
:10F610000F5F1F4FC05DDE4F19830883C053D14079
:10F6200062270A171B0709F005C9D80196E002C92D
:10F63000261709F010C303C0973009F0FBC87724E0
:10F640009981933109F412C19431C8F4963009F4C8
:10F65000D8C0973050F4923009F406C1933009F4C1
:10F660006DC0913009F059C253C0913109F477C08F
:10F67000923108F0BBC0903109F04FC2F5C098310B
:10F6800009F487C0993150F4953109F4EFC09531F0
:10F6900008F4C6C1963109F040C2C2C19A3109F4DA
:10F6A0006CC09A3108F491C09B3109F45BC09D3164
:10F6B00009F033C29D81903359F48F81882311F46E
:10F6C0009EE11CC0813011F091E018C098E916C08D
:10F6D000892F807591F0903539F4E0E0F0E089E011
:10F6E0008093570094910AC0983539F4E3E0F0E034
:10F6F00089E080935700949101C090E01A821B82A8
:10F700008D818C831D829E831F8227E030E009C299
:10F710001A8288E08B8381E48C8386E58D8382E581
:10F720008E8389E48F8383E5888780E589878FE5E9
:10F730008A8782E38B872BE030E0F3C18A818139AD
:10F7400041F0823941F0803911F48FE005C080E04A
:10F7500003C082E001C08AE01A828B8344C0772410
:10F76000739482C08D81882311F48EE12CC0813086
:10F7700011F081E028C088E926C01A82E1E0F0E0BB
:10F7800089E08093570084918B831C8224E030E0D1
:10F79000C8C18B81803589F48C81883039F4E2E0EE
:10F7A000F0E089E08093570084910DC0E0E0F0E044
:10F7B00089E080935700849106C0E3E0F0E089E09F
:10F7C0008093570084911A82DFCF8D81836C99E0FA
:10F7D000E1E0F0E0082E90935700E89507B600FCB2
:10F7E000FDCF1A821B8223E030E09BC180EC8A832C
:10F7F000CE5CDE4F188219821A821B82C253D1401E
:10F800008EC18A8190E0A0E0B0E0582F44273327D2
:10F8100022278B8190E0A0E0B0E0DC0199278827C7
:10F82000282B392B4A2B5B2B8D8190E0A0E0B0E098
:10F83000282B392B4A2B5B2B8C8190E0A0E0B0E089
:10F84000BA2FA92F982F8827282B392B4A2B5B2BCF
:10F85000220F331F441F551FC05EDE4F288339839C
:10F860004A835B83C052D1401A8259C13A81C95C34
:10F87000DE4F3883C753D140CA5CDE4F1882C6536F
:10F88000D1408B81C82EDD24CA5CDE4F488159816E
:10F89000C653D140C42AD52A933109F082C0CE5C28
:10F8A000DE4F88819981AA81BB81C253D1408050AB
:10F8B000904CA340B04030F583E0CE5CDE4FE88052
:10F8C000F9800A811B81C253D140F70100935B008C
:10F8D00080935700E89507B600FCFDCFCE5CDE4F65
:10F8E000088119812A813B81C253D14000501F4FAA
:10F8F0002F4F3F4FCE5CDE4F088319832A833B8313
:10F90000C253D140C05EDE4F488159816A817B81FC
:10F91000C052D140DE011B9631E08C9111962C91A2
:10F9200011971296C75CDE4F2883C953D140C85C3B
:10F93000DE4F1882C853D14090E0C85CDE4FE881AA
:10F94000F981C853D1408E2B9F2B0C01FA01609393
:10F950005B0030935700E89511244E5F5F4F6F4F67
:10F960007F4F0EEFE02E0FEFF02ECE0CDF1CC114F8
:10F97000D10499F685E0C05EDE4F088119812A81A5
:10F980003B81C052D140F80120935B008093570027
:10F99000E89507B600FCFDCF81E180935700E8951C
:10F9A00035C0C05EDE4F88819981AA81BB81C0527B
:10F9B000D140B695A795979587957C018601ABE0D8
:10F9C000AA2EB12CAC0EBD1E0BC0D5016D915D01F0
:10F9D000C7010F947FFE0894E11CF11C01501040F8
:10F9E0000115110591F7A60160E070E0440F551F65
:10F9F000661F771FC05EDE4FE880F9800A811B8199
:10FA0000C052D1404E0D5F1D601F711F1A82C05E33
:10FA1000DE4F488359836A837B83C052D1407FC0C5
:10FA2000FA80C55CDE4FF882CB53D140C65CDE4F16
:10FA30001882CA53D1408B81C82EDD24C65CDE4FAC
:10FA400008811981CA53D140C02AD12A1A828981DA
:10FA5000BE016D5F7F4F843121F59601C05EDE4FA0
:10FA6000E880F9800A811B81C052D1400BBFF701A9
:10FA700087919691DB018C9311969C936E5F7F4FDB
:10FA8000D801C7010296A11DB11DC05EDE4F88835B
:10FA90009983AA83BB83C052D14022503040F1F6F3
:10FAA00036C0C05EDE4F288139814A815B81C052F9
:10FAB000D1400894C108D108760100E010E0089414
:10FAC000C11CD11C0894E11CF11C011D111DE20E8A
:10FAD000F31E041F151F21BDBB27A52F942F832FB5
:10FAE00082BD2F5F3F4F4F4F5F4FF89A80B5DB01CC
:10FAF0008D93BD012E153F054007510761F7C05E8C
:10FB0000DE4F288339834A835B83C052D1409601FC
:10FB10002D5F3F4FFB01108204C080EC8A8322E0FE
:10FB200030E08BE18093C6008091C00086FFFCCF5F
:10FB30008091C00080648093C000C15DDE4FF88179
:10FB4000CF52D140F093C6008091C00086FFFCCF19
:10FB50008091C00080648093C000432F3093C60022
:10FB60008091C00086FFFCCF8091C00080648093AC
:10FB7000C000922F2093C6008091C00086FFFCCF6A
:10FB80008091C00080648093C0008EE08093C600A6
:10FB90008091C00086FFFCCF8091C000806480937C
:10FBA000C00065E1C15DDE4FE880CF52D1406E25D7
:10FBB00069276427FE01319610C090819093C6009A
:10FBC0008091C00086FFFCCF31968091C000806498
:10FBD0008093C0006927215030402115310569F715
