:100000000C9474000C949E000C949E000C949E0022
:100010000C949E000C949E000C949E000C949E00E8
:100020000C949E000C949E000C949E000C949E00D8
:100030000C949E000C949E000C949E000C949E00C8
:100040000C949E000C949E000C949E000C949E00B8
:100050000C949E000C949E000C949E000C945702ED
:100060000C949E000C9421020C94F7010C949E00B9
:100070000C949E000C949E000C949E000C949E0088
:100080000C949E000C949E000C949E000C949E0078
:100090000C949E000C949E000C949E000C949E0068
:1000A0000C949E000C949E000C949E000C949E0058
:1000B0000C949E000C949E000C949E000C949E0048
:1000C0000C949E000C949E000C949E000C949E0038
:1000D0000C949E000C949E000C949E000C949E0028
:1000E0000C949E00A102240411241FBECFEFD1E284
:1000F000DEBFCDBF12E0A0E0B2E0E0E4FBE000E054
:100100000BBF02C007900D92AA34B107D9F722E0C5
:10011000AAE4B2E001C01D92AE3FB207E1F710E0E1
:10012000C3E7D0E004C02197FE010E944F04C2370C
:10013000D107C9F70E94D8020C9493050C940000D3
:10014000CF92DF92EF92FF920F931F93CF93DF93A3
:100150006C017A018B01C0E0D0E0CE15DF0589F09B
:10016000D8016D918D01D601ED91FC910190F08146
:10017000E02DC6010995892B11F47E0102C021965C
:10018000ECCFC701DF91CF911F910F91FF90EF90BE
:10019000DF90CF900895FC01538D448D252F30E0E2
:1001A000842F90E0821B930B541710F0CF96089584
:1001B00001970895FC01918D828D981761F0828DD1
:1001C000DF01A80FB11D5D968C91928D9F5F9F738B
:1001D000928F90E008958FEF9FEF0895FC01918D2D
:1001E000828D981731F0828DE80FF11D858D90E09A
:1001F00008958FEF9FEF0895FC01918D228D892F37
:1002000090E0805C9F4F821B91098F73992708951E
:1002100083E592E00E94FC0021E0892B09F420E0B4
:10022000822F0895FC01848DDF01A80FB11DA35A10
:10023000BF4F2C91848D90E001968F739927848F06
:10024000A689B7892C93A089B1898C9180648C93FD
:10025000938D848D981306C00288F389E02D8081E8
:100260008F7D80830895EF92FF920F931F93CF931A
:10027000DF93EC0181E0888F9B8D8C8D981305C0F6
:10028000E889F989808185FD24C0F62E0B8D10E068
:100290000F5F1F4F0F731127E02E8C8DE8120CC0DB
:1002A0000FB607FCFACFE889F989808185FFF5CF81
:1002B000CE010E941201F1CF8B8DFE01E80FF11DDE
:1002C000E35AFF4FF0820B8FEA89FB8980818062BD
:1002D00007C0EE89FF896083E889F989808180649D
:1002E000808381E090E0DF91CF911F910F91FF908B
:1002F000EF900895CF93DF93EC01888D8823C9F0A8
:10030000EA89FB89808185FD05C0A889B9898C911E
:1003100086FD0FC00FB607FCF5CF808185FFF2CFB9
:10032000A889B9898C9185FFEDCFCE010E94120179
:10033000E7CFDF91CF91089580E090E0892B21F005
:100340000E940801811125C080E090E0892B41F0D6
:1003500080E090E0892B21F00E94000081111CC0F8
:1003600080E090E0892B41F080E090E0892B21F043
:100370000E940000811113C080E090E0892BA1F061
:1003800080E090E0892B81F00E94000081110AC07A
:1003900008950E940000D8CF0E940000E1CF0E9483
:1003A0000000EACF0C9400000895089580E090E0EA
:1003B0000895CF93DF93EC01DB01ED91FC91019067
:1003C000F081E02DCB010995833019F482E292E0AF
:1003D00004C0843021F48DE292E09D838C83DF9110
:1003E000CF91089508950E9485050C94ED041F9205
:1003F0000F920FB60F9211240BB60F922F933F93CB
:100400004F935F936F937F938F939F93AF93BF931C
:10041000EF93FF9383E592E00E941201FF91EF9129
:10042000BF91AF919F918F917F916F915F914F910C
:100430003F912F910F900BBE0F900FBE0F901F900A
:1004400018951F920F920FB60F9211240BB60F92B0
:100450002F938F939F93EF93FF93E0916302F0911B
:1004600064028081E0916902F0916A0282FD12C00B
:10047000908180916C028F5F8F7320916D02821743
:1004800051F0E0916C02F0E0ED5AFD4F958F8093B2
:100490006C0201C08081FF91EF919F918F912F910C
:1004A0000F900BBE0F900FBE0F901F9018951F92CC
:1004B0000F920FB60F9211242F933F938F939F9318
:1004C000AF93BF9380914F0290915002A09151023F
:1004D000B091520230914E0223E0230F2D3720F4C9
:1004E0000196A11DB11D05C026E8230F0296A11D8E
:1004F000B11D20934E0280934F0290935002A0931F
:100500005102B093520280914A0290914B02A09105
:100510004C02B0914D020196A11DB11D80934A027B
:1005200090934B02A0934C02B0934D02BF91AF91B8
:100530009F918F913F912F910F900FBE0F901F9021
:100540001895E3E5F2E01382128288EE93E0A0E0D2
:10055000B0E084839583A683B78384E192E091839E
:10056000808385EC90E09587848784EC90E0978782
:10057000868780EC90E0918B808B81EC90E0938B70
:10058000828B82EC90E0958B848B86EC90E0978B4D
:10059000868B118E128E138E148EE0EFF2E0158290
:1005A00014828FEF9FEF97838683118610860895BC
:1005B000789484B5826084BD84B5816084BD85B53E
:1005C000826085BD85B5816085BD80916E0081604A
:1005D00080936E00109281008091810082608093F0
:1005E00081008091810081608093810080918000F2
:1005F0008160809380008091B10084608093B1001D
:100600008091B00081608093B00080919100826001
:1006100080939100809191008160809391008091FE
:1006200090008160809390008091A100826080930F
:10063000A1008091A10081608093A1008091A00021
:1006400081608093A00080912101826080932101CC
:10065000809121018160809321018091200181603E
:100660008093200180917A00846080937A00809149
:100670007A00826080937A0080917A008160809312
:100680007A0080917A00806880937A001092C1008D
:10069000E0916302F091640282E08083E0915F0266
:1006A000F09160021082E0916102F09162028FECA1
:1006B000808310926B02E0916702F091680286E0FD
:1006C0008083E0916502F091660280818061808381
:1006D000E0916502F0916602808188608083E091FC
:1006E0006502F0916602808180688083E0916502F6
:1006F000F091660280818F7D808386E090E00E9489
:1007000058047C018AE392E0D70113969C938E9360
:1007100012978AE092E011969C938E938FE392E079
:1007200015969C938E931497C091F402D091F50284
:100730008E010F5F1F4FC090F802D090F902C114D4
:10074000D104A9F00138BFE31B0720F4C801880FCA
:10075000991F02C08FEF9FEF0E945804AE01440F13
:10076000551F440F551FB6010E948A0510C001385D
:10077000EFE31E0720F4C801880F991F02C08FEF16
:100780009FEF0E9458049093F9028093F80210930F
:10079000F5020093F402CC0FDD1F8091F8029091D6
:1007A000F902C80FD91FF982E882E091F802F091AE
:1007B000F90280E090E080179107C8F4A191B1910F
:1007C00012962D913C9113972A53324029F490931D
:1007D000F7028093F6020BC00196EDCF2091F40250
:1007E0003091F502821793075CF00E949C01809182
:1007F000F6029091F7028F3FAFEF9A0779F7F5CFA6
:10080000880F991FE091F802F091F902E80FF91FA3
:10081000C081D181209749F3E881F9816091F2028A
:100820007091F3020480F581E02DCE01099580914D
:10083000F0029091F102DC01ED91FC910190F081C8
:10084000E02DBE010995D1CFCF93DF93C0E0D0E07A
:100850002091F4023091F5028091F8029091F90212
:10086000C217D30798F49E01220F331FFC01E20F39
:10087000F31F80819181009739F0DC01ED91FC91AB
:100880000280F381E02D09952196E2CF009721F0B7
:10089000DF91CF910C94ED04DF91CF910895EE0F8D
:1008A000FF1F0024001C0BBE0790F691E02D099459
:1008B000CF93DF938230910510F482E090E0E091D5
:1008C000FC02F091FD0220E030E0C0E0D0E0309783
:1008D00011F14081518148175907C0F04817590755
:1008E00061F482819381209719F09B838A832BC0C6
:1008F0009093FD028093FC0226C02115310519F06A
:100900004217530718F49A01BE01DF01EF0102807C
:10091000F381E02DDCCF2115310509F1281B390BBE
:100920002430310590F412968D919C9113976115A6
:10093000710521F0FB019383828304C09093FD0233
:100940008093FC02FD01329644C0FD01E20FF31FCB
:1009500081939193225031092D933C933AC0209179
:10096000FA023091FB02232B41F4209102023091D4
:1009700003023093FB022093FA022091000230918F
:1009800001022115310541F42DB73EB74091040213
:1009900050910502241B350BE091FA02F091FB0205
:1009A000E217F307A0F42E1B3F0B2817390778F046
:1009B000AC014E5F5F4F2417350748F04E0F5F1FA5
:1009C0005093FB024093FA028193919302C0E0E0BE
:1009D000F0E0CF01DF91CF9108950F931F93CF9354
:1009E000DF93009709F48CC0FC01329713821282C6
:1009F0000091FC021091FD020115110581F4208186
:100A00003181820F931F2091FA023091FB02281747
:100A1000390779F5F093FB02E093FA0271C0D8012F
:100A200040E050E0AE17BF0750F412962D913C9174
:100A30001397AD012115310509F1D901F3CF9D01BE
:100A4000DA013383228360817181860F971F8217B9
:100A5000930769F4EC0128813981260F371F2E5F37
:100A60003F4F318320838A819B8193838283452BEF
:100A700029F4F093FD02E093FC0242C01396FC932C
:100A8000EE931297ED01499159919E01240F351F64
:100A9000E217F30771F480819181840F951F02960C
:100AA00011969C938E938281938113969C938E933F
:100AB0001297E0E0F0E0D80112968D919C91139787
:100AC000009719F0F8018C01F6CF8D919C91980157
:100AD0002E5F3F4F820F931F2091FA023091FB024D
:100AE0002817390769F4309729F41092FD02109203
:100AF000FC0202C0138212821093FB020093FA02DE
:100B0000DF91CF911F910F91089581E090E0F894CB
:100B10000C949305FB01DC0102C001900D92415041
:100B20005040D8F7089510E0C3E7D0E004C0FE01BC
:100B30000E944F042196C437D107C9F7F894FFCF1C
:100B40000000FE02800000000000F201F501D90162
:100B5000000000003301A000CB007A01FC00DA00A5
:100B6000EE005570207072657373656400446F7792
:100B70006E2070726573736564005465737400430E
:0A0B80006F6E67726174732100004C
:020000021000EC
:10F000000C9472F80C9492F80C9492F80C9492F878
:10F010000C9492F80C9492F80C9492F80C9492F848
:10F020000C9492F80C9492F80C9492F80C9492F838
:10F030000C9492F80C9492F80C9492F80C9492F828
:10F040000C9492F80C9492F80C9492F80C9492F818
:10F050000C9492F80C9492F80C9492F80C9492F808
:10F060000C9492F80C9492F80C9492F80C9492F8F8
:10F070000C9492F80C9492F80C9492F80C9492F8E8
:10F080000C9492F80C9492F80C9492F80C9492F8D8
:10F090000C9492F80C9492F80C9492F80C9492F8C8
:10F0A0000C9492F80C9492F80C9492F80C9492F8B8
:10F0B0000C9492F80C9492F80C9492F80C9492F8A8
:10F0C0000C9492F80C9492F80C9492F80C9492F898
:10F0D0000C9492F80C9492F80C9492F80C9492F888
:10F0E0000C9492F811241FBECFEFD1E2DEBFCDBF4A
:10F0F00012E0A0E0B2E0EEEDFEEF01E00BBF02C0D7
:10F1000007900D92A833B107D9F71BBE13E0A8E30F
:10F11000B2E001C01D92A334B107E1F70E9412FAD8
:10F120000C946DFF0C9400F8982F959595959595F6
:10F130009595905D8F708A301CF1282F295A809107
:10F140003802813019F0823071F008958091C0004A
:10F1500085FFFCCF9093C6008091C00085FFFCCF57
:10F160002093C60008958091C80085FFFCCF90933E
:10F17000CE008091C80085FFFCCF2093CE0008957B
:10F18000282F205DDCCF982F80913802813019F034
:10F19000823041F008958091C00085FFFCCF9093AC
:10F1A000C60008958091C80085FFFCCF9093CE00E3
:10F1B0000895EF92FF920F931F9380913802813050
:10F1C00069F1823031F080E01F910F91FF90EF9054
:10F1D0000895EE24FF2487018091C80087FD17C0A1
:10F1E0000894E11CF11C011D111D81E4E81682E464
:10F1F000F8068FE0080780E0180770F3E0913A0204
:10F20000F0913B0209958091C80087FFE9CF80917A
:10F21000CE001F910F91FF90EF900895EE24FF24F0
:10F2200087018091C00087FD17C00894E11CF11C84
:10F23000011D111D81E4E81682E4F8068FE008073D
:10F2400080E0180770F3E0913A02F0913B020995D3
:10F250008091C00087FFE9CF8091C6001F910F9178
:10F26000FF90EF9008950E94D9F8982F809138026E
:10F27000813049F0823091F091366CF490330CF08B
:10F280009053892F08958091C00085FFFCCF909303
:10F29000C60091369CF39755892F08958091C80038
:10F2A00085FFFCCF9093CE00E7CF1F930E9433F9E8
:10F2B000182F0E9433F91295107F810F1F91089526
:10F2C000982F20913802992339F0213031F02230E3
:10F2D00061F091509923C9F708958091C00087FF8C
:10F2E000FCCF8091C6009150F5CF8091C80087FF78
:10F2F000FCCF8091CE009150EDCF1F93182F0E942C
:10F30000D9F8803249F0809139028F5F80933902B9
:10F31000853091F11F910895809138028130B9F0C4
:10F320008230C1F78091C80085FFFCCF84E18093D3
:10F33000CE008091C80085FFFCCF1093CE00809155
:10F34000C80085FFFCCF80E18093CE00E3CF8091A1
:10F35000C00085FFFCCF84E18093C6008091C0008F
:10F3600085FFFCCF1093C6008091C00085FFFCCFC5
:10F3700080E18093C600CECFE0913A02F0913B024B
:10F3800009951F9108950E94D9F8803241F080912B
:10F3900039028F5F80933902853029F10895809179
:10F3A0003802813089F08230C9F78091C80085FF2A
:10F3B000FCCF84E18093CE008091C80085FFFCCF14
:10F3C00080E18093CE0008958091C00085FFFCCF3E
:10F3D00084E18093C6008091C00085FFFCCF80E16E
:10F3E0008093C6000895E0913A02F0913B0209959E
:10F3F000089540E951E08823A1F02F9A28EE33E0E8
:10F40000FA013197F1F721503040D1F72F9828EECB
:10F4100033E0FA013197F1F721503040D1F78150B4
:10F4200061F708952F923F924F925F926F927F9271
:10F430008F929F92AF92BF92CF92DF92EF92FF9204
:10F440000F931F93CF93DF93000081E080933802E6
:10F4500080E18093C4001092C5001092C00086E045
:10F460008093C20088E18093C1006898709A279ABF
:10F4700081E00E94F9F9E4E1EE2E7EE1D72E67E902
:10F48000C62E53E0B52E40E1A42E9924939431E486
:10F49000832E26E5722E92E5692E80E2582E09E42D
:10F4A000402E13E5312EB0E52B2E0E94D9F8803383
:10F4B000C9F1813309F452C0803409F4C8C08134E1
:10F4C00009F4EAC0823489F1853409F4CAC0803570
:10F4D00049F1823539F1813529F1853509F4ECC0DE
:10F4E000863509F409C1843609F428C1843709F442
:10F4F000ABC1853709F473C2863709F4D9C08132AC
:10F5000009F4B7C2809139028F5F80933902853048
:10F5100061F6E0913A02F0913B0209950E94D9F818
:10F52000803339F60E94C3F9C0CF2091380293E1AD
:10F5300005C0223061F09923A9F391502130C9F719
:10F540008091C00087FFFCCF8091C600F4CF8091EE
:10F55000C80087FFFCCF8091CE00EDCF0E94D9F884
:10F56000803281F6809138028130D1F1823009F009
:10F570009CCF8091C80085FFFCCFE092CE008091A7
:10F58000C80085FFFCCF8092CE008091C80085FF27
:10F59000FCCF7092CE008091C80085FFFCCF6092B6
:10F5A000CE008091C80085FFFCCF5092CE008091A4
:10F5B000C80085FFFCCF4092CE008091C80085FF37
:10F5C000FCCF3092CE008091C80085FFFCCF209206
:10F5D000CE008091C80085FFFCCFA092CE0065CF01
:10F5E0008091C00085FFFCCFE092C6008091C000F2
:10F5F00085FFFCCF8092C6008091C00085FFFCCFC4
:10F600007092C6008091C00085FFFCCF6092C6005A
:10F610008091C00085FFFCCF5092C6008091C00051
:10F6200085FFFCCF4092C6008091C00085FFFCCFD3
:10F630003092C6008091C00085FFFCCF2092C600AA
:10F640008091C00085FFFCCFA092C6002ECF0E9403
:10F65000D9F8863808F466CF0E94D9F80E94C3F919
:10F6600024CF2091380294E0213041F0223069F01B
:10F67000992309F457CF91502130C1F78091C000F0
:10F6800087FFFCCF8091C600F3CF8091C80087FF31
:10F69000FCCF8091CE00ECCF0E94D9F8803841F1A8
:10F6A000813809F447C0823809F4CAC08839E1F0CA
:10F6B00080E00E947DF9F9CE0E94D9F880933C0247
:10F6C0000E94D9F880933D020E94C3F9EECE0E94B9
:10F6D000D9F80E94D9F8182F0E94D9F8112309F4FB
:10F6E0007EC2113009F40AC283E00E947DF9DDCEAA
:10F6F00082E00E947DF9D9CE0E94D9F8803339F397
:10F700002091380292E0213039F0223061F09923C3
:10F7100079F291502130C9F78091C00087FFFCCF6A
:10F720008091C600F4CF8091C80087FFFCCF809104
:10F73000CE00EDCF81E00E947DF9B7CE0E94D9F8CE
:10F7400080933F030E94D9F880933E038091420347
:10F750008E7F809342030E94D9F8853409F4B3C1A7
:10F7600080913E0390913F03892B89F000E010E0E7
:10F770000E94D9F8F801E25CFD4F80830F5F1F4FB4
:10F7800080913E0390913F030817190788F30E9468
:10F79000D9F8803209F0B6CE8091420380FFB2C121
:10F7A00040913C0250913D02440F551F50933D0241
:10F7B00040933C0260913E0370913F0361157105D7
:10F7C000F1F080E090E09A01280F391FFC01E25C23
:10F7D000FD4FE081F999FECF1FBA32BD21BDE0BDDA
:10F7E0000FB6F894FA9AF99A0FBE01968617970702
:10F7F00050F3460F571F50933D0240933C028091B7
:10F800003802813081F0823009F04FCE8091C800FB
:10F8100085FFFCCFE092CE008091C80085FFFCCF31
:10F82000A092CE0042CE8091C00085FFFCCFE09236
:10F83000C6008091C00085FFFCCFA092C60035CEE7
:10F8400080E10E947DF931CE0E94D9F880933F0378
:10F850000E94D9F880933E0320913C0230913D02F2
:10F8600037FD46C1809142038D7F80934203220F72
:10F87000331F30933D0220933C020E94D9F8853417
:10F8800009F430C1809142038E7F809342030E942D
:10F89000D9F8803209F009CE60913802613009F45C
:10F8A0006FC0623009F473C000913E0310913F03B2
:10F8B0000115110509F440C080914203782F717041
:10F8C000F82EF69481E0F82240913C0250913D02DE
:10F8D00020E030E013C0FF2009F060C0FA019491ED
:10F8E000613009F43BC0623009F441C0CA0101969D
:10F8F0002F5F3F4FAC0120173107D0F4772359F326
:10F90000F999FECF52BD41BDF89A90B56130F9F03A
:10F91000623061F78091C80085FFFCCF9093CE00E4
:10F92000CA0101962F5F3F4FAC012017310730F31A
:10F9300090933D0280933C02613009F4CAC062306A
:10F9400009F0B3CD8091C80085FFFCCF46CE8091F1
:10F95000C00085FFFCCF9093C600C8CF8091C00047
:10F9600085FDF9CF8091C00085FFF8CFF4CF80915D
:10F97000C80085FDD3CF8091C80085FFF8CFCECFDA
:10F980008091C00085FFFCCFE092C6008DCF8091B2
:10F99000C80085FFFCCFE092CE0086CFCA01A0E070
:10F9A000B0E080509040AF4FBF4FABBFFC0197918C
:10F9B000613061F0623009F099CF8091C80085FD17
:10F9C000ADCF8091C80085FFF8CFA8CF8091C0004F
:10F9D00085FDC1CF8091C00085FFF8CFBCCF0E94CC
:10F9E000D9F8803209F08ECD80913802813011F142
:10F9F000823009F05ACD8091C80085FFFCCFE0929B
:10FA0000CE008091C80085FFFCCFD092CE008091BF
:10FA1000C80085FFFCCFC092CE008091C80085FF52
:10FA2000FCCFB092CE008091C80085FFFCCFA092A1
:10FA3000CE003BCD8091C00085FFFCCFE092C60098
:10FA40008091C00085FFFCCFD092C6008091C0009D
:10FA500085FFFCCFC092C6008091C00085FFFCCF1F
:10FA6000B092C6008091C00085FFFCCFA092C60076
:10FA70001CCD0E94D9F8813209F017CD0E94D9F827
:10FA8000813209F012CD279A2F98109240032091CD
:10FA90003802E1E491E00EC0223009F4A4C0909352
:10FAA0004003E92FF0E0E050FE4FE0819F5FEE233E
:10FAB00009F4A0C0213081F78091C00085FFFCCF00
:10FAC000E093C600ECCF80914203816080934203B3
:10FAD00047CE8091C00085FDB7CD8091C00085FFE5
:10FAE000F8CFB2CD80914203816080934203CFCEA4
:10FAF00080914203826080934203B9CE87E90E94DD
:10FB00007DF9D3CC80913D028823880F880B892111
:10FB1000809341038BBF80913C0290913D02880FFE
:10FB2000991F90933D0280933C0280913E0380FF99
:10FB300009C080913E0390913F03019690933F034B
:10FB400080933E03F894F999FECF1127E0913C028F
:10FB5000F0913D02CEE3D2E080913E0390913F03CD
:10FB6000103091F40091570001700130D9F303E097
:10FB700000935700E8950091570001700130D9F3C8
:10FB800001E100935700E895099019900091570002
:10FB900001700130D9F301E000935700E895139507
:10FBA000103898F011270091570001700130D9F3F7
:10FBB00005E000935700E89500915700017001306F
:10FBC000D9F301E100935700E8953296029709F0C6
:10FBD000C7CF103011F00296E5CF112410CE8EE180
:10FBE0000E947DF962CC8091C80085FFFCCFE09334
:10FBF000CE0055CF7AE0B72E6DE0A62E5AE3952EB3
:10FC000040E2842E3DE3732E90E3692E81E3582E6B
:10FC1000213009F442C0223009F45FC00E94D9F8B3
:10FC2000982F20913802213089F1223009F44EC0FA
:10FC3000943709F46BC0923709F405C1973709F47A
:10FC40007BC0953799F0923609F4BDC09A3601F71A
:10FC5000E0913A02F0913B02099520913802D8CF09
:10FC60008091C00085FFFCCF9093C6000E94D9F818
:10FC7000982F80913802813099F38230B9F78091C2
:10FC8000C80085FFFCCF9093CE00F0CF8091C000DC
:10FC900085FFFCCF9093C600CBCF8091C00085FF3D
:10FCA000FCCFB092C6008091C00085FFFCCFA0922F
:10FCB000C6008091C00085FFFCCF9092C600809165
:10FCC000C00085FFFCCF8092C600A8CF8091C800FD
:10FCD00085FFFCCF9093CE00ABCF8091C80085FF0D
:10FCE000FCCFB092CE008091C80085FFFCCFA092DF
:10FCF000CE008091C80085FFFCCF9092CE0080910D
:10FD0000C80085FFFCCF8092CE0088CF1F9947C0E6
:10FD10002F9A213051F0223009F07ACF8091C8001B
:10FD200085FFFCCF6092CE0073CF8091C00085FF2D
:10FD3000FCCF6092C6006CCF0E94D9F8982F8091BA
:10FD400038028130F1F0823009F4ABC00E9455F9DD
:10FD5000082F0E9455F9182F0E94D9F8982F8091EA
:10FD600038028130A9F0823009F4A2C00E9455F90E
:10FD7000D02ECC24F601E10FF11D808320913802B2
:10FD800047CF8091C00085FFFCCF9093C600DECFA7
:10FD90008091C00085FFFCCF9093C600E7CF2F98DD
:10FDA000213051F0223009F033CF8091C80085FF17
:10FDB000FCCF5092CE002CCF8091C00085FFFCCFAD
:10FDC0005092C60025CF213041F1223081F080E8E9
:10FDD00085BF109274001092750080E091E1FC01E3
:10FDE000819180E091E13097D1F3CF01F8CF8091FC
:10FDF000C80085FFFCCF82E68093CE008091C800CA
:10FE000085FFFCCF85E78093CE008091C80085FFF9
:10FE1000FCCF83E78093CE00DACF8091C00085FFCE
:10FE2000FCCF82E68093C6008091C00085FFFCCFA6
:10FE300085E78093C6008091C00085FFFCCF83E7F3
:10FE40008093C600C4CF0E94D9F8982F80913802C1
:10FE50008130C9F08230D1F10E9455F9182F0E94EB
:10FE600055F9982F809138028130A1F0823039F114
:10FE7000F12EEE24F701E90FF11D80810E9494F824
:10FE800020913802C5CE8091C00085FFFCCF9093B1
:10FE9000C600E2CF8091C00085FFFCCF7092C60003
:10FEA000E7CF8091C80085FFFCCF9093CE004ECF66
:10FEB0008091C80085FFFCCF9093CE0057CF8091F2
:10FEC000C80085FFFCCF7092CE00D2CF8091C800D1
:0EFED00085FFFCCF9093CE00BFCFF894FFCFFC
:10FEDE0041546D656761424F4F54202F204172642B
:10FEEE0075696E6F204D656761202D20284329208E
:10FEFE0041726475696E6F204C4C43202D20303951
:08FF0E00303933300A0D008088
:040000031000F000F9
:00000001FF