:100000000C9474000C949E000C949E000C949E0022
:100010000C949E000C949E000C949E000C949E00E8
:100020000C949E000C949E000C949E000C949E00D8
:100030000C949E000C949E000C949E000C949E00C8
:100040000C949E000C949E000C949E000C949E00B8
:100050000C949E000C949E000C949E000C945702ED
:100060000C949E000C9421020C94F7010C949E00B9
:100070000C949E000C949E000C949E000C949E0088
:100080000C949E000C949E000C949E000C949E0078
:100090000C949E000C949E000C949E000C949E0068
:1000A0000C949E000C949E000C949E000C949E0058
:1000B0000C949E000C949E000C949E000C949E0048
:1000C0000C949E000C949E000C949E000C949E0038
:1000D0000C949E000C949E000C949E000C949E0028
:1000E0000C949E00A102240411241FBECFEFD1E284
:1000F000DEBFCDBF12E0A0E0B2E0E0E4FBE000E054
:100100000BBF02C007900D92AA34B107D9F722E0C5
:10011000AAE4B2E001C01D92AE3FB207E1F710E0E1
:10012000C3E7D0E004C02197FE010E944F04C2370C
:10013000D107C9F70E94D8020C9493050C940000D3
:10014000CF92DF92EF92FF920F931F93CF93DF93A3
:100150006C017A018B01C0E0D0E0CE15DF0589F09B
:10016000D8016D918D01D601ED91FC910190F08146
:10017000E02DC6010995892B11F47E0102C021965C
:10018000ECCFC701DF91CF911F910F91FF90EF90BE
:10019000DF90CF900895FC01538D448D252F30E0E2
:1001A000842F90E0821B930B541710F0CF96089584
:1001B00001970895FC01918D828D981761F0828DD1
:1001C000DF01A80FB11D5D968C91928D9F5F9F738B
:1001D000928F90E008958FEF9FEF0895FC01918D2D
:1001E000828D981731F0828DE80FF11D858D90E09A
:1001F00008958FEF9FEF0895FC01918D228D892F37
:1002000090E0805C9F4F821B91098F73992708951E
:1002100083E592E00E94FC0021E0892B09F420E0B4
:10022000822F0895FC01848DDF01A80FB11DA35A10
:10023000BF4F2C91848D90E001968F739927848F06
:10024000A689B7892C93A089B1898C9180648C93FD
:10025000938D848D981306C00288F389E02D8081E8
:100260008F7D80830895EF92FF920F931F93CF931A
:10027000DF93EC0181E0888F9B8D8C8D981305C0F6
:10028000E889F989808185FD24C0F62E0B8D10E068
:100290000F5F1F4F0F731127E02E8C8DE8120CC0DB
:1002A0000FB607FCFACFE889F989808185FFF5CF81
:1002B000CE010E941201F1CF8B8DFE01E80FF11DDE
:1002C000E35AFF4FF0820B8FEA89FB8980818062BD
:1002D00007C0EE89FF896083E889F989808180649D
:1002E000808381E090E0DF91CF911F910F91FF908B
:1002F000EF900895CF93DF93EC01888D8823C9F0A8
:10030000EA89FB89808185FD05C0A889B9898C911E
:1003100086FD0FC00FB607FCF5CF808185FFF2CFB9
:10032000A889B9898C9185FFEDCFCE010E94120179
:10033000E7CFDF91CF91089580E090E0892B21F005
:100340000E940801811125C080E090E0892B41F0D6
:1003500080E090E0892B21F00E94000081111CC0F8
:1003600080E090E0892B41F080E090E0892B21F043
:100370000E940000811113C080E090E0892BA1F061
:1003800080E090E0892B81F00E94000081110AC07A
:1003900008950E940000D8CF0E940000E1CF0E9483
:1003A0000000EACF0C9400000895089580E090E0EA
:1003B0000895CF93DF93EC01DB01ED91FC91019067
:1003C000F081E02DCB010995833019F482E292E0AF
:1003D00004C0843021F48DE292E09D838C83DF9110
:1003E000CF91089508950E9485050C94ED041F9205
:1003F0000F920FB60F9211240BB60F922F933F93CB
:100400004F935F936F937F938F939F93AF93BF931C
:10041000EF93FF9383E592E00E941201FF91EF9129
:10042000BF91AF919F918F917F916F915F914F910C
:100430003F912F910F900BBE0F900FBE0F901F900A
:1004400018951F920F920FB60F9211240BB60F92B0
:100450002F938F939F93EF93FF93E0916302F0911B
:1004600064028081E0916902F0916A0282FD12C00B
:10047000908180916C028F5F8F7320916D02821743
:1004800051F0E0916C02F0E0ED5AFD4F958F8093B2
:100490006C0201C08081FF91EF919F918F912F910C
:1004A0000F900BBE0F900FBE0F901F9018951F92CC
:1004B0000F920FB60F9211242F933F938F939F9318
:1004C000AF93BF9380914F0290915002A09151023F
:1004D000B091520230914E0223E0230F2D3720F4C9
:1004E0000196A11DB11D05C026E8230F0296A11D8E
:1004F000B11D20934E0280934F0290935002A0931F
:100500005102B093520280914A0290914B02A09105
:100510004C02B0914D020196A11DB11D80934A027B
:1005200090934B02A0934C02B0934D02BF91AF91B8
:100530009F918F913F912F910F900FBE0F901F9021
:100540001895E3E5F2E01382128288EE93E0A0E0D2
:10055000B0E084839583A683B78384E192E091839E
:10056000808385EC90E09587848784EC90E0978782
:10057000868780EC90E0918B808B81EC90E0938B70
:10058000828B82EC90E0958B848B86EC90E0978B4D
:10059000868B118E128E138E148EE0EFF2E0158290
:1005A00014828FEF9FEF97838683118610860895BC
:1005B000789484B5826084BD84B5816084BD85B53E
:1005C000826085BD85B5816085BD80916E0081604A
:1005D00080936E00109281008091810082608093F0
:1005E00081008091810081608093810080918000F2
:1005F0008160809380008091B10084608093B1001D
:100600008091B00081608093B00080919100826001
:1006100080939100809191008160809391008091FE
:1006200090008160809390008091A100826080930F
:10063000A1008091A10081608093A1008091A00021
:1006400081608093A00080912101826080932101CC
:10065000809121018160809321018091200181603E
:100660008093200180917A00846080937A00809149
:100670007A00826080937A0080917A008160809312
:100680007A0080917A00806880937A001092C1008D
:10069000E0916302F091640282E08083E0915F0266
:1006A000F09160021082E0916102F09162028FECA1
:1006B000808310926B02E0916702F091680286E0FD
:1006C0008083E0916502F091660280818061808381
:1006D000E0916502F0916602808188608083E091FC
:1006E0006502F0916602808180688083E0916502F6
:1006F000F091660280818F7D808386E090E00E9489
:1007000058047C018AE392E0D70113969C938E9360
:1007100012978AE092E011969C938E938FE392E079
:1007200015969C938E931497C091F402D091F50284
:100730008E010F5F1F4FC090F802D090F902C114D4
:10074000D104A9F00138BFE31B0720F4C801880FCA
:10075000991F02C08FEF9FEF0E945804AE01440F13
:10076000551F440F551FB6010E948A0510C001385D
:10077000EFE31E0720F4C801880F991F02C08FEF16
:100780009FEF0E9458049093F9028093F80210930F
:10079000F5020093F402CC0FDD1F8091F8029091D6
:1007A000F902C80FD91FF982E882E091F802F091AE
:1007B000F90280E090E080179107C8F4A191B1910F
:1007C00012962D913C9113972A53324029F490931D
:1007D000F7028093F6020BC00196EDCF2091F40250
:1007E0003091F502821793075CF00E949C01809182
:1007F000F6029091F7028F3FAFEF9A0779F7F5CFA6
:10080000880F991FE091F802F091F902E80FF91FA3
:10081000C081D181209749F3E881F9816091F2028A
:100820007091F3020480F581E02DCE01099580914D
:10083000F0029091F102DC01ED91FC910190F081C8
:10084000E02DBE010995D1CFCF93DF93C0E0D0E07A
:100850002091F4023091F5028091F8029091F90212
:10086000C217D30798F49E01220F331FFC01E20F39
:10087000F31F80819181009739F0DC01ED91FC91AB
:100880000280F381E02D09952196E2CF009721F0B7
:10089000DF91CF910C94ED04DF91CF910895EE0F8D
:1008A000FF1F0024001C0BBE0790F691E02D099459
:1008B000CF93DF938230910510F482E090E0E091D5
:1008C000FC02F091FD0220E030E0C0E0D0E0309783
:1008D00011F14081518148175907C0F04817590755
:1008E00061F482819381209719F09B838A832BC0C6
:1008F0009093FD028093FC0226C02115310519F06A
:100900004217530718F49A01BE01DF01EF0102807C
:10091000F381E02DDCCF2115310509F1281B390BBE
:100920002430310590F412968D919C9113976115A6
:10093000710521F0FB019383828304C09093FD0233
:100940008093FC02FD01329644C0FD01E20FF31FCB
:1009500081939193225031092D933C933AC0209179
:10096000FA023091FB02232B41F4209102023091D4
:1009700003023093FB022093FA022091000230918F
:1009800001022115310541F42DB73EB74091040213
:1009900050910502241B350BE091FA02F091FB0205
:1009A000E217F307A0F42E1B3F0B2817390778F046
:1009B000AC014E5F5F4F2417350748F04E0F5F1FA5
:1009C0005093FB024093FA028193919302C0E0E0BE
:1009D000F0E0CF01DF91CF9108950F931F93CF9354
:1009E000DF93009709F48CC0FC01329713821282C6
:1009F0000091FC021091FD020115110581F4208186
:100A00003181820F931F2091FA023091FB02281747
:100A1000390779F5F093FB02E093FA0271C0D8012F
:100A200040E050E0AE17BF0750F412962D913C9174
:100A30001397AD012115310509F1D901F3CF9D01BE
:100A4000DA013383228360817181860F971F8217B9
:100A5000930769F4EC0128813981260F371F2E5F37
:100A60003F4F318320838A819B8193838283452BEF
:100A700029F4F093FD02E093FC0242C01396FC932C
:100A8000EE931297ED01499159919E01240F351F64
:100A9000E217F30771F480819181840F951F02960C
:100AA00011969C938E938281938113969C938E933F
:100AB0001297E0E0F0E0D80112968D919C91139787
:100AC000009719F0F8018C01F6CF8D919C91980157
:100AD0002E5F3F4F820F931F2091FA023091FB024D
:100AE0002817390769F4309729F41092FD02109203
:100AF000FC0202C0138212821093FB020093FA02DE
:100B0000DF91CF911F910F91089581E090E0F894CB
:100B10000C949305FB01DC0102C001900D92415041
:100B20005040D8F7089510E0C3E7D0E004C0FE01BC
:100B30000E944F042196C437D107C9F7F894FFCF1C
:100B40000000FE02800000000000F201F501D90162
:100B5000000000003301A000CB007A01FC00DA00A5
:100B6000EE005570207072657373656400446F7792
:100B70006E2070726573736564005465737400430E
:0A0B80006F6E67726174732100004C
:00000001FF
