:1000000020C100004FC100004DC100004BC10000E5
:1000100049C1000047C1000045C1000043C10000C4
:1000200041C100003FC100003DC100003BC10000D4
:1000300039C100000C94D21135C1000033C1000059
:1000400031C100002FC100002DC100002BC10000F4
:1000500029C1000027C1000025C100000C94A00A9E
:1000600021C100000C9448090C941F091BC1000019
:1000700019C1000017C1000015C1000013C1000024
:1000800011C100000FC100000DC100000BC1000034
:1000900009C1000007C1000005C1000003C1000044
:1000A00001C10000FFC00000FDC00000FBC0000057
:1000B000F9C00000F7C00000F5C00000F3C0000068
:1000C000F1C00000EFC00000EDC00000EBC0000078
:1000D000E9C00000E7C00000E5C00000E3C0000088
:1000E000E1C00000A908AC089B089F08A508E30828
:1000F000B008B408BA08BE08C208C808CC08D008BE
:10010000E308D608DA08DE08500C550C5D0C680CC4
:100110006A0C6F0C770C820C900C920C0000210082
:10012000240027002A002D003000330001010000C8
:10013000040107010A0100002200250028002B000D
:100140002E003100340002010000050108010B01FE
:10015000000020002300260029002C002F00320080
:100160000001000003010601090105050505070559
:1001700008080808020202020A0A08080404040423
:10018000010101010101010103030303030303034F
:10019000040707070C0C0C0C0C0C0C0C02020202DE
:1001A00006060606060606060B0B0B0B0B0B0B0BC7
:1001B0000102102020080810204010204080020179
:1001C000020108040201010204081020408080405E
:1001D000201008040201800402018040201008045D
:1001E00002010804020101020408102040800102FB
:1001F00004081020408000000A0B02090C0D0E08B4
:1002000007030401000000000000000000000000DF
:1002100000000000000000000000000000000000DE
:10022000000012111000000000000000000000009B
:100230000000000000000000000000000200561452
:10024000321211241FBECFEFD1E2DEBFCDBF00E0DE
:100250000CBF24E0A8E5B3E001C01D92AF3FB20798
:10026000E1F713E0A0E0B2E0E8E0F9E300E00BBF63
:1002700002C007900D92A835B107D9F711E0C0E28E
:10028000D1E000E006C021970109802FFE010E9405
:100290003817CF31D10780E00807A9F70E9469120B
:1002A0000C94731CADCE08950C940B18DF92EF9252
:1002B000FF920F931F93CF93DF937C018A01FC0180
:1002C000828DC62FD0E0CC0FDD1FCE0DDF1D882321
:1002D00099F0DB8C462F6D2DC7010E94BB10B80131
:1002E000C70198D7F80101900020E9F73197E01B8A
:1002F000F10BED0DEB8F12C0FA0101900020E9F730
:100300003197E41BF50BDC8CDE1A462F6D2DC701EF
:100310000E94BB10B801C7017DD7DC8EDF91CF9161
:100320001F910F91FF90EF90DF900895CF92DF9291
:10033000EF92FF920F931F93CF93FC0125856217D5
:1003400008F041C08A01C62F7C0183E090E00E9442
:1003500076176C01FC01C08312830183F80162816E
:100360007381F70107811085F6E0CF9F000D111D05
:1003700011246115710561F0FB0101900020E9F77E
:100380003197AF01461B570BC8010E9495110EC053
:10039000F80180819181009711F00E940B18F801FB
:1003A000118210821582148213821282F7019185C4
:1003B0008285E92FF82FEC0FF11DEC0FF11DD18292
:1003C000C08281E001C080E0CF911F910F91FF902A
:1003D000EF90DF90CF9008950F931F93CF93DF930B
:1003E000EC018BE092E0998388830F8118850115D9
:1003F0001105E9F0F80132972081318146E0429FF2
:10040000C001439F900D1124080F191FC8012F81AF
:100410003885065011098217930731F0F801808161
:1004200091810E940B18F2CF02970E940B1810E0E6
:100430008D85E985FA85181750F4E10FF11DE10F5C
:10044000F11D808191810E940B181F5FF1CF3097C1
:1004500019F0CF010E940B188B859C85009731F015
:10046000DF91CF911F910F910C940B18DF91CF91D9
:100470001F910F910895CF93DF93EC01ADDFCE0173
:10048000DF91CF910C940B18EF92FF920F931F9373
:10049000CF93DF93EC01E62E8A01F12C888DF816BC
:1004A00078F44E2D6F2DCE010E94BB10E881F981AA
:1004B0000190F081E02D60E2CE011995F394EECF2A
:1004C0002E2D30E0F901EE0FFF1FEC0FFD1F138EF4
:1004D000F9013E96EE0FFF1FEC0FFD1F8150808348
:1004E000A8016E2DCE01DF91CF911F910F91FF904A
:1004F000EF90DCCE8F929F92AF92BF92CF92DF921D
:10050000EF92FF920F931F93CF93DF93CDB7DEB798
:10051000A1970FB6F894DEBF0FBECDBFDC01509699
:100520002D913C915197232B09F412C45296ED90D2
:10053000FC905397E114F10409F40AC48C01D7012B
:10054000ED91FC910190F081E02DC7011995D82E15
:10055000882309F46BC2B9E8EB0EF11CF701828124
:1005600090910002981721F09F3F09F0CCC104C080
:10057000ECE3F2E09491FFC080930002ECE3F2E040
:10058000E491EF3F09F4BFC1E23009F47EC06CF59D
:10059000EE2309F459C0E13009F0ECC0109280005C
:1005A00010928100909181009860909381009091C9
:1005B0008100916090938100282F30E0F901E65985
:1005C000FE4FE491F0E0EE0FFF1FEA5CFE4F459115
:1005D00054915093630340936203F901E055FE4F39
:1005E000E491E093610391E0C8C0E43009F49BC05A
:1005F0000CF472C0E53009F0BDC0109220011092D9
:100600002101909121019860909321019091210105
:10061000916090932101282F30E0F901E659FE4FB7
:10062000E491F0E0EE0FFF1FEA5CFE4F459154911C
:1006300050935A0340935903F901E055FE4FE4915A
:10064000E093580395E099C014BC15BC94B5926032
:1006500094BD95B5916095BD282F30E0F901E6591C
:10066000FE4FE491F0E0EE0FFF1FEA5CFE4F459174
:1006700054915093660340936503F901E055FE4F92
:10068000E491E093640390E078C01092B00010927F
:10069000B1009091B00092609093B0009091B10041
:1006A00091609093B100282F30E0F901E659FE4F98
:1006B000E491F0E0EE0FFF1FEA5CFE4F459154918C
:1006C0005093850340938403F901E055FE4FE49174
:1006D000E093860392E051C0109290001092910036
:1006E0009091910098609093910090919100916009
:1006F00090939100282F30E0F901E659FE4FE491E4
:10070000F0E0EE0FFF1FEA5CFE4F459154915093CD
:10071000600340935F03F901E055FE4FE491E093DD
:100720005E0393E02AC01092A0001092A100909165
:10073000A10098609093A1009091A1009160909386
:10074000A100282F30E0F901E659FE4FE491F0E0D6
:10075000EE0FFF1FEA5CFE4F4591549150935D03ED
:1007600040935C03F901E055FE4FE491E0935B0395
:1007700094E003C09E2F97FDC6C061E099A370D698
:1007800099A1992351F09230F9F48091B100887FBA
:1007900082608093B10089EF5FC085B5887F8260F9
:1007A00085BD89EF87BD8FEF9FEFDC0180937703D5
:1007B00090937803A0937903B0937A0380916E00AD
:1007C000826080936E009FC09130E9F48091810037
:1007D000887F8160809381008FEC97E090938900FF
:1007E000809388008FEF9FEFDC01809373039093D9
:1007F0007403A0937503B093760380916F008260B9
:1008000080936F0080C0933039F480919100887F8D
:1008100081608093910033C0943039F48091A100BD
:10082000887F81608093A10041C0953039F4809128
:100830002101887F8160809321014FC09330F9F0BE
:100840002CF4923009F05FC08FEC06C0943071F147
:10085000953009F058C041C08093B3008FEF9FEFEF
:10086000DC018093870390938803A0938903B0935E
:100870008A038091700082608093700044C08FEC86
:1008800097E090939900809398008FEF9FEFDC01A1
:1008900080936F0390937003A0937103B0937203DE
:1008A000809171008260809371002DC08FEC97E081
:1008B0009093A9008093A8008FEF9FEFDC018093B5
:1008C0006B0390936C03A0936D03B0936E038091C0
:1008D000720082608093720016C08FEC97E0909354
:1008E0002901809328018FEF9FEFDC01809367033C
:1008F00090936803A0936903B0936A038091730097
:100900008260809373000E946011D70112968C91CF
:100910004ED50E946011B3E0DB122BC0F801978521
:100920008685911108C0811104C085858150868714
:100930001BC0815032C0F80121859285E22FF92F2A
:10094000E80FF11DE80FF11D0190F081E02D01800D
:10095000F281E02D309741F096858585890F858756
:100960009485981708F4958781E0D80114968C93A4
:100970005DC0B4E0DB122EC0F80197858685911129
:1009800010C0482F50E0258530E021503109421732
:10099000530711F41686E8CF8F5FD8011E968C930B
:1009A000E3CFF80121859285E22FF92FE80FF11DA1
:1009B000E80FF11D0190F081E02D0180F281E02D22
:1009C000309791F285859685891B85879385891750
:1009D00050F2CACFF1E0DF1229C0D8011E968C91E7
:1009E0001E9790E0880F991F1996ED91FC911A9728
:1009F000E80FF91F0190F081E02D21813281232B36
:100A000031F01F962C911F97D2261F96DC92F80189
:100A100023853485F901E80FF91F0190F081E02D5D
:100A2000309709F4A1CFC80119959ECFD80114962B
:100A30008C911497882309F48BC15096ED90FC900B
:100A400051971E96CC901E97C11002C01D96CC9057
:100A5000CA94B6E0CB9E60011124D8011796ED919F
:100A6000FC911897EC0DFD1D4481558160817181C9
:100A70008BE893E022D242E050E065E972E08BE837
:100A800093E01BD2F80187819085FC01EC0DFD1DE0
:100A9000C080D180F7E9CF16F2E0DF0609F44AC042
:100AA00048E952E060E0C701EFDCA60160E0C70161
:100AB000FDDBD7015A961C92F8018685811101C091
:100AC00085858150D80119962C9119971A969C9179
:100AD000E22FF92FE80FF11DE80FF11D0190F081D1
:100AE000E02D309709F422C10180F281E02D858547
:100AF0006E01BBE1CB0ED11C96E0F60111929A95E6
:100B0000E9F71F928F938DE493E09F938F93DF9289
:100B1000CF920E94AA194BE952E060E0C701C6DB00
:100B2000A60160E0C701C2DB0F900F900F900F90FD
:100B30000F900F9081E0D7015A968C93FE01319669
:100B40006F0184E1DF011D928A95E9F7F80186853E
:100B500087809084F6E08F9F800C911C1124D40133
:100B60001496AD90BC901597A114B10491F0B3E127
:100B7000AB16B10418F083E1A82EB12CF40160810A
:100B80007181A501C6010E949B19F601EA0DFB1DAA
:100B90001082D401AD90BC90B7E9AB16B2E0BB06B1
:100BA00009F446C04DE952E061E0C7016DDCA501E2
:100BB00061E0C7017BDBF701128ED8011E968C9194
:100BC0001E9719962C9119971A969C91E22FF92F3E
:100BD000E80FF11DE80FF11D0190F081E02D309735
:100BE00009F4AAC00180F281E02D85855E01B5E19E
:100BF000AB0EB11C96E0F50111929A95E9F71F92A0
:100C00008F938DE493E09F938F93BF92AF920E9456
:100C1000AA1940EA52E061E0C70148DBA50161E0A2
:100C2000C70144DB0F900F900F900F900F900F9023
:100C300081E0D7015A968C93F8018685482F50E0C1
:100C4000258530E0215031094217530711F08F5F9D
:100C500001C080E0D8011796ED91FC911897B6E09D
:100C60008B9FE00DF11D1124A080B180E7E9AE1645
:100C7000E2E0BE0609F44EC048E952E062E0C70176
:100C800003DCA50162E0C70111DBD7015A961C9273
:100C9000F8018685482F50E0258530E02150310944
:100CA0004217530711F08F5F01C080E0D8011996F9
:100CB0002C9119971A969C91E22FF92FE80FF11DAC
:100CC000E80FF11D0190F081E02D309709F43AC052
:100CD0000180F281E02D858596E0F60111929A95CA
:100CE000E9F71F928F938DE493E09F938F93DF92A8
:100CF000CF920E94AA1942EA52E062E0C701D6DA16
:100D0000A60162E0C701D2DA0F900F900F900F900A
:100D10000F900F9081E0D7015A968C9344EA52E0ED
:100D200063E0C701B1DBF801148212C04BE952E065
:100D300060E0C701BBDAFECE40EA52E061E0C701E5
:100D4000B5DA76CF42EA52E062E0C701AFDAE2CF2D
:100D5000A1960FB6F894DEBF0FBECDBFDF91CF9145
:100D60001F910F91FF90EF90DF90CF90BF90AF90C9
:100D70009F908F9008950F931F93CF93DF93EC0173
:100D80008F819885892B71F189859A85009751F11A
:100D9000DC01ED91FC910190F081E02D1995882303
:100DA00039F0ED81FE818181928101969283818368
:100DB0008C818823B9F00F8118854B855C8560E0B4
:100DC000C80162DB4D855E8561E0C8015DDB4F8552
:100DD000588962E0C80158DB49895A8963E0C80133
:100DE00053DB1C82DF91CF911F910F9108950895DD
:100DF000FC01308140E050E0242F4317C0F4CA01C9
:100E0000880F991FA381B481A80FB91F0D90BC91C1
:100E1000A02D12968D919C9113974F5F5F4F86176F
:100E2000970751F730E03283218381E0089580E015
:100E30000895AF92BF92CF92DF92EF92FF920F93FD
:100E40001F93CF93DF938C017B01FC01D080CC24D6
:100E5000C394CD0CA380B480CC2DD0E0CE01880FFC
:100E6000991FA114B10451F00E947617F7E0DF9E9C
:100E7000A0011124B5010E948B1905C00E947617AC
:100E8000F80194838383F801C082C150D048CC0F0D
:100E9000DD1F83819481C80FD91FF982E882F70191
:100EA00016830583DF91CF911F910F91FF90EF90F3
:100EB000DF90CF90BF90AF900895CF92DF92EF92E6
:100EC000FF920F931F93CF93DF936C017A018B01F5
:100ED000C0E0D0E0CE15DF0589F0D8016D918D011D
:100EE000D601ED91FC910190F081E02DC60119959C
:100EF000892B11F47E0102C02196ECCFC701DF914E
:100F0000CF911F910F91FF90EF90DF90CF900895B8
:100F1000FC01538D448D252F30E0842F90E0821BFF
:100F2000930B541710F0CF96089501970895FC0184
:100F3000918D828D981761F0828DDF01A80FB11D10
:100F40005D968C91928D9F5F9F73928F90E0089534
:100F50008FEF9FEF0895FC01918D828D981731F0EE
:100F6000828DE80FF11D858D90E008958FEF9FEF42
:100F70000895FC01918D228D892F90E0805C9F4F18
:100F8000821B91098F73992708958BE893E0F1DF15
:100F900021E0892B09F420E0822F0895FC01848D43
:100FA000DF01A80FB11DA35ABF4F2C91848D90E093
:100FB00001968F739927848FA689B7892C93A0896E
:100FC000B1898C9180648C93938D848D981306C025
:100FD0000288F389E02D80818F7D80830895EF92D0
:100FE000FF920F931F93CF93DF93EC0181E0888FE3
:100FF0009B8D8C8D981305C0E889F989808185FDCA
:1010000023C0F62E0B8D10E00F5F1F4F0F731127BB
:10101000E02E8C8DE8120BC00FB607FCFACFE889E2
:10102000F989808185FFF5CFCE01B8DFF2CF8B8DB6
:10103000FE01E80FF11DE35AFF4FF0820B8FEA89A2
:10104000FB898081806207C0EE89FF896083E8891F
:10105000F98980818064808381E090E0DF91CF9185
:101060001F910F91FF90EF900895CF93DF93EC01C4
:10107000888D8823C1F0EA89FB89808185FD05C0C0
:10108000A889B9898C9186FD0EC00FB607FCF5CFF3
:10109000808185FFF2CFA889B9898C9185FFEDCF3A
:1010A000CE017CDFE8CFDF91CF91089580E090E022
:1010B000892B19F06ADF811125C080E090E0892B2F
:1010C00041F080E090E0892B21F00E940000811126
:1010D0001CC080E090E0892B41F080E090E0892BFB
:1010E00021F00E940000811113C080E090E0892B64
:1010F000A1F080E090E0892B81F00E940000811136
:101100000AC008950E940000D8CF0E940000E1CFDD
:101110000E940000EACF0C940000089590E0FC01CA
:101120003197E231F10508F04EC08827EE58FF4FA5
:101130008F4F0C943817809180008F7703C0809177
:1011400080008F7D80938000089580918000877F4C
:10115000F9CF84B58F7702C084B58F7D84BD0895A3
:101160008091B0008F7703C08091B0008F7D809315
:10117000B0000895809190008F7707C08091900013
:101180008F7D03C080919000877F809390000895A9
:101190008091A0008F7707C08091A0008F7D03C051
:1011A0008091A000877F8093A00008958091200106
:1011B0008F7707C0809120018F7D03C0809120012F
:1011C000877F809320010895DC0126E0629FA00DB7
:1011D000B11D112490965C934E935F9721E09196F8
:1011E0002C939197FC01E459FF4F20813196019097
:1011F000F081E02D222331F0309749F0611107C0D2
:10120000DC0102C0309719F05C968C911994089516
:101210000E9487196115710579F0FB01019000208A
:10122000E9F73197AF01461B570BDC01ED91FC91BB
:101230000280F381E02D199480E090E008951F92E0
:101240000F920FB60F9211240BB60F922F933F936C
:101250004F935F936F937F938F939F93AF93BF93BE
:10126000EF93FF938BE893E099DEFF91EF91BF91AD
:10127000AF919F918F917F916F915F914F913F912E
:101280002F910F900BBE0F900FBE0F901F901895CF
:101290001F920F920FB60F9211240BB60F922F933D
:1012A0008F939F93EF93FF93E0919B03F0919C03A7
:1012B0008081E091A103F091A20382FD12C0908190
:1012C0008091A4038F5F8F732091A503821751F043
:1012D000E091A403F0E0E557FC4F958F8093A403C1
:1012E00001C08081FF91EF919F918F912F910F907D
:1012F0000BBE0F900FBE0F901F901895CF93DF93EA
:10130000282F30E0F901EA50FE4F8491F901E055B1
:10131000FE4FD491F901E659FE4FC491CC2389F0D8
:101320008111FCDEEC2FF0E0EE0FFF1FE05BFE4FC3
:10133000A591B491EC91ED2381E090E021F480E05F
:1013400002C080E090E0DF91CF910895862FD6CF44
:101350001F93CF93DF93282F30E0F901EA50FE4F1F
:101360008491F901E055FE4FD491F901E659FE4F01
:10137000C491CC23C1F0162F8111D0DEEC2FF0E008
:10138000EE0FFF1FEA5CFE4FA591B4918FB7F89462
:10139000111105C09C91ED2FE095E92302C0EC915D
:1013A000ED2BEC938FBFDF91CF911F91089590911A
:1013B000000298133DC0ECE3F2E0E4919FEF9093BC
:1013C0000002E230C9F050F4EE2399F0E13081F5EB
:1013D00090916F009D7F90936F002AC0E43019F1C7
:1013E000E0F0E53029F5909173009D7F90937300B4
:1013F0001FC010926E001CC0909170009D7F909352
:10140000700091E09093B0009091B100987F94604B
:101410009093B1001092B3000BC0909171009D7F2A
:101420009093710005C0909172009D7F909372001F
:1014300060E08ECF862F642F8BCFCF93DF93EC01AC
:1014400060E08E8185DF61E08E8182DF60E08E81E9
:101450007FDF8BE891E00197F1F7DF91CF9108955D
:10146000CF93DF9390E0FC01E055FE4F2491FC0107
:10147000E659FE4F8491882361F190E0880F991F0F
:10148000FC01E45EFE4FC591D491FC01EA5CFE4F85
:10149000A591B491611109C09FB7F89488812095F6
:1014A00082238883EC912E230BC0623061F49FB7B6
:1014B000F8943881822F809583238883EC912E2B9A
:1014C0002C939FBF06C08FB7F894E8812E2B2883FA
:1014D0008FBFDF91CF910895862F642FC1CF3FB783
:1014E000F8948091800390918103A0918203B09140
:1014F000830326B5A89B05C02F3F19F00196A11DB7
:10150000B11D3FBFBA2FA92F982F8827820F911D99
:10151000A11DB11DBC01CD0142E0660F771F881FE0
:10152000991F4A95D1F708952FB7F89460917C03DD
:1015300070917D0380917E0390917F032FBF08956A
:101540001F920F920FB60F9211242F933F938F93F8
:101550009F93AF93BF9380917C0390917D03A09163
:101560007E03B0917F0330917B0323E0230F2D375F
:1015700020F40196A11DB11D05C026E8230F029697
:10158000A11DB11D20937B0380937C0390937D0369
:10159000A0937E03B0937F03809180039091810399
:1015A000A0918203B09183030196A11DB11D809388
:1015B000800390938103A0938203B0938303BF9130
:1015C000AF919F918F913F912F910F900FBE0F90F0
:1015D0001F9018956F927F928F929F92AF92BF92B9
:1015E000CF92DF92EF92FF921F93CF93DF931F92E0
:1015F000CDB7DEB73C01162FFC0186E0689FE00DF9
:10160000F11D112411A2878D90A181309105E9F07F
:101610001CF4892B51F04BC08230910599F103974E
:1016200009F045C040E050E031C0442309F43FC018
:1016300041E050E0C301C8DD77DFF301E85AFF4F16
:10164000608371838283938332C049836DDFF301AA
:10165000E85AFF4FC080D180E280F3804B015C01EB
:101660008C189D08AE08BF08729680819181A0E019
:10167000B0E0498188159905AA05BB0518F442E038
:1016800050E004C0411113C043E050E0612FC3019A
:101690000F90DF91CF911F91FF90EF90DF90CF904F
:1016A000BF90AF909F908F907F906F908DCD0F9057
:1016B000DF91CF911F91FF90EF90DF90CF90BF907F
:1016C000AF909F908F907F906F900895CF92DF9210
:1016D000EF92FF920F931F93CF93DF937C016C01E6
:1016E00087E0C80ED11CC0E0D0E0062F10E0B801A2
:1016F0000C2E02C0759567950A94E2F76170F601A9
:1017000081916F0125DE2196C430D10581F7C70193
:10171000DF91CF911F910F91FF90EF90DF90CF90CD
:101720008CCECF92DF92EF92FF920F931F93CF93C5
:10173000DF93EC01F62E642F8C810ADE8D818F3FC2
:1017400011F060E005DE8F850F2D10E084FF23C0CF
:101750006E0187E0C80ED11CE12CF12CB8010E2CD3
:1017600002C0759567950A94E2F76170F601819160
:101770006F01EEDDFFEFEF1AFF0A88E0E816F104D3
:1017800069F7CE01DF91CF911F910F91FF90EF90FC
:10179000DF90CF9052CEB80184E0759567958A9519
:1017A000E1F7CE0193DF6F2DCE01DF91CF911F9135
:1017B0000F91FF90EF90DF90CF9088CF089580E059
:1017C00090E008950895089541E0ABDF81E090E056
:1017D00008950F931F93CF93DF93EC018B018885BE
:1017E00099850297D9F46130710569F024F4672B6B
:1017F000A9F460E009C06230710551F063307105F1
:1018000069F460E006C061E08C85A2DD61E004C09F
:1018100061E08C859DDD60E08E859ADD8885998507
:10182000049771F501301105A1F044F4011511057B
:1018300039F561E08C858CDD60E00FC00230110568
:1018400099F003301105E1F461E08C8581DD60E001
:101850000FC060E08C857CDD61E08E8579DD61E024
:10186000888976DD60E00AC060E08C8571DD61E02A
:101870008E856EDD60E088896BDD61E08A8968DDD8
:1018800088859985059709F060C00A30110508F030
:101890005CC0F8018827EC57FF4F8F4F0C94381726
:1018A00060E08C8555DD61E041C060E08C8550DDF5
:1018B00061E08E854DDD60E03CC060E08C8548DDF8
:1018C00061E08E8545DD60E0888942DD61E034C0FD
:1018D00060E001C061E08C853BDD61E004C061E057
:1018E0008C8536DD60E08E8533DD60E007C061E029
:1018F0008C852EDD60E08E852BDD61E0888928DD1A
:1019000061E00AC061E08C8523DD60E08E8520DD2A
:1019100061E088891DDD60E08A891ADD60E00FC022
:1019200061E001C060E08C8513DD60E08E8510DD34
:1019300061E088890DDD60E08A890ADD61E08C89DB
:10194000DF91CF911F910F9103CDDF91CF911F9127
:101950000F9108952F923F924F925F926F927F92D4
:101960008F929F92AF92BF92CF92DF92EF92FF92AF
:101970000F931F93CF93DF93CDB7DEB72E970FB69C
:10198000F894DEBF0FBECDBF9E878D878A579F4FCD
:101990009A83898381E0A981BA818C93C5DD2D85E5
:1019A0003E852A583F4F3C832B83D9010D911D91D1
:1019B0002D913C91AB01BC01401B510B620B730B91
:1019C000ED85FE85EE57FF4F80819181A0E0B0E06C
:1019D00084179507A607B70708F07CC1ED84FE843D
:1019E000BAE1EB0EF11C10E02D843E84E0E82E0EEF
:1019F000311CCD84DE84FCE7CF0ED11CD1018C914B
:101A00001817A8F4AD85BE855A968D919C915B9769
:101A1000F601A081B181A10FB11DFC0120813181AE
:101A200042E06C91C701F90119951F5FE7CFD12CF6
:101A30002D853E852F573F4F3E832D83AD84BE8439
:101A40003EE7A30EB11C412C512C320143942D854D
:101A50003E8524583F4F38872F83ED81FE8180815A
:101A6000D81608F08FC08D2C912CAD85BE855A9666
:101A70008D919C915B97F501A081B181A80DB91D55
:101A8000FC012081318141E06C91C701F901199578
:101A9000AD85BE855A968D919C915B97F501A0818D
:101AA000B181A80DB91DFC012281338140E06C9108
:101AB000C701F9011995D301C2010D2C04C0880F8B
:101AC000991FAA1FBB1F0A94D2F7AC019C01209555
:101AD0003095C12CF1018081AD85BE855A96ED917E
:101AE000FC915B97C81660F50C2D10E0AF81B885AE
:101AF0008D919C91DC01A00FB11F0480F581E02D38
:101B00006C91C7012B873C8749875A871995000F2D
:101B1000111F2B853C8549855A85ED85FE85E00F93
:101B2000F11F892B29F482A193A1842B952B04C04A
:101B300082A193A18223932393A382A3C394CACFA8
:101B4000D5018D919C91DC01A80DB91D0280F38116
:101B5000E02D41E06C91C7011995AD85BE855A967F
:101B6000ED91FC915B97D5018D919C91DC01A80DC5
:101B7000B91D0190F081E02D40E06C91C7011995ED
:101B8000D3946BCF0D851E850A5C1F4F8D859E8576
:101B90008E589F4FF8012FEF3FEF43815481452B23
:101BA00021F410823283218315823696E817F907D3
:101BB000A1F7912CCD84DE84FAE7CF0ED11CAD8441
:101BC000BE8427E3A20EB11C86E0882EF10180813D
:101BD000981608F057C0712C4D845E84490C511C36
:101BE000490C511C32E2430E511CAD81BE818C91D7
:101BF000781608F045C0D2014D915C91072C02C0C7
:101C0000569547950A94E2F741705527989EC00172
:101C10001124870D911DD601ED91FC91E80FF91F5C
:101C2000A081F50160E0208131812817390711F486
:101C300041701BC06F5F36966A30A9F7452BF1F0F3
:101C4000F80160E070E02081211112C0869EF00151
:101C5000879EF00D11242D853E85E20FF31FA6AB64
:101C600090AF87AB12AE11AE41E0C701B3DC06C046
:101C70006F5F7F4F36966A30710529F77394B5CF41
:101C80009394A4CFED85FE85FB968D859E8589581E
:101C90009F4F10E02081211111E03696E817F907D7
:101CA000C9F742DCAB81BC816D937D938D939C938E
:101CB0001397112379F0ED85FE8583AD882351F0CC
:101CC00081AD92AD8130910529F426A92A3209F41B
:101CD00048C004C0A981BA811C921AC02332D9F02D
:101CE0002134E1F02434E9F02033F1F02133F9F02C
:101CF000223301F1233309F1243311F1253319F192
:101D0000263321F1273329F1283331F1293339F1F1
:101D100080E090E026C082E090E023C083E090E085
:101D200020C084E090E01DC085E090E01AC086E00D
:101D300090E017C087E090E014C088E090E011C008
:101D400089E090E00EC08AE090E00BC08BE090E06C
:101D500008C08CE090E005C08DE090E002C08EE00D
:101D600090E02E960FB6F894DEBF0FBECDBFDF9188
:101D7000CF911F910F91FF90EF90DF90CF90BF9088
:101D8000AF909F908F907F906F905F904F903F901B
:101D90002F9008950C940B180C940B182F923F92CF
:101DA0004F925F926F927F928F929F92AF92BF926B
:101DB000CF92DF92EF92FF920F931F93CF93DF9317
:101DC000CDB7DEB7A8970FB6F894DEBF0FBECDBF74
:101DD000FC0187819085892B09F465C181859285F5
:101DE000892B09F460C183859485009709F45BC150
:101DF00025853685232B09F456C18F01DC01ED9131
:101E0000FC910190F081E02D1995D8011F96ED917C
:101E1000FC915097808172DA892B09F07AC0D80141
:101E200058968C91811102C0F801178A81E0D8017F
:101E300058968C93F8018481882309F455C0E78073
:101E4000F084818D882319F042E153E002C04DE116
:101E500053E060E0C7010E944402D80152969C9171
:101E6000529751962C91519754969C905497539613
:101E70008C9084E16E01B5E1CB0ED11CF601382FB8
:101E800011923A95E9F7AE014F5F5F4F5A01DA01BF
:101E90001D928A95E9F71F922F931F929F938FE2CD
:101EA00093E09F938F93DF92CF920E94AA191F9283
:101EB0008F921F929F9280E493E09F938F93BF92A3
:101EC000AF920E94AA19A60161E0C7010E944402D4
:101ED000A50162E0C7010E944402F80114820FB616
:101EE000F894DEBF0FBECDBFD80159968C9159979B
:101EF0008111D9C01D96ED90FC901E9758968C913B
:101F00005897882309F4CFC057968C918111CBC084
:101F100003C0F801108E8ECF81E0D80157968C93C4
:101F2000579752963C90529751965C905197549681
:101F30002C90549753964C905397F70140815596A7
:101F40008D919C915697489F9001499F300D112487
:101F50004281429FC001439F900D112468E671E0C9
:101F600058D76B01072E000C880B990BEFD64B014D
:101F70005C0120E030E0A90148D7181624F0D50113
:101F8000C401B05802C0D501C401F701868397830C
:101F9000A087B187E284F3845601D7FE04C0AA2447
:101FA000BB24AC18BD081C141D0434F481E090E07F
:101FB000D7018D939C9305C0CD2819F0F7011182AC
:101FC000108284E0C82ED12CA114B10409F454C0AD
:101FD00086DAD70156962D913D914D915C91599796
:101FE0003B014C01621A730A840A950A12962D91DC
:101FF0003D914D915C911597621673068406950686
:1020000018F3F701668B778B808F918F2081318158
:10201000828593852130310559F401969387828713
:10202000268137818217930779F4138612860CC0B4
:10203000892B21F48681978193878287F701828596
:102040009385019793878287F1E0AF1AB108D70192
:1020500018962D913C9119971A968D919C911B97EA
:102060002530310519F46AE070E001C0B601D1D61F
:10207000BC01C701AEDBA8CF99249394930C5914EB
:1020800080F488248394820C81E0481418F4F801C9
:10209000818F09C0D80152968C93529754968C9296
:1020A00002C0F801928AA8960FB6F894DEBF0FBE60
:1020B000CDBFDF91CF911F910F91FF90EF90DF90F7
:1020C000CF90BF90AF909F908F907F906F905F90D8
:1020D0004F903F902F900895EF92FF920F931F9390
:1020E000CF93DF93EC018AE190E000D7FC01288DCB
:1020F000398D4E895F896A897B89AC89BD89088958
:10210000198981E0848390E5E92E93E0F92EF3822A
:10211000E2821682158293E3E92E92E0F92EF18293
:10212000E082878B108E118E10870783B287A1877C
:102130007487638756874587308B278796E0918B16
:1021400092E0938B828B848B8CE390E0968B858BD3
:10215000BF018D819E810E94190760E573E08D812A
:102160009E81DF91CF911F910F91FF90EF900C9482
:10217000F80640E0D6CAFC01443008F043E0838909
:10218000481710F04FEF480FDF01A40FB11D549610
:102190009C91690F6068CF01ECCF0895EF92FF9298
:1021A0000F931F93CF93DF93EC01423018F08F858C
:1021B00088608F874B8B1C8A80E48D8B6E8B70E0E0
:1021C000605C7F4F6F8B61E08C814AD98D818F3F3E
:1021D00011F061E045D961E08E8142D97E0187E04E
:1021E000E80EF11C00E010E08F8584FD03C084E060
:1021F00090E002C088E090E00817190744F461E01D
:10220000F70181917F012CD90F5F1F4FEDCF8BE339
:102210009DE00197F1F760E08C819AD860E08E81B3
:1022200097D88D818F3F11F060E092D86F8564FD63
:1022300019C063E0CE014ADA0BE416E4C801019745
:10224000F1F763E0CE0142DAC8010197F1F763E0EC
:10225000CE013CDA83E592E00197F1F762E0CE012E
:1022600035DA13C06062CE0184DF8BE496E4019717
:10227000F1F76F856062CE017CDF83E592E0019724
:10228000F1F76F856062CE0174DF6F856062CE0109
:1022900070DF84E0888B6CE0CE016BDF61E0CE0103
:1022A00068DF8BE39FE10197F1F782E0898B66E0BD
:1022B000CE01DF91CF911F910F91FF90EF9059CFF9
:1022C0008F929F92AF92BF92CF92DF92EF92FF9246
:1022D00006D94B015C0180E5C82ED12CE12CF12CF4
:1022E000FED8DC01CB0188199909AA09BB09883EEF
:1022F0009340A105B10558F021E0C21AD108E108C8
:10230000F10888EE880E83E0981EA11CB11CC11450
:10231000D104E104F10421F7FF90EF90DF90CF901A
:10232000BF90AF909F908F900895EF92FF920F9380
:102330001F93CF93DF93EC017B018A018881998100
:10234000009729F02A813B8124173507E8F4B8016A
:102350006F5F7F4FF8D6009759F0998388831B836E
:102360000A832C813D81232B79F4FC0110820CC05F
:1023700088819981009709F04ED6198218821D82B2
:102380001C821B821A8206C01D830C83B7018881C0
:102390009981CAD7CE01DF91CF911F910F91FF9004
:1023A000EF9008951F920F920FB60F9211240BB663
:1023B0000F922F933F934F935F936F937F938F93DE
:1023C0009F93AF93BF93EF93FF9380918703909177
:1023D0008803A0918903B0918A03892B8A2B8B2BC8
:1023E00051F180918603E0918403F09185039081FF
:1023F000892780838091870390918803A091890326
:10240000B0918A03181619061A061B06C4F48091A7
:10241000870390918803A0918903B0918A03019763
:10242000A109B1098093870390938803A09389033E
:10243000B0938A0304C0809100020E94D709FF91E3
:10244000EF91BF91AF919F918F917F916F915F912C
:102450004F913F912F910F900BBE0F900FBE0F9099
:102460001F901895CF93DF93C091F204D091F3049D
:10247000209729F08A859B85CED5CE01CCD5809139
:10248000F4049091F504C7D5C0E02091F604809142
:10249000F9049091FA04C21790F4FC01EC0FF11DBD
:1024A000EC0FF11D80819181009739F0DC01ED91F5
:1024B000FC910280F381E02D1995CF5FE6CF009764
:1024C00009F0A9D58091DA049091DB04DF91CF91D6
:1024D000A2C5789484B5826084BD84B5816084BDD2
:1024E00085B5826085BD85B5816085BD80916E00B2
:1024F000816080936E0010928100809181008260E3
:10250000809381008091810081608093810080911F
:1025100080008160809380008091B100846080930E
:10252000B1008091B00081608093B00080919100F3
:1025300082608093910080919100816080939100EE
:10254000809190008160809390008091A1008260D2
:102550008093A1008091A10081608093A10080916F
:10256000A00081608093A00080912101826080930F
:1025700021018091210181608093210180912001BE
:1025800081608093200180917A00846080937A003A
:1025900080917A00826080937A0080917A008160D5
:1025A00080937A0080917A00806880937A001092FC
:1025B000C100E0919B03F0919C03C2E0C083E091D5
:1025C0009703F09198031082E0919903F0919A0398
:1025D0008FEC80831092A303E0919F03F091A003FE
:1025E00086E08083E0919D03F0919E03808180616D
:1025F0008083E0919D03F0919E03808188608083B9
:10260000E0919D03F0919E03808180688083E0913A
:102610009D03F0919E0380818F7D808383E190E014
:1026200065D48C0177247394DC0114967C92149702
:1026300088EB92E013969C938E93129716961C92B9
:102640001E9215978FE192E011969C938E938EEBDC
:1026500092E01C969C938E931B978AEC92E01E96B8
:102660009C938E931D9781ED92E050969C938E9350
:102670001F9781EE92E052969C938E93519758E269
:10268000852E54E0952E18969C928E9217976BE4A7
:10269000A62E64E0B62E1A96BC92AE9219978FE0E1
:1026A00090E024D46C01FC01748282EF92E0938369
:1026B00082831682158275E1472E72E0572E518271
:1026C000408290868782B286A186C38780E2848713
:1026D00084E08587C6878FE090E008D47C01DC0128
:1026E00014967C92149788EF92E013969C938E93A5
:1026F000129716961C921E92159711965C924E9206
:1027000018969C928E9217971A96BC92AE92199731
:102710001B967C921B9780E11C968C931C971D96B0
:102720007C921D971E967C928AE190E0DFD3EC01AB
:102730008091F4049091F5042091F2043091F30417
:102740007C824EEF52E05B834A831E821D824BE007
:1027500052E0598348837E861F86998A888ABB8A7D
:10276000AA8A4AED54E05D8B4C8B3F8B2E8B998F60
:10277000888F83E08D8784E190E0B8D323E030E058
:10278000FC01219331933F015F014C01F4E18F0E75
:10279000911CD50111961C921E9213961C921E92AA
:1027A000129715961C921E92149740E050E067E92C
:1027B00072E0C501BADDB6E0AB0EB11CA814B904D5
:1027C00041F778866F828D8590E0880F991F8ED3B0
:1027D0009A87898786E090E089D39C878B8720E061
:1027E0008D85281798F4822F90E0880F991FE9852E
:1027F000FA85E80FF91F118210824B855C85FA017A
:10280000E80FF91F118210822F5FEACFA60160E066
:10281000CE010E949601A70161E0CE010E949601BF
:102820008D85833070F08F8198854AE050E067E0B5
:1028300073E00C967ADDEB85FC858CE690E1958360
:102840008483B80186EF94E00E941907BE0186EFE9
:1028500094E00E94190768EB72E086EF94E00E9412
:10286000F8068091F7049091F8048F3FEFEF9E07F0
:1028700089F02091F60430E0821793075CF4880F0A
:10288000991FE091F904F091FA04E80FF91F808193
:10289000918102C080E090E0DC01ED91FC91048028
:1028A000F581E02D19950E945608DBCFAF92BF92BB
:1028B000CF92DF92EF92FF920F931F93CF93DF930C
:1028C00010928E0310928D0388EE93E0A0E0B0E0AA
:1028D00080938F0390939003A0939103B0939203FE
:1028E00085E692E090938C0380938B0385EC90E0D7
:1028F000909398038093970384EC90E090939A03CD
:102900008093990380EC90E090939C0380939B03C9
:1029100081EC90E090939E0380939D0382EC90E085
:102920009093A00380939F0386EC90E09093A20382
:102930008093A1031092A4031092A5031092A60302
:102940001092A70310922B0410922A0487E792E0BA
:10295000909329048093280486E180932C048FEFC0
:1029600080932D0488E180932E048AE180932F04C4
:102970008CE1809330048EE18093310480E2809377
:1029800032041092330410923404109235041092E1
:1029900036041092370441E060E188E294E0FEDB07
:1029A00084E18093400484E08093410481E080933B
:1029B000420488E0E9E3F2E0A3E4B4E001900D9280
:1029C0008A95E1F744E064E188E294E0E7DB8DE892
:1029D00092E090934C0480934B0482E380934D04E7
:1029E00080E380934E048EE280934F048CE28093C8
:1029F00050048AE28093510488E28093520486E274
:102A00008093530484E28093540480E1E1E4F2E093
:102A1000A5E5B4E001900D928A95E1F71092670464
:102A200010926B0410926A0410926C0483E892E096
:102A3000909366048093650420E030E0C901885DCE
:102A40009B4FFC01E75AFF4F108233961182108290
:102A5000329610822A5F3F4F2C33310579F78DE48F
:102A600094E09093C8048093C70481E594E0909328
:102A7000CA048093C90484E08093CB048093CC047F
:102A800085E594E09093C6048093C5048AE090E0C5
:102A90009093CE048093CD0484EF91E09093D00482
:102AA0008093CF041092D3041092D2041092C104E8
:102AB0001092C2041092C3041092C4041092D10464
:102AC00003E912E01093D5040093D404C4E3C09347
:102AD000D60461E084E30E94300A1093D804009386
:102AE000D704C093D90461E084E30E94300A83E2F2
:102AF00090E09093DD048093DC0485E290E0909375
:102B0000DF048093DE0480E1E1E5F2E0A0EEB4E0D2
:102B100001900D928A95E1F709E010E01093F1041D
:102B20000093F00484E390E0E1D1EC011FA70EA72D
:102B30008FE390E0998F888F86E090E09B8F8A8F5B
:102B40008BE590E09D8F8C8F8FE490E09F8F8E8F30
:102B500086E690E099A388A38DE690E09BA38AA3E4
:102B60008DE790E09DA38CA387E090E09FA38EA3C8
:102B70008FE790E099A788A78FE690E09BA78AA7A8
:102B800080E890E09DA78CA782E090E099AB88ABAD
:102B90009CEDE92E94E0F92E8E01C12CD12C88A950
:102BA00099A9C816D906BCF4F70180819181F2E099
:102BB000EF0EF11CF8018083918361E00E94300ADE
:102BC00060E0F80180810E5F1F4F0E94A809FFEFAF
:102BD000CF1ADF0AE4CF88E090E09BAB8AAB80EEAF
:102BE000E82E84E0F82E8E01085F1F4FC12CD12CF7
:102BF0008AA99BA9C816D906BCF4F70180819181E6
:102C0000F2E0EF0EF11CF8018083918361E00E94F5
:102C1000300A61E0F80180810E5F1F4F0E94A80911
:102C2000FFEFCF1ADF0AE4CFD093DB04C093DA04BE
:102C30001092F6048FEF9FEF9093F8048093F704BF
:102C40001092FA041092F9048DE090E04FD18C01BB
:102C500088ECF801808388E78183BB24B394B28237
:102C600086E0838383E0848388E085838AE190E043
:102C70003DD1EC011B861A86198218821E8A1F8A92
:102C8000188E198E88EC90E09F838E8386E090E00A
:102C90009D878C8783E090E09F878E8761E086E048
:102CA0000E94300A61E08E850E94300A198A188AD3
:102CB0001B8A1A8A1D8A1C8A82E090E0998788877D
:102CC000F801D387C2872E813F81032E000C440B6D
:102CD000550B60E077E883E993E0AED0F801C1805E
:102CE000D12CE12CF12CCA01B901A7019601A4D085
:102CF0002A833B834C835D8361E0F80185810E94D8
:102D0000300A60E0F80185810E94A809F801B486C4
:102D10001093F3040093F20481E090E0E7D0EC011B
:102D20008AE0888362E00E94300AD093F504C09361
:102D3000F404DF91CF911F910F91FF90EF90DF90FE
:102D4000CF90BF90AF900895E89409C097FB3EF4F0
:102D500090958095709561957F4F8F4F9F4F9923E8
:102D6000A9F0F92F96E9BB279395F6958795779566
:102D70006795B795F111F8CFFAF4BB0F11F460FF26
:102D80001BC06F5F7F4F8F4F9F4F16C0882311F07E
:102D900096E911C0772321F09EE8872F762F05C092
:102DA000662371F096E8862F70E060E02AF09A952D
:102DB000660F771F881FDAF7880F9695879597F922
:102DC0000895990F0008550FAA0BE0E8FEEF1616BC
:102DD0001706E807F907C0F012161306E407F5070F
:102DE00098F0621B730B840B950B39F40A2661F083
:102DF000232B242B252B21F408950A2609F4A14026
:102E0000A6958FEF811D811D0895DBDF08F48FEFFC
:102E1000089597FB072E16F4009406D077FD08D08E
:102E20002FD007FC05D03EF4909581959F4F0895D3
:102E3000709561957F4F0895052E97FB16F40094C9
:102E40000FD057FD05D030D007FC02D046F408C0A3
:102E500050954095309521953F4F4F4F5F4F0895C6
:102E600090958095709561957F4F8F4F9F4F0895F6
:102E7000EE0FFF1F881F8BBF0790F691E02D19946E
:102E8000AA1BBB1B51E107C0AA1FBB1FA617B70790
:102E900010F0A61BB70B881F991F5A95A9F78095AC
:102EA0009095BC01CD010895A1E21A2EAA1BBB1B6F
:102EB000FD010DC0AA1FBB1FEE1FFF1FA217B30706
:102EC000E407F50720F0A21BB30BE40BF50B661F1C
:102ED000771F881F991F1A9469F7609570958095E0
:102EE00090959B01AC01BD01CF010895CF93DF9375
:102EF0008230910510F482E090E0E091FD04F091C1
:102F0000FE0420E030E0C0E0D0E0309711F14081D5
:102F1000518148175907C0F04817590761F4828159
:102F20009381209719F09B838A832BC09093FE0492
:102F30008093FD0426C02115310519F0421753076F
:102F400018F49A01BE01DF01EF010280F381E02D48
:102F5000DCCF2115310509F1281B390B243031054F
:102F600090F412968D919C9113976115710521F043
:102F7000FB019383828304C09093FE048093FD043D
:102F8000FD01329644C0FD01E20FF31F819391933E
:102F9000225031092D933C933AC02091FB0430918B
:102FA000FC04232B41F4209103023091040230935E
:102FB000FC042093FB0420910102309102022115B0
:102FC000310541F42DB73EB74091050250910602FC
:102FD000241B350BE091FB04F091FC04E217F3078E
:102FE000A0F42E1B3F0B2817390778F0AC014E5F79
:102FF0005F4F2417350748F04E0F5F1F5093FC04B6
:103000004093FB048193919302C0E0E0F0E0CF0194
:10301000DF91CF9108950F931F93CF93DF93009784
:1030200009F48CC0FC013297138212820091FD04D6
:103030001091FE040115110581F420813181820F68
:10304000931F2091FB043091FC042817390779F570
:10305000F093FC04E093FB0471C0D80140E050E021
:10306000AE17BF0750F412962D913C911397AD0106
:103070002115310509F1D901F3CF9D01DA0133831F
:10308000228360817181860F971F8217930769F4ED
:10309000EC0128813981260F371F2E5F3F4F318386
:1030A00020838A819B8193838283452B29F4F0932B
:1030B000FE04E093FD0442C01396FC93EE93129736
:1030C000ED01499159919E01240F351FE217F30735
:1030D00071F480819181840F951F029611969C93C3
:1030E0008E938281938113969C938E931297E0E046
:1030F000F0E0D80112968D919C911397009719F0EA
:10310000F8018C01F6CF8D919C9198012E5F3F4F75
:10311000820F931F2091FB043091FC04281739077C
:1031200069F4309729F41092FE041092FD0402C055
:10313000138212821093FC040093FB04DF91CF9161
:103140001F910F9108956F927F928F929F92AF92ED
:10315000BF92CF92DF92EF92FF920F931F93CF9384
:10316000DF93EC01009781F4CB01DF91CF911F91A8
:103170000F91FF90EF90DF90CF90BF90AF909F9016
:103180008F907F906F90B2CEFC01E60FF71F9C01ED
:1031900022503109E217F30708F4A8C0D9010D91B4
:1031A0001C91119706171707A8F00530110508F4B0
:1031B0009BC0C80104978617970708F495C0025072
:1031C0001109061B170B019311936D937C93CF018B
:1031D00022DF8AC05B01A01AB10A4C01800E911E49
:1031E000A091FD04B091FE0440E050E0E12CF12CF0
:1031F000109709F44AC0A815B905D1F56D907C90D7
:103200001197630182E0C80ED11CCA14DB0480F15F
:10321000A3014A195B096A0182E0C80ED11C12960B
:10322000BC9012971396AC91B5E0CB16D10440F048
:10323000B282A38351834083D9016D937C930AC0EA
:103240000E5F1F4FC301800F911FF901918380838F
:10325000EB2DFA2FE114F10431F0D7011396FC9312
:10326000EE93129741C0F093FE04E093FD043CC03E
:103270008D919C9111974817590708F4AC017D0175
:1032800012960D90BC91A02DB3CF8091FB0490912C
:10329000FC0488159905E1F446175707C8F4809196
:1032A000010290910202009741F48DB79EB74091C0
:1032B000050250910602841B950BE817F907B0F43C
:1032C000F093FC04E093FB04F901718360830CC06C
:1032D000CB010CDE7C01009749F0A801BE011BD098
:1032E000CE0199DEC70104C0CE0102C080E090E0AB
:1032F000DF91CF911F910F91FF90EF90DF90CF90D2
:10330000BF90AF909F908F907F906F90089581E0D5
:1033100090E0F894E8C2FB01DC0102C001900D923C
:1033200041505040D8F70895FB01DC0101900D9207
:103330000020E1F70895FB01DC014150504048F0C6
:1033400001900D920020C9F701C01D9241505040DC
:10335000E0F708950F931F93CF93DF93CDB7DEB7B8
:103360002E970FB6F894DEBF0FBECDBF0E891F8912
:1033700086E08C831A8309838FEF9FE79E838D837A
:10338000AE01465E5F4F688D798DCE01019611D0FA
:103390002F813885F801E20FF31F10822E960FB6A9
:1033A000F894DEBF0FBECDBFDF91CF911F910F917B
:1033B00008952F923F924F925F926F927F928F92D9
:1033C0009F92AF92BF92CF92DF92EF92FF920F93B4
:1033D0001F93CF93DF93CDB7DEB72C970FB6F8943A
:1033E000DEBF0FBECDBF7C016B018A01FC011782DD
:1033F0001682838181FFB0C1CE0101964C01F70195
:103400009381F60193FD859193FF81916F0188234C
:1034100009F49EC1853239F493FD859193FF819122
:103420006F01853221F4B70190E0C7D1E8CF512C6C
:10343000312C20E02032A0F48B3269F030F480325D
:1034400059F0833269F420612CC08D3239F0803319
:1034500039F4216026C02260246023C0286021C086
:1034600027FD27C030ED380F3A3078F426FF06C02C
:10347000FAE05F9E300D1124532E13C08AE0389E6F
:10348000300D1124332E20620CC08E3221F426FD23
:103490005FC1206406C08C3611F4206802C08836F3
:1034A00041F4F60193FD859193FF81916F018111A4
:1034B000C1CF982F9F7D9554933028F40C5F1F4FF8
:1034C000FFE3F9830DC0833631F0833771F0833524
:1034D00009F057C021C0F801808189830E5F1F4F1A
:1034E00044244394512C540114C03801F2E06F0E6F
:1034F000711CF801A080B18026FF03C0652D70E02B
:1035000002C06FEF7FEFC5012C874CD12C018301E6
:103510002C852F77222E16C03801F2E06F0E711C19
:10352000F801A080B18026FF03C0652D70E002C0C5
:103530006FEF7FEFC5012C872AD12C012C852068E5
:10354000222E830123FC19C0832D90E048165906D2
:10355000A0F4B70180E290E030D13A94F5CFF501C4
:1035600027FC859127FE81915F01B70190E025D16D
:1035700031103A94F1E04F1A51084114510479F78F
:10358000DEC0843611F0893631F5F80127FF07C017
:1035900060817181828193810C5F1F4F08C06081BF
:1035A0007181072E000C880B990B0E5F1F4F2F7631
:1035B000722E97FF09C090958095709561957F4F09
:1035C0008F4F9F4F2068722E2AE030E0A4012DD14A
:1035D000A82EA81843C0853729F42F7EB22E2AE0E2
:1035E00030E025C0F22FF97FBF2E8F36C1F018F4DE
:1035F000883579F0ADC0803719F0883721F0A8C040
:103600002F2F2061B22EB4FE0DC08B2D8460B82EFA
:1036100009C024FF0AC09F2F9660B92E06C028E07B
:1036200030E005C020E130E002C020E132E0F801E6
:10363000B7FE07C060817181828193810C5F1F4F4B
:1036400006C06081718180E090E00E5F1F4FA40191
:10365000ECD0A82EA818FB2DFF777F2E76FE0BC08E
:10366000372D3E7FA51450F474FE0AC072FC08C0CA
:10367000372D3E7E05C0BA2C372D03C0BA2C01C0B1
:10368000B52C34FF0DC0FE01EA0DF11D80818033A1
:1036900011F4397E09C032FF06C0B394B39404C05C
:1036A000832F867809F0B39433FD12C030FF06C033
:1036B0005A2CB31418F4530C5B18B32CB31460F4E5
:1036C000B70180E290E03C8778D0B3943C85F6CF98
:1036D000B31410F43B1801C0312C34FF11C0B701F2
:1036E00080E390E03C8769D03C8532FF16C031FD15
:1036F00003C088E790E002C088E590E0B7010CC005
:10370000832F867851F031FF02C08BE201C080E246
:1037100037FD8DE2B70190E050D0A51430F4B70129
:1037200080E390E04AD05A94F8CFAA94F401EA0DCD
:10373000F11D8081B70190E040D0A110F6CF332079
:1037400009F45DCEB70180E290E037D03A94F7CF2C
:10375000F7018681978102C08FEF9FEF2C960FB6FD
:10376000F894DEBF0FBECDBFDF91CF911F910F91B7
:10377000FF90EF90DF90CF90BF90AF909F908F9091
:103780007F906F905F904F903F902F900895FC0135
:103790000590615070400110D8F7809590958E0F7C
:1037A0009F1F0895FC016150704001900110D8F7EF
:1037B000809590958E0F9F1F08950F931F93CF9321
:1037C000DF93FB01238121FD03C08FEF9FEF28C012
:1037D00022FF16C046815781248135814217530745
:1037E00044F4A081B1819D012F5F3F4F318320833D
:1037F0008C93268137812F5F3F4F3783268310C0FC
:10380000EB01092F182F0084F185E02D1995892BE4
:10381000E1F68E819F8101969F838E83812F902F69
:10382000DF91CF911F910F910895FA01AA272830B7
:1038300051F1203181F1E8946F936E7F6E5F7F4F7D
:103840008F4F9F4FAF4FB1E03ED0B4E03CD0670FF9
:10385000781F891F9A1FA11D680F791F8A1F911D4C
:10386000A11D6A0F711D811D911DA11D20D009F49C
:1038700068943F912AE0269F11243019305D3193DE
:10388000DEF6CF010895462F4770405D4193B3E0C7
:103890000FD0C9F7F6CF462F4F70405D4A3318F06E
:1038A000495D31FD4052419302D0A9F7EACFB4E01F
:1038B000A6959795879577956795BA95C9F70097D7
:1038C0006105710508959B01AC010A2E0694579578
:1038D000479537952795BA95C9F7620F731F841FCF
:1038E000951FA01D089511E0C0E2D1E000E005C0E1
:1038F000802FFE01BDDA2196011DC132D10780E083
:083900000807B1F7F894FFCFAE
:10390800FF0000FF04800000000000EC013B027A89
:103918000200000000CD10CA0EE20B00000000F704
:10392800065401BB06000000000000000008090062
:10393800000000E30BCC0ECE0E00130013001300A2
:10394800133132334134353642373839432A30233C
:10395800442900270017001D001B0021001F001923
:103968000000000000EF075D0788073508B90797D2
:1039780007AB0700000000E40B5D07DF0BDE0B0060
:103988000000006C0A1A0AA60900000000AA0C0030
:1039980000000053010D0A002D20005E002A2000BF
:1039A80049005600546970206D657373616765201E
:1039B800746F206564697400696E74726F0053488F
:1039C800415250204D4554414C00484F502D3135FF
:1039D8000053594C574553544552204D494C4F5369
:1039E80000574349534E494A2050525A5943495364
:1039F8004B0050696F72610043796B6C65006D61B3
:103A0800696E4D656E7500526F7A706F637A6E6974
:103A18006A005A616B6FF1637A6F6E6F0050727A49
:103A280065747761727A616E6965202E2E2E00505A
:103A3800696F726F206E72202564207A20256400D9
:103A480043796B6C206E72202564207A20256400EF
:083A580050726F6772616D008E
:020000023000CC
:10E000000D9489F10D94B2F10D94B2F10D94B2F129
:10E010000D94B2F10D94B2F10D94B2F10D94B2F1F0
:10E020000D94B2F10D94B2F10D94B2F10D94B2F1E0
:10E030000D94B2F10D94B2F10D94B2F10D94B2F1D0
:10E040000D94B2F10D94B2F10D94B2F10D94B2F1C0
:10E050000D94B2F10D94B2F10D94B2F10D94B2F1B0
:10E060000D94B2F10D94B2F10D94B2F10D94B2F1A0
:10E070000D94B2F10D94B2F10D94B2F10D94B2F190
:10E080000D94B2F10D94B2F10D94B2F10D94B2F180
:10E090000D94B2F10D94B2F10D94B2F10D94B2F170
:10E0A0000D94B2F10D94B2F10D94B2F10D94B2F160
:10E0B0000D94B2F10D94B2F10D94B2F10D94B2F150
:10E0C0000D94B2F10D94B2F10D94B2F10D94B2F140
:10E0D0000D94B2F10D94B2F10D94B2F10D94B2F130
:10E0E0000D94B2F141546D656761323536300041AF
:10E0F000726475696E6F206578706C6F72657220DE
:10E1000073746B3530305632206279204D4C530099
:10E11000426F6F746C6F616465723E004875683F52
:10E1200000436F6D70696C6564206F6E203D200048
:10E130004350552054797065202020203D20005FF9
:10E140005F4156525F415243485F5F3D2000415658
:10E1500052204C696243205665723D20004743437C
:10E160002056657273696F6E203D20004350552024
:10E1700049442020202020203D20004C6F7720663D
:10E18000757365202020203D20004869676820665F
:10E190007573652020203D200045787420667573D6
:10E1A00065202020203D20004C6F636B2066757336
:10E1B000652020203D20004D617220203720323024
:10E1C000313300312E362E3800342E332E350056A2
:10E1D00023202020414444522020206F7020636F70
:10E1E00064652020202020696E73747275637469E1
:10E1F0006F6E2061646472202020496E74657272B3
:10E20000757074006E6F20766563746F7200726A49
:10E210006D702020006A6D70200057686174207056
:10E220006F72743A00506F7274206E6F7420737541
:10E2300070706F72746564004D7573742062652030
:10E2400061206C6574746572002000577269747483
:10E25000696E672045450052656164696E672045B7
:10E26000450045452065727220636E743D00504F35
:10E27000525400303D5A65726F2061646472003FF1
:10E280003D43505520737461747300403D454550C3
:10E29000524F4D207465737400423D426C696E6B41
:10E2A000204C454400453D44756D70204545505215
:10E2B0004F4D00463D44756D7020464C415348001B
:10E2C000483D48656C70004C3D4C69737420492F83
:10E2D0004F20506F72747300513D51756974005234
:10E2E0003D44756D702052414D00563D73686F7707
:10E2F00020696E7465727275707420566563746FF0
:10E30000727300593D506F727420626C696E6B00BD
:10E310002A0011241FBECFEFD1E2DEBFCDBF01E046
:10E320000CBF12E0A0E0B2E0EEE1FDEF03E00BBFB6
:10E3300002C007900D92A030B107D9F712E0A0E01B
:10E34000B2E001C01D92AE30B107E1F70F9460F367
:10E350000D948DFE01E20EBF0FEF0DBF11241FBE05
:10E360000D9460F30D9400F020E030E040ED57E0B4
:10E3700005C0FA013197F1F72F5F3F4F2817390792
:10E38000C0F308959C01260F311DC901A0E0B0E043
:10E390002F5F3F4FABBFFC018791882361F08093D3
:10E3A000C6008091C00086FFFCCF8091C0008064D1
:10E3B0008093C000EACF08958DE08093C6008091DD
:10E3C000C00086FFFCCF8091C00080648093C000B5
:10E3D0008AE08093C6008091C00086FFFCCF8091C8
:10E3E000C00080648093C00008950F94C2F10F9420
:10E3F000DCF10895FC019081992359F09093C600B7
:10E400008091C00086FFFCCF8091C0008064809323
:10E41000C0003196992379F70895282F982F929567
:10E420009F70892F805D8A3308F0895F8093C600D2
:10E430008091C00086FFFCCF8091C00080648093F3
:10E44000C000822F8F70982F905D9A3308F0995FEB
:10E450009093C6008091C00086FFFCCF8091C000E1
:10E4600080648093C00008959C01FB01853691056E
:10E470001CF46330710594F0C90164E670E00F94F8
:10E480002EFE605D7F4F6093C6008091C00086FFC6
:10E49000FCCF8091C00080648093C0002B30310598
:10E4A00014F43297B4F0C90164E670E00F942EFEC4
:10E4B0006AE070E00F942EFE605D7F4F6093C600AF
:10E4C0008091C00086FFFCCF8091C0008064809363
:10E4D000C000C9016AE070E00F942EFEC0968093E0
:10E4E000C6008091C00086FFFCCF8091C000806490
:10E4F0008093C00008951F93182F8EE692EE60E07F
:10E500000F94C2F11093C6008091C00086FFFCCF2B
:10E510008091C00080648093C0000F94DCF11F9153
:10E5200008952F923F924F925F926F927F928F92B7
:10E530009F92AF92BF92CF92DF92EF92FF920F9392
:10E540001F93DF93CF93CDB7DEB762970FB6F894E2
:10E55000DEBF0FBECDBF382E622ECA01DB015C01CB
:10E560006D01772420E2222E2E010894411C511CBB
:10E570008BC081E0A81680E0B80681E0C80680E084
:10E58000D80628F0C601AA27BB270F940DF2BB2797
:10E59000AD2D9C2D8B2D0F940DF28A2D0F940DF225
:10E5A0002092C6008091C00086FFFCCF8091C00001
:10E5B00080648093C0009DE29093C6008091C0006B
:10E5C00086FFFCCF8091C00080648093C0002092C1
:10E5D000C6008091C00086FFFCCF8091C00080649F
:10E5E0008093C00019828601750188249924A1E0D6
:10E5F0003A1651F03A1620F0B2E03B1661F409C029
:10E600000BBFF701779007C0C7010F9477FE782EF4
:10E6100002C0F7017080872D0F940DF22092C60082
:10E620008091C00086FFFCCF8091C0008064809301
:10E63000C000872D8052F401EF70F0708F3520F408
:10E64000E40DF51D708204C0E40DF51D8EE280839B
:10E650000894E11CF11C011D111D0894811C911CE2
:10E6600090E18916910409F0C2CF80E190E0A0E02A
:10E67000B0E0A80EB91ECA1EDB1E198AC2010F9493
:10E68000FAF10F94DCF16A94662009F072CF629679
:10E690000FB6F894DEBF0FBECDBFCF91DF911F91B3
:10E6A0000F91FF90EF90DF90CF90BF90AF909F9031
:10E6B0008F907F906F905F904F903F902F90089534
:10E6C0002F923F924F925F926F927F928F929F9282
:10E6D000AF92BF92CF92DF92EF92FF920F931F9370
:10E6E000DF93CF93CDB7DEB7CD53D1400FB6F894BB
:10E6F000DEBF0FBECDBF01E20EBF0FEF0DBF94B75F
:10E70000F894A89514BE80916000886180936000A1
:10E7100010926000789493FF05C0E0910002F091A0
:10E7200001021995279A2F9A8091C00082608093E8
:10E73000C00080E18093C40088E18093C1000000A4
:10E74000EE24FF24870144E0A42EB12CCC24DD2448
:10E7500024C0C5010197F1F70894E11CF11C011DCB
:10E76000111D21E2E2162EE4F20620E0020720E06D
:10E77000120718F031E0C32ED12CC801B70127ECE5
:10E780003BE140E050E00F9441FE611571058105C9
:10E79000910519F485B1805885B98091C00087FD35
:10E7A00003C0C114D104A9F2A6014F5F5F4FC25E3E
:10E7B000DE4F59834883CE51D140C25EDE4F8881FF
:10E7C0009981CE51D140019711F00D9410FEC05D9A
:10E7D000DE4F19821882C053D14060E0C15DDE4F28
:10E7E0001882CF52D14088249924C35DDE4F19820C
:10E7F0001882CD52D140C05EDE4F188219821A8233
:10E800001B82C052D140CE5CDE4F188219821A8220
:10E810001B82C253D140EE24FF2487010BBFF701B6
:10E8200007911691C45CDE4F19830883CC53D14005
:10E830000D940BFEC25EDE4F28813981CE51D1404E
:10E840002130310509F52091C600C25EDE4F1982E4
:10E850001882CE51D14022C02F5F3F4F4F4F5F4FA4
:10E86000213082E138078AE7480780E0580780F0C6
:10E87000C45CDE4FE881F981CC53D140EF5FFF4F9C
:10E8800019F0EE27FF27099420E030E040E050E047
:10E890008091C00087FFE0CF2091C600C35DDE4FAE
:10E8A00048815981CD52D1404F5F5F4FC35DDE4FEC
:10E8B00059834883CD52D140213209F063C64A3092
:10E8C000510508F05FC60894811C911C53E0851621
:10E8D000910409F059C600E010E018C081E280936D
:10E8E000C6008091C00086FFFCCF8091C00080648C
:10E8F0008093C0002F5F3F4F2931310579F70F9486
:10E90000DCF10F5F1F4F0530110519F020E030E0FA
:10E91000E5CF10920A0210920B0210920C02109294
:10E920000D02109206021092070210920802109235
:10E930000902109202021092030210920402109235
:10E9400005028FEE90EE60E00F94F5F180E191EE1C
:10E9500060E00F94C2F18091C00087FFFCCF9091DE
:10E96000C600903608F09F759032B8F09093C600BC
:10E970008091C00086FFFCCF8091C00080648093AE
:10E98000C000A0E2A093C6008091C00086FFFCCF2B
:10E990008091C00080648093C000983409F4D7C18E
:10E9A0009934B8F4923409F459C1933458F490333B
:10E9B00019F1903308F4E3C59F33A1F1903409F0C5
:10E9C000DEC5BDC0953409F470C1963409F0D7C5D1
:10E9D00098C1923509F42BC2933538F49C3409F46C
:10E9E000F5C1913509F0CBC518C2963509F445C279
:10E9F000993509F0C4C567C483E792EE62E00F94CD
:10EA0000F5F110920602109207021092080210927D
:10EA1000090210920A0210920B0210920C0210923C
:10EA20000D0213C18FE792EE62E00F94F5F18FEEC5
:10EA300090EE60E00F94F5F181E291EE60E00F94CA
:10EA4000C2F187EB91EE60E00F94F5F180E391EE77
:10EA500060E00F94C2F184EE90EE60E00F94F5F167
:10EA60008FE391EE60E00F94C2F186E090E061E008
:10EA700070E00F9434F20F94DCF18DE591EE60E0DC
:10EA80000F94C2F189EC91EE60E00F94F5F18EE401
:10EA900091EE60E00F94C2F183EC91EE60E00F9490
:10EAA000F5F18CE691EE60E00F94C2F18EE10F94E7
:10EAB0000DF288E90F940DF281E00F940DF20F949E
:10EAC000DCF18BE791EE60E00F94C2F119E0E0E039
:10EAD000F0E010935700E4918E2F0F940DF20F94F5
:10EAE000DCF18AE891EE60E00F94C2F1E3E0F0E03F
:10EAF00010935700E4918E2F0F940DF20F94DCF1D8
:10EB000089E991EE60E00F94C2F1E2E0F0E0109349
:10EB10005700E4918E2F0F940DF20F94DCF188EAE8
:10EB200091EE60E00F94C2F1E1E0F0E01093570045
:10EB30001491812F0F940DF20F94DCF107CF8BE825
:10EB400092EE62E00F94F5F18BE492EE60E00F94A8
:10EB5000F5F10F94DCF100E010E019C0C8016F2D51
:10EB60000F947FFEFF2031F489E492EE60E00F9471
:10EB7000C2F10BC0F092C6008091C00086FFFCCFAE
:10EB80008091C00080648093C0000F5F1F4FC80158
:10EB900081519F41A0E0B0E0ABBFFC01F790BAE229
:10EBA000FB1621F0E2E000301E07C1F60F94DCF105
:10EBB0000F94DCF187E592EE60E00F94F5F10F948D
:10EBC000DCF1CC24DD2400E010E01EC0C8010F946D
:10EBD00077FEF82E882331F489E492EE60E00F94FA
:10EBE000C2F10BC08093C6008091C00086FFFCCFAD
:10EBF0008091C00080648093C000FE1419F00894D6
:10EC0000C11CD11C0F5F1F4FC80181519F41A0E063
:10EC1000B0E0ABBFFC01E790FAE2EF1621F022E092
:10EC20000030120799F60F94DCF10F94DCF182E6C4
:10EC300092EE60E00F94C2F1C60161E070E00F94C3
:10EC400034F20F94DCF10F94DCF110920202109276
:10EC50000302109204021092050278CE89E992EE26
:10EC600062E00F94F5F1279A2F9A16C02F9880E052
:10EC700090E0E0EDF7E03197F1F7019684369105E9
:10EC8000C1F72F9A80E090E0E0EDF7E03197F1F7DF
:10EC9000019684369105C1F78091C00087FFE6CFC9
:10ECA0008091C00087FFFCCF64C485EA92EE62E0E9
:10ECB0000F94F5F140910202509103026091040219
:10ECC0007091050281E020E10F9491F2809102029F
:10ECD00090910302A0910402B091050280509F4FD1
:10ECE000AF4FBF4F8093020290930302A0930402A0
:10ECF000B093050280509041A040B04008F426CE69
:10ED0000A4CF83EB92EE62E00F94F5F140910602FE
:10ED100050910702609108027091090280E020E1A1
:10ED20000F9491F28091060290910702A09108023F
:10ED3000B091090280509F4FAF4FBF4F80930602A2
:10ED400090930702A0930802B0930902FFCD80ECD4
:10ED500092EE62E00F94F5F183E792EE60E00F949B
:10ED6000F5F18FE792EE60E00F94F5F18BE892EE0B
:10ED700060E00F94F5F189E992EE60E00F94F5F10F
:10ED800085EA92EE60E00F94F5F183EB92EE60E09D
:10ED90000F94F5F180EC92EE60E00F94F5F187ECC2
:10EDA00092EE60E00F94F5F188ED92EE60E00F9442
:10EDB000F5F18FED92EE60E00F94F5F18AEE92EEB0
:10EDC00060E00F94F5F183E093EEBDCD87EC92EE19
:10EDD00062E00F94F5F181E40F947BF282E40F94EA
:10EDE0007BF283E40F947BF284E40F947BF285E45E
:10EDF0000F947BF286E40F947BF287E40F947BF20E
:10EE000088E40F947BF28AE40F947BF28BE40F94F6
:10EE10007BF28CE40F947BF299CD88ED92EE62E068
:10EE20000F94F5F1772473948824992409C48FED05
:10EE300092EE62E00F94F5F140910A0250910B02BC
:10EE400060910C0270910D0282E020E10F9491F22A
:10EE500080910A0290910B02A0910C02B0910D02D8
:10EE600080509F4FAF4FBF4F80930A0290930B0289
:10EE7000A0930C02B0930D0269CD8AEE92EE62E08F
:10EE80000F94F5F184EE90EE60E00F94F5F18FECC5
:10EE900091EE60E00F94F5F1662477244301CC5D98
:10EEA000DE4F19821882C452D140D401C301B695F5
:10EEB000A79597958795CA5DDE4F88839983AA8326
:10EEC000BB83C652D140CC5DDE4FA881B981C4520C
:10EED000D1401196CC5DDE4FB983A883C452D14096
:10EEE000CD0162E070E00F9434F2B0E2B093C6005E
:10EEF0008091C00086FFFCCF8091C0008064809329
:10EF0000C000EDE2E093C6008091C00086FFFCCF18
:10EF10008091C00080648093C000F0E2F093C6004E
:10EF20008091C00086FFFCCF8091C00080648093F8
:10EF3000C000CA5DDE4FE880F9800A811B81C6529D
:10EF4000D140BB27A12F902F8F2D0F940DF2CA5DBA
:10EF5000DE4F8881C652D1400F940DF2B0E2FB2EF5
:10EF6000F092C6008091C00086FFFCCF8091C00067
:10EF700080648093C0000DE30093C6008091C000C0
:10EF800086FFFCCF8091C00080648093C00010E2B7
:10EF90001093C6008091C00086FFFCCF8091C00016
:10EFA00080648093C0008BBEF3012791C65DDE4F65
:10EFB0002883CA52D140A22EBB24CC24DD2408943D
:10EFC000611C711C811C911C8BBEF3018791282E42
:10EFD0003324442455240894611C711C811C911C09
:10EFE0008BBEF3013791C55DDE4F3883CB52D140E4
:10EFF0000894611C711C811C911C8BBEF30147910C
:10F00000C45DDE4F4883CC52D140ADEFEA2EAFEF66
:10F01000FA2EAFEF0A2FAFEF1A2F6E0C7F1C801E57
:10F02000911E142D032DF22CEE24EA0CFB1C0C1D5A
:10F030001D1D0F940DF220E22093C6008091C000A8
:10F0400086FFFCCF8091C00080648093C000C65DC5
:10F05000DE4F8881CA52D1400F940DF230E23093D6
:10F06000C6008091C00086FFFCCF8091C000806404
:10F070008093C000C45DDE4F8881CC52D1400F9494
:10F080000DF240E24093C6008091C00086FFFCCFA5
:10F090008091C00080648093C000C55DDE4F888190
:10F0A000CB52D1400F940DF250E25093C6008091A4
:10F0B000C00086FFFCCF8091C00080648093C000B8
:10F0C0008FEFE8168FEFF80680E0080780E018075A
:10F0D00031F484E092EE60E00F94C2F1DFC0D80119
:10F0E000C7018070907CA070B0708050904CA040A0
:10F0F000B040D1F52FEF3FE340E050E0E222F322B1
:10F1000004231523CA5DDE4FA880B980CA80DB8046
:10F11000C652D140AE0CBF1CC01ED11EAA0CBB1CD7
:10F12000CC1CDD1C8EE092EE60E00F94C2F1BB2798
:10F13000A12F902F8F2D0F940DF28E2D0F940DF285
:10F1400030E23093C6008091C00086FFFCCF8091F2
:10F15000C00080648093C0004EE34093C60080915D
:10F16000C00086FFFCCF87C08EE09EEFA0E0B0E03D
:10F17000E822F9220A231B239CE0E91694E9F90608
:10F1800090E0090790E0190709F088C0C45DDE4FE0
:10F19000A881CC52D140EA2EFF2400E010E0102FCD
:10F1A0000F2DFE2CEE24C55DDE4FB881CB52D14031
:10F1B000EB0EF11C011D111DD601C501817090706F
:10F1C000A070B070DC0199278827E80EF91E0A1F8D
:10F1D0001B1F20EF30E040E050E0A222B322C42207
:10F1E000D52241E1AA0CBB1CCC1CDD1C4A95D1F7F1
:10F1F000EA0CFB1C0C1D1D1D81E090E0A0E0B0E0BE
:10F20000282239224A225B2235E1220C331C441C7D
:10F21000551C3A95D1F7E20CF31C041D151D57013E
:10F220006801AA0CBB1CCC1CDD1C85E192EE60E0E1
:10F230000F94C2F1C801AA27BB270F940DF2BB2778
:10F24000A12F902F8F2D0F940DF28E2D0F940DF274
:10F2500090E29093C6008091C00086FFFCCF809121
:10F26000C00080648093C000AEE3A093C60080918C
:10F27000C00086FFFCCF8091C00080648093C000F6
:10F28000C601AA27BB270F940DF2BB27AD2D9C2DDD
:10F290008B2D0F940DF28A2D0F940DF20F94DCF14B
:10F2A000CC5DDE4FE881F981C452D140F99709F471
:10F2B0004DCBF4E0EF2EF12C012D112D6E0C7F1CA7
:10F2C000801E911EF2CD83E093EE62E00F94F5F183
:10F2D0008AE192EE60E00F94C2F18091C00087FF56
:10F2E000FCCF1091C6001F751093C6008091C0001E
:10F2F00086FFFCCF8091C00080648093C0000F9493
:10F30000DCF1812F81548A3108F036C1163409F4BA
:10F3100095C0173490F4133409F44EC0143430F40B
:10F320001134F1F0123409F01DC130C0143409F465
:10F3300059C0153409F016C16BC01A3409F4C4C0A1
:10F340001B3438F4173409F48FC0183409F00AC19B
:10F35000A1C01B3409F4D2C01C3409F003C1E8C0B9
:10F360008FEF81B90DC082B1809582B980E090E0C5
:10F37000E0EDF7E03197F1F70196883C9105C1F790
:10F380008091C00087FFEFCF12B8EFC08FEF84B934
:10F390000DC085B1809585B980E090E0E0EDF7E0A3
:10F3A0003197F1F70196883C9105C1F78091C00033
:10F3B00087FFEFCF15B8D9C08FEF87B90DC088B1DF
:10F3C000809588B980E090E0E0EDF7E03197F1F7C3
:10F3D0000196883C9105C1F78091C00087FFEFCF6F
:10F3E00018B8C3C08FEF8AB90DC08BB180958BB9A7
:10F3F00080E090E0E0EDF7E03197F1F70196883C8E
:10F400009105C1F78091C00087FFEFCF1BB8ADC059
:10F410008FEF8DB90DC08EB180958EB980E090E0F0
:10F42000E0EDF7E03197F1F70196883C9105C1F7DF
:10F430008091C00087FFEFCF1EB897C08FEF80BBD1
:10F440000DC081B3809581BB80E090E0E0EDF7E0F6
:10F450003197F1F70196883C9105C1F78091C00082
:10F4600087FFEFCF11BA81C08FEF83BB0DC084B38C
:10F47000809584BB80E090E0E0EDF7E03197F1F714
:10F480000196883C9105C1F78091C00087FFEFCFBE
:10F4900014BA6BC08FEF809301010FC080910201FD
:10F4A00080958093020180E090E0E0EDF7E03197F5
:10F4B000F1F70196883C9105C1F78091C00087FF64
:10F4C000EDCF1092020151C08FEF809304010FC065
:10F4D0008091050180958093050180E090E0E0ED4A
:10F4E000F7E03197F1F70196883C9105C1F78091DB
:10F4F000C00087FFEDCF1092050137C08FEF8093DA
:10F5000007010FC08091080180958093080180E079
:10F5100090E0E0EDF7E03197F1F70196883C910536
:10F52000C1F78091C00087FFEDCF109208011DC088
:10F530008FEF80930A010FC080910B01809580931B
:10F540000B0180E090E0E0EDF7E03197F1F70196F4
:10F55000883C9105C1F78091C00087FFEDCF1092E4
:10F560000B0103C085E292EEEEC98091C00087FFD7
:10F57000FCCF8091C600EAC988E392EEE4C98CE131
:10F5800091EEE1C988249924933011F1943028F444
:10F59000913089F09230B8F408C0953061F195301F
:10F5A000F0F0963009F048C043C02B3109F042C951
:10F5B00091E06BE13FC96227C15DDE4F2883CF52E6
:10F5C000D14092E037C9B22FA0E0622793E032C960
:10F5D000822F90E0A82BB92B622794E02BC92E3004
:10F5E00009F039C3622795E0C05DDE4F19821882A9
:10F5F000C053D1401FC9E1E0F0E0EC0FFD1FC05D3A
:10F60000DE4F08811981C053D140E00FF11F2083E4
:10F610000F5F1F4FC05DDE4F19830883C053D14079
:10F6200062270A171B0709F005C9D80196E002C92D
:10F63000261709F010C303C0973009F0FBC87724E0
:10F640009981933109F412C19431C8F4963009F4C8
:10F65000D8C0973050F4923009F406C1933009F4C1
:10F660006DC0913009F059C253C0913109F477C08F
:10F67000923108F0BBC0903109F04FC2F5C098310B
:10F6800009F487C0993150F4953109F4EFC09531F0
:10F6900008F4C6C1963109F040C2C2C19A3109F4DA
:10F6A0006CC09A3108F491C09B3109F45BC09D3164
:10F6B00009F033C29D81903359F48F81882311F46E
:10F6C0009EE11CC0813011F091E018C098E916C08D
:10F6D000892F807591F0903539F4E0E0F0E089E011
:10F6E0008093570094910AC0983539F4E3E0F0E034
:10F6F00089E080935700949101C090E01A821B82A8
:10F700008D818C831D829E831F8227E030E009C299
:10F710001A8288E08B8381E48C8386E58D8382E581
:10F720008E8389E48F8383E5888780E589878FE5E9
:10F730008A8782E38B872BE030E0F3C18A818139AD
:10F7400041F0823941F0803911F48FE005C080E04A
:10F7500003C082E001C08AE01A828B8344C0772410
:10F76000739482C08D81882311F48EE12CC0813086
:10F7700011F081E028C088E926C01A82E1E0F0E0BB
:10F7800089E08093570084918B831C8224E030E0D1
:10F79000C8C18B81803589F48C81883039F4E2E0EE
:10F7A000F0E089E08093570084910DC0E0E0F0E044
:10F7B00089E080935700849106C0E3E0F0E089E09F
:10F7C0008093570084911A82DFCF8D81836C99E0FA
:10F7D000E1E0F0E0082E90935700E89507B600FCB2
:10F7E000FDCF1A821B8223E030E09BC180EC8A832C
:10F7F000CE5CDE4F188219821A821B82C253D1401E
:10F800008EC18A8190E0A0E0B0E0582F44273327D2
:10F8100022278B8190E0A0E0B0E0DC0199278827C7
:10F82000282B392B4A2B5B2B8D8190E0A0E0B0E098
:10F83000282B392B4A2B5B2B8C8190E0A0E0B0E089
:10F84000BA2FA92F982F8827282B392B4A2B5B2BCF
:10F85000220F331F441F551FC05EDE4F288339839C
:10F860004A835B83C052D1401A8259C13A81C95C34
:10F87000DE4F3883C753D140CA5CDE4F1882C6536F
:10F88000D1408B81C82EDD24CA5CDE4F488159816E
:10F89000C653D140C42AD52A933109F082C0CE5C28
:10F8A000DE4F88819981AA81BB81C253D1408050AB
:10F8B000904CA340B04030F583E0CE5CDE4FE88052
:10F8C000F9800A811B81C253D140F70100935B008C
:10F8D00080935700E89507B600FCFDCFCE5CDE4F65
:10F8E000088119812A813B81C253D14000501F4FAA
:10F8F0002F4F3F4FCE5CDE4F088319832A833B8313
:10F90000C253D140C05EDE4F488159816A817B81FC
:10F91000C052D140DE011B9631E08C9111962C91A2
:10F9200011971296C75CDE4F2883C953D140C85C3B
:10F93000DE4F1882C853D14090E0C85CDE4FE881AA
:10F94000F981C853D1408E2B9F2B0C01FA01609393
:10F950005B0030935700E89511244E5F5F4F6F4F67
:10F960007F4F0EEFE02E0FEFF02ECE0CDF1CC114F8
:10F97000D10499F685E0C05EDE4F088119812A81A5
:10F980003B81C052D140F80120935B008093570027
:10F99000E89507B600FCFDCF81E180935700E8951C
:10F9A00035C0C05EDE4F88819981AA81BB81C0527B
:10F9B000D140B695A795979587957C018601ABE0D8
:10F9C000AA2EB12CAC0EBD1E0BC0D5016D915D01F0
:10F9D000C7010F947FFE0894E11CF11C01501040F8
:10F9E0000115110591F7A60160E070E0440F551F65
:10F9F000661F771FC05EDE4FE880F9800A811B8199
:10FA0000C052D1404E0D5F1D601F711F1A82C05E33
:10FA1000DE4F488359836A837B83C052D1407FC0C5
:10FA2000FA80C55CDE4FF882CB53D140C65CDE4F16
:10FA30001882CA53D1408B81C82EDD24C65CDE4FAC
:10FA400008811981CA53D140C02AD12A1A828981DA
:10FA5000BE016D5F7F4F843121F59601C05EDE4FA0
:10FA6000E880F9800A811B81C052D1400BBFF701A9
:10FA700087919691DB018C9311969C936E5F7F4FDB
:10FA8000D801C7010296A11DB11DC05EDE4F88835B
:10FA90009983AA83BB83C052D14022503040F1F6F3
:10FAA00036C0C05EDE4F288139814A815B81C052F9
:10FAB000D1400894C108D108760100E010E0089414
:10FAC000C11CD11C0894E11CF11C011D111DE20E8A
:10FAD000F31E041F151F21BDBB27A52F942F832FB5
:10FAE00082BD2F5F3F4F4F4F5F4FF89A80B5DB01CC
:10FAF0008D93BD012E153F054007510761F7C05E8C
:10FB0000DE4F288339834A835B83C052D1409601FC
:10FB10002D5F3F4FFB01108204C080EC8A8322E0FE
:10FB200030E08BE18093C6008091C00086FFFCCF5F
:10FB30008091C00080648093C000C15DDE4FF88179
:10FB4000CF52D140F093C6008091C00086FFFCCF19
:10FB50008091C00080648093C000432F3093C60022
:10FB60008091C00086FFFCCF8091C00080648093AC
:10FB7000C000922F2093C6008091C00086FFFCCF6A
:10FB80008091C00080648093C0008EE08093C600A6
:10FB90008091C00086FFFCCF8091C000806480937C
:10FBA000C00065E1C15DDE4FE880CF52D1406E25D7
:10FBB00069276427FE01319610C090819093C6009A
:10FBC0008091C00086FFFCCF31968091C000806498
:10FBD0008093C0006927215030402115310569F715
:10FBE0006093C6008091C00086FFFCCF8091C0006A
:10FBF00080648093C00085B1805885B9772081F4F6
:10FC0000C15DDE4F0881CF52D1400F5FC15DDE4F35
:10FC10000883CF52D14090E0A0E0B0E00D941AF4F8
:10FC200027982F9880E090E020ED37E0F901319798
:10FC3000F1F7019684369105C9F700008091C00064
:10FC40008D7F8093C00081E180935700E895EE2777
:10FC5000FF270994FFCF90E00D941AF497FB092E2B
:10FC600007260AD077FD04D02ED006D000201AF443
:10FC7000709561957F4F0895F6F7909581959F4F08
:10FC80000895A1E21A2EAA1BBB1BFD010DC0AA1FDD
:10FC9000BB1FEE1FFF1FA217B307E407F50720F0F5
:10FCA000A21BB30BE40BF50B661F771F881F991F70
:10FCB0001A9469F760957095809590959B01AC01B9
:10FCC000BD01CF010895AA1BBB1B51E107C0AA1FAC
:10FCD000BB1FA617B70710F0A61BB70B881F991FED
:10FCE0005A95A9F780959095BC01CD010895F99991
:10FCF000FECF92BD81BDF89A992780B50895262F31
:10FD0000F999FECF1FBA92BD81BD20BD0FB6F89400
:0EFD1000FA9AF99A0FBE01960895F894FFCF63
:040000033000E000E9
:00000001FF