:1000000016C1000045C1000043C1000041C100000D
:100010003FC100003DC100003BC1000039C10000EC
:1000200037C1000035C1000033C1000031C10000FC
:100030002FC100000BC700002BC1000029C1000028
:1000400027C1000025C1000023C1000021C100001C
:100050001FC100001DC100001BC10000F4C700004B
:1000600017C10000BAC700008FC7000011C100000F
:100070000FC100000DC100000BC1000009C100004C
:1000800007C1000005C1000003C1000001C100005C
:10009000FFC00000FDC00000FBC00000F9C0000070
:1000A000F7C00000F5C00000F3C00000F1C0000080
:1000B000EFC00000EDC00000EBC00000E9C0000090
:1000C000E7C00000E5C00000E3C00000E1C00000A0
:1000D000DFC00000DDC00000DBC00000D9C00000B0
:1000E000D7C000009502980287028B029102CF02CE
:1000F0009C02A002A602AA02AE02B402B802BC028E
:10010000CF02C202C602CA0200002000230026005D
:1001100029002C002F00320000010000030106011D
:10012000090100002100240027002A002D003000D2
:10013000330001010000040107010A010000220050
:10014000250028002B002E003100340002010000A1
:10015000050108010B010505050507050808080844
:10016000020202020A0A080804040404010101014F
:10017000010101010303030303030303040707074A
:100180000C0C0C0C0C0C0C0C0202020206060606EF
:10019000060606060B0B0B0B0B0B0B0B01021020BC
:1001A00020080810204010204080020102010804AD
:1001B0000201010204081020408080402010080441
:1001C000020180040201804020100804020108049A
:1001D00002010102040810204080010204081020DE
:1001E000408000000A0B02090C0D0E0807030401F1
:1001F00000000000000000000000000000000000FF
:1002000000000000000000000000000000001211CB
:1002100010000000000000000000000000000000CE
:10022000000000000000000002006D088F0A112489
:100230001FBECFEFD1E2DEBFCDBF00E00CBF12E0AA
:10024000A0E0B2E0ECE1F8E100E00BBF02C00790F3
:100250000D92AC37B107D9F723E0ACE7B2E001C0AB
:100260001D92AF34B207E1F711E0C6E1D1E000E042
:1002700006C021970109802FFE010E94BB0AC531EB
:10028000D10780E00807A9F70E9459090C94FD0BDB
:10029000B7CECF92DF92EF92FF920F931F93CF933F
:1002A000DF936C017A018B01C0E0D0E0CE15DF0551
:1002B00089F0D8016D918D01D601ED91FC910190ED
:1002C000F081E02DC6011995892B11F47E0102C041
:1002D0002196ECCFC701DF91CF911F910F91FF9035
:1002E000EF90DF90CF900895FC01538D448D252F22
:1002F00030E0842F90E0821B930B541710F0CF96C0
:10030000089501970895FC01918D828D981761F0F1
:10031000828DDF01A80FB11D5D968C91928D9F5F3C
:100320009F73928F90E008958FEF9FEF0895FC01E7
:10033000918D828D981731F0828DE80FF11D858D9A
:1003400090E008958FEF9FEF0895FC01918D228D2D
:10035000892F90E0805C9F4F821B91098F739927B2
:10036000089585EA92E0F1DF21E0892B09F420E08D
:10037000822F0895FC01848DDF01A80FB11DA35ABF
:10038000BF4F2C91848D90E001968F739927848FB5
:10039000A689B7892C93A089B1898C9180648C93AC
:1003A000938D848D981306C00288F389E02D808197
:1003B0008F7D80830895EF92FF920F931F93CF93C9
:1003C000DF93EC0181E0888F9B8D8C8D981305C0A5
:1003D000E889F989808185FD23C0F62E0B8D10E018
:1003E0000F5F1F4F0F731127E02E8C8DE8120BC08B
:1003F0000FB607FCFACFE889F989808185FFF5CF30
:10040000CE01B8DFF2CF8B8DFE01E80FF11DE35A6C
:10041000FF4FF0820B8FEA89FB898081806207C0E1
:10042000EE89FF896083E889F9898081806480830F
:1004300081E090E0DF91CF911F910F91FF90EF90BD
:100440000895CF93DF93EC01888D8823C1F0EA896A
:10045000FB89808185FD05C0A889B9898C9186FDBD
:100460000EC00FB607FCF5CF808185FFF2CFA889BB
:10047000B9898C9185FFEDCFCE017CDFE8CFDF918C
:10048000CF91089580E090E0892B19F06ADF811107
:1004900025C080E090E0892B41F080E090E0892B3E
:1004A00021F00E94000081111CC080E090E0892BA7
:1004B00041F080E090E0892B21F00E940000811142
:1004C00013C080E090E0892BA1F080E090E0892BC0
:1004D00081F00E94000081110AC008950E9400006E
:1004E000D8CF0E940000E1CF0E940000EACF0C9418
:1004F0000000089590E0FC013197E231F10508F029
:100500004EC08827EE58FF4F8F4F0C94BB0A809146
:1005100080008F7703C0809180008F7D8093800062
:10052000089580918000877FF9CF84B58F7702C0CE
:1005300084B58F7D84BD08958091B0008F7703C00E
:100540008091B0008F7D8093B000089580919000DD
:100550008F7707C0809190008F7D03C080919000BD
:10056000877F8093900008958091A0008F7707C0C7
:100570008091A0008F7D03C08091A000877F809331
:10058000A0000895809120018F7707C080912001FD
:100590008F7D03C080912001877F80932001089583
:1005A0001F93CF93DF93282F30E0F901EE51FE4FD8
:1005B0008491F901E456FE4FD491F901EA5AFE4FB5
:1005C000C491CC23C1F0162F811194DFEC2FF0E001
:1005D000EE0FFF1FE45CFE4FA591B4918FB7F89426
:1005E000111105C09C91ED2FE095E92302C0EC911B
:1005F000ED2BEC938FBFDF91CF911F910895CF9397
:10060000DF9390E0FC01E456FE4F2491FC01EA5A8E
:10061000FE4F8491882361F190E0880F991FFC01BF
:10062000EE5DFE4FC591D491FC01E45CFE4FA591B7
:10063000B491611109C09FB7F894888120958223F5
:100640008883EC912E230BC0623061F49FB7F8943D
:100650003881822F809583238883EC912E2B2C93D5
:100660009FBF06C08FB7F894E8812E2B28838FBFD9
:10067000DF91CF9108952FB7F89460919A0270910D
:100680009B0280919C0290919D022FBF0895DC01F6
:1006900026E0629FA00DB11D112490965C934E93AD
:1006A0005F9721E091962C939197FC01E459FF4FBD
:1006B000208131960190F081E02D222331F0309796
:1006C00049F0611107C0DC0102C0309719F05C9657
:1006D0008C91199408956F927F928F929F92AF920E
:1006E000BF92CF92DF92EF92FF921F93CF93DF934F
:1006F0001F92CDB7DEB73C01162FFC0186E0689F44
:10070000E00DF11D112411A2878D90A1813091057A
:10071000E9F01CF4892B51F04BC08230910599F11E
:10072000039709F045C040E050E031C0442309F48C
:100730003FC041E050E0C301AADF9DDFF301E85A6A
:10074000FF4F608371838283938332C0498393DF39
:10075000F301E85AFF4FC080D180E280F3804B0163
:100760005C018C189D08AE08BF087296808191814B
:10077000A0E0B0E0498188159905AA05BB0518F4E9
:1007800042E050E004C0411113C043E050E0612F4B
:10079000C3010F90DF91CF911F91FF90EF90DF90F9
:1007A000CF90BF90AF909F908F907F906F906FCFC2
:1007B0000F90DF91CF911F91FF90EF90DF90CF903E
:1007C000BF90AF909F908F907F906F900895CF9340
:1007D000DF9370E0FB01EE51FE4F8491FB01E45684
:1007E000FE4FD491FB01EA5AFE4FC491CC2389F00D
:1007F000811180DEEC2FF0E0EE0FFF1FE85FFE4F6F
:10080000A591B491EC91ED2381E090E021F480E09A
:1008100002C080E090E0DF91CF910895862F642F91
:10082000BFCE862F642FEBCECF93DF93EC0160E039
:100830008E81B6DE61E08E81B3DE60E08E81B0DE57
:100840008BE891E00197F1F7DF91CF910895CF9276
:10085000DF92EF92FF920F931F93CF93DF937C0170
:100860006C0187E0C80ED11CC0E0D0E0062F10E07C
:10087000B8010C2E02C0759567950A94E2F7617075
:10088000F60181916F018CDE2196C430D10581F78C
:10089000C701DF91CF911F910F91FF90EF90DF90F3
:1008A000CF90C2CFCF92DF92EF92FF920F931F9320
:1008B000CF93DF93EC01F62E642F8C8171DE8D8156
:1008C0008F3F11F060E06CDE8F850F2D10E084FF0C
:1008D00023C06E0187E0C80ED11CE12CF12CB801B9
:1008E0000E2C02C0759567950A94E2F76170F601C7
:1008F00081916F0155DEFFEFEF1AFF0A88E0E816DD
:10090000F10469F7CE01DF91CF911F910F91FF9014
:10091000EF90DF90CF9088CFB80184E07595679510
:100920008A95E1F7CE0193DF6F2DCE01DF91CF9154
:100930001F910F91FF90EF90DF90CF9088CFEF92B3
:10094000FF920F931F93CF93DF93EC01423018F087
:100950008F8588608F874B8B1C8A80E48D8B6E8B94
:1009600070E0605C7F4F6F8B61E08C8148DE8D8131
:100970008F3F11F061E043DE61E08E8140DE7E0159
:1009800087E0E80EF11C00E010E08F8584FD03C0D5
:1009900084E090E002C088E090E00817190744F472
:1009A00061E0F70181917F012ADE0F5F1F4FEDCFDC
:1009B0008BE39DE00197F1F760E08C81F1DD60E071
:1009C0008E81EEDD8D818F3F11F060E0E9DD6F8576
:1009D00064FD19C063E0CE013ADF0BE416E4C80100
:1009E0000197F1F763E0CE0132DFC8010197F1F71B
:1009F00063E0CE012CDF83E592E00197F1F762E03E
:100A0000CE0125DF16C0606240E0CE014BDF8BE4F3
:100A100096E40197F1F76F85606240E0CE0142DF16
:100A200083E592E00197F1F76F85606240E0CE01C7
:100A300039DF6F85606240E0CE0134DF84E0888B6F
:100A400040E06CE0CE012EDF40E061E0CE012ADF25
:100A50008BE39FE10197F1F782E0898B40E066E04C
:100A6000CE01DF91CF911F910F91FF90EF901ACFA0
:100A700041E018DF81E090E00895089580E090E083
:100A80000895CF93DF93EC01DB01ED91FC91019090
:100A9000F081E02DCB011995833019F485E592E0C2
:100AA00004C0843021F480E692E09D838C83DF9142
:100AB000CF9108952F923F924F925F926F927F92C3
:100AC0008F929F92AF92BF92CF92DF92EF92FF925E
:100AD0000F931F93CF93DF93CDB7DEB72E970FB64B
:100AE000F894DEBF0FBECDBF9E878D878A579F4F7C
:100AF0009A83898381E0A981BA818C93BCDD2D859D
:100B00003E852A583F4F3C832B83D9010D911D917F
:100B10002D913C91AB01BC01401B510B620B730B3F
:100B2000ED85FE85EE57FF4F80819181A0E0B0E01A
:100B300084179507A607B70708F046C10D851E85DF
:100B4000065E1F4FF12C2D843E84B0E82B0E311C25
:100B5000CD84DE84ECE7CE0ED11CF1018081F81645
:100B600058F4D601ED91FC91EF0DF11D42E060814A
:100B7000C80157DEF394F1CF912C2D853E852F5778
:100B80003F4F3E832D83CD84DE843EE7C30ED11CD0
:100B9000412C512C320143942D853E8524583F4FE2
:100BA00038872F83AD81BE818C91981608F064C080
:100BB000A92CB12CD601ED91FC91EA0DFB1D41E071
:100BC0006081C8012EDED601ED91FC91EA0DFB1D7E
:100BD00040E06081C80122DED301C201092C04C0BB
:100BE000880F991FAA1FBB1F0A94D2F7AC019C0162
:100BF00020953095812CF1018081881640F5E82CF4
:100C0000F12CAF81B885ED91FC91EE0DFF1D608157
:100C1000C8012B873C8749875A87D9DDEE0CFF1C1A
:100C20002B853C8549855A85ED85FE85EE0DFF1D9A
:100C3000892B29F482A193A1842B952B04C082A136
:100C400093A18223932393A382A38394D4CFD60129
:100C5000ED91FC91EA0DFB1D41E06081C801DEDDF4
:100C6000F60180819181FC01EA0DFB1D40E060816D
:100C7000C801D7DD939496CFED84FE84B6E3EB0EE6
:100C8000F11C8D859E858E589F4FF7012FEF3FEF0A
:100C900043815481452B21F41082328321831582B4
:100CA0003696E817F907A1F7912CCD84DE84EAE7A0
:100CB000CE0ED11CAD84BE84F7E3AF0EB11C86E02E
:100CC000882EF1018081981608F057C0712C4D8450
:100CD0005E84490C511C490C511C32E2430E511CDC
:100CE000AD81BE818C91781608F045C0D2014D913E
:100CF0005C91072C02C0569547950A94E2F7417023
:100D00005527989EC0011124870D911DD601ED91A4
:100D1000FC91E80FF91FA081F50160E0208131818D
:100D20002817390711F441701BC06F5F36966A307F
:100D3000A9F7452BF1F0F70160E070E02081211167
:100D400012C0869EF001879EF00D11242D853E85F0
:100D5000E20FF31FA6AB90AF87AB12AE11AE41E02E
:100D6000C801B9DC06C06F5F7F4F36966A307105E7
:100D700029F77394B5CF9394A4CFED85FE85FB96A8
:100D80008D859E8589589F4F10E02081211111E0AB
:100D90003696E817F907C9F76EDCAB81BC816D9315
:100DA0007D938D939C931397112371F0ED85FE85B0
:100DB00083AD882349F081AD92AD8130910521F456
:100DC00026A92A32B1F004C0A981BA811C9206C0BA
:100DD000233239F0213441F0243449F080E090E0AE
:100DE00008C082E090E005C083E090E002C084E0AB
:100DF00090E02E960FB6F894DEBF0FBECDBFDF9108
:100E0000CF911F910F91FF90EF90DF90CF90BF9007
:100E1000AF909F908F907F906F905F904F903F909A
:100E20002F9008950895DCD443C4FB01648175813B
:100E300002966115710549F0FB0101900020E9F768
:100E40003197AF01461B570B24CA08951F920F928A
:100E50000FB60F9211240BB60F922F933F934F931F
:100E60005F936F937F938F939F93AF93BF93EF9312
:100E7000FF938091A1029091A202A091A302B09150
:100E8000A402892B8A2B8B2B59F18091A002E0912F
:100E90009E02F0919F029081892780838091A10218
:100EA0009091A202A091A302B091A4021816190673
:100EB0001A061B060CF055C08091A1029091A20267
:100EC000A091A302B091A4020197A109B109809356
:100ED000A1029093A202A093A302B093A40241C0E6
:100EE00080910002E8E2F2E0E4919FEF909300022B
:100EF000E230C9F050F4EE2399F0E13081F59091A1
:100F00006F009D7F90936F002AC0E43019F1E0F0EC
:100F1000E53029F5909173009D7F909373001FC079
:100F200010926E001CC0909170009D7F9093700095
:100F300091E09093B0009091B100987F946090936D
:100F4000B1001092B3000BC0909171009D7F9093FF
:100F5000710005C0909172009D7F9093720060E0D7
:100F60001FDBFF91EF91BF91AF919F918F917F9187
:100F70006F915F914F913F912F910F900BBE0F900A
:100F80000FBE0F901F9018951F920F920FB60F92E1
:100F900011240BB60F922F933F934F935F936F9350
:100FA0007F938F939F93AF93BF93EF93FF9385EAC4
:100FB00092E0E0D9FF91EF91BF91AF919F918F9116
:100FC0007F916F915F914F913F912F910F900BBE49
:100FD0000F900FBE0F901F9018951F920F920FB693
:100FE0000F9211240BB60F922F938F939F93EF9331
:100FF000FF93E091B502F091B6028081E091BB02CF
:10100000F091BC0282FD12C090818091BE028F5F80
:101010008F732091BF02821751F0E091BE02F0E081
:10102000EB55FD4F958F8093BE0201C08081FF91EB
:10103000EF919F918F912F910F900BBE0F900FBE4C
:101040000F901F9018951F920F920FB60F921124B8
:101050002F933F938F939F93AF93BF9380919A0267
:1010600090919B02A0919C02B0919D0230919902B7
:1010700023E0230F2D3720F40196A11DB11D05C0DB
:1010800026E8230F0296A11DB11D2093990280939B
:101090009A0290939B02A0939C02B0939D02809130
:1010A000950290919602A0919702B09198020196B4
:1010B000A11DB11D8093950290939602A093970273
:1010C000B0939802BF91AF919F918F913F912F91D3
:1010D0000F900FBE0F901F9018950F931F93CF93F3
:1010E000DF931092A8021092A70288EE93E0A0E08E
:1010F000B0E08093A9029093AA02A093AB02B093B0
:10110000AC0285E292E09093A6028093A50285EC62
:1011100090E09093B2028093B10284EC90E09093BF
:10112000B4028093B30280EC90E09093B602809377
:10113000B50281EC90E09093B8028093B70282EC04
:1011400090E09093BA028093B90286EC90E090937D
:10115000BC028093BB021092BE021092BF0210929A
:10116000C0021092C102109246038FEF9FEF90933E
:1011700048038093470310924A031092490389E879
:1011800090E001D2EC0181E492E09983888386E1CA
:101190008A8388E18B838AE18C838CE18D838EE165
:1011A0008E8380E28F8382E2888784E2898780E170
:1011B000E7E0F2E0DE011A9601900D928A95E1F7E0
:1011C000CE010696AE014E5F5F4F9E01265F3F4FF8
:1011D0001C8E18A21F8E19A267E372E07B8F6A8FA4
:1011E000FE01F696BE016E587F4F10821482138264
:1011F00015823696E617F707C1F7FE01E458FF4F50
:1012000051834083329691838083329684E0808339
:101210003196808337973183208338968AE090E037
:1012200091838083329684EF91E09183808333961B
:10123000118210827197108211821282138270962D
:101240001082D0934503C09344038AE190E09BD180
:10125000EC0183E592E0FE01819391938F011D8261
:101260001C8287E492E09B838A8388E28E838FEFDF
:101270008F838AE288878CE289878EE28A8780E37F
:101280008B8782E38C871D861E861F86188A198AA3
:1012900041E060E1CF0153DB44E064E1C8014FDB92
:1012A000D0934303C0934203DF91CF911F910F91DD
:1012B0000895789484B5826084BD84B5816084BDCE
:1012C00085B5826085BD85B5816085BD80916E00E4
:1012D000816080936E001092810080918100826015
:1012E0008093810080918100816080938100809152
:1012F00080008160809380008091B1008460809341
:10130000B1008091B00081608093B0008091910025
:101310008260809391008091910081608093910020
:10132000809190008160809390008091A100826004
:101330008093A1008091A10081608093A1008091A1
:10134000A00081608093A000809121018260809341
:1013500021018091210181608093210180912001F0
:1013600081608093200180917A00846080937A006C
:1013700080917A00826080937A0080917A00816007
:1013800080937A0080917A00806880937A0010922E
:10139000C100E091B502F091B60282E08083E09155
:1013A000B102F091B2021082E091B302F091B40266
:1013B0008FEC80831092BD02E091B902F091BA02E5
:1013C00086E08083E091B702F091B802808180616D
:1013D0008083E091B702F091B802808188608083B9
:1013E000E091B702F091B802808180688083E0913B
:1013F000B702F091B80280818F7D808386E090E013
:10140000C2D08C018DE692E0D80113969C938E9306
:1014100012978BE192E011969C938E9382E792E073
:1014200015969C938E931497F0904603EE24E394C4
:10143000EF0CC0904903D0904A03CE2DD0E0CE01EE
:10144000880F991FC114D10441F09DD0B4E0FB9ED8
:10145000A0011124B601C8D105C095D090934A03CC
:1014600080934903E0924603C150D048CC0FDD1F62
:101470008091490390914A03C80FD91F19830883AB
:1014800090914603E0914903F0914A0380E0891767
:10149000C9F0A191B19112962D913C9113972D56BF
:1014A000324031F490E090934803809347030AC0A0
:1014B0008F5FEDCF2091460330E0821793075CF0F9
:1014C0000E94420280914703909148038F3FAFEF03
:1014D0009A0781F7F5CF880F991FE0914903F091A2
:1014E0004A03E80FF91FC081D181209749F3E881B1
:1014F000F98160914403709145030480F581E02DEA
:10150000CE0119958091420390914303DC01ED9146
:10151000FC910190F081E02DBE011995D1CFCF93C0
:101520008091440390914503C3D0809142039091F0
:101530004303BED0C0E020914603809149039091BF
:101540004A03C21790F4FC01EC0FF11DEC0FF11DE2
:1015500080819181009739F0DC01ED91FC9102804E
:10156000F381E02D1995CF5FE6CF009711F0CF9171
:101570009FC0CF910895EE0FFF1F881F8BBF07906C
:10158000F691E02D1994CF93DF938230910510F4FA
:1015900082E090E0E0914D03F0914E0320E030E0D6
:1015A000C0E0D0E0309711F14081518148175907D0
:1015B000C0F04817590761F482819381209719F090
:1015C0009B838A832BC090934E0380934D0326C048
:1015D0002115310519F04217530718F49A01BE017D
:1015E000DF01EF010280F381E02DDCCF2115310511
:1015F00009F1281B390B2430310590F412968D9196
:101600009C9113976115710521F0FB0193838283EF
:1016100004C090934E0380934D03FD01329644C065
:10162000FD01E20FF31F81939193225031092D9315
:101630003C933AC020914B0330914C03232B41F44F
:10164000209103023091040230934C0320934B030A
:1016500020910102309102022115310541F42DB78C
:101660003EB74091050250910602241B350BE091D4
:101670004B03F0914C03E217F307A0F42E1B3F0B32
:101680002817390778F0AC014E5F5F4F24173507F4
:1016900048F04E0F5F1F50934C0340934B038193D0
:1016A000919302C0E0E0F0E0CF01DF91CF91089587
:1016B0000F931F93CF93DF93009709F48CC0FC0125
:1016C00032971382128200914D0310914E0301153F
:1016D000110581F420813181820F931F20914B03EA
:1016E00030914C032817390779F5F0934C03E093B8
:1016F0004B0371C0D80140E050E0AE17BF0750F473
:1017000012962D913C911397AD012115310509F1E8
:10171000D901F3CF9D01DA01338322836081718186
:10172000860F971F8217930769F4EC01288139818E
:10173000260F371F2E5F3F4F318320838A819B8185
:1017400093838283452B29F4F0934E03E0934D035A
:1017500042C01396FC93EE931297ED014991599173
:101760009E01240F351FE217F30771F480819181E8
:10177000840F951F029611969C938E93828193817C
:1017800013969C938E931297E0E0F0E0D8011296A6
:101790008D919C911397009719F0F8018C01F6CF69
:1017A0008D919C9198012E5F3F4F820F931F209146
:1017B0004B0330914C032817390769F4309729F40B
:1017C00010924E0310924D0302C0138212821093A6
:1017D0004C0300934B03DF91CF911F910F9108951C
:1017E00081E090E0F89409C0FB01DC0102C00190A7
:1017F0000D9241505040D8F7089511E0C6E1D1E074
:1018000000E005C0802FFE01B6DE2196011DC73124
:0C181000D10780E00807B1F7F894FFCF83
:10181C00FF00004F038000313233413435364237FC
:10182C003839432A302344000000001207140741C2
:10183C000500000000DB01490174012102A50183B0
:10184C000197010000000011040E04E703000000E2
:10185C00005A0500000000380549013E053D050011
:10186C000000001507557020707265737365640075
:10187C00446F776E20707265737365640054657382
:0C188C007400436F6E677261747321007A
:020000023000CC
:10E000000D9489F10D94B2F10D94B2F10D94B2F129
:10E010000D94B2F10D94B2F10D94B2F10D94B2F1F0
:10E020000D94B2F10D94B2F10D94B2F10D94B2F1E0
:10E030000D94B2F10D94B2F10D94B2F10D94B2F1D0
:10E040000D94B2F10D94B2F10D94B2F10D94B2F1C0
:10E050000D94B2F10D94B2F10D94B2F10D94B2F1B0
:10E060000D94B2F10D94B2F10D94B2F10D94B2F1A0
:10E070000D94B2F10D94B2F10D94B2F10D94B2F190
:10E080000D94B2F10D94B2F10D94B2F10D94B2F180
:10E090000D94B2F10D94B2F10D94B2F10D94B2F170
:10E0A0000D94B2F10D94B2F10D94B2F10D94B2F160
:10E0B0000D94B2F10D94B2F10D94B2F10D94B2F150
:10E0C0000D94B2F10D94B2F10D94B2F10D94B2F140
:10E0D0000D94B2F10D94B2F10D94B2F10D94B2F130
:10E0E0000D94B2F141546D656761323536300041AF
:10E0F000726475696E6F206578706C6F72657220DE
:10E1000073746B3530305632206279204D4C530099
:10E11000426F6F746C6F616465723E004875683F52
:10E1200000436F6D70696C6564206F6E203D200048
:10E130004350552054797065202020203D20005FF9
:10E140005F4156525F415243485F5F3D2000415658
:10E1500052204C696243205665723D20004743437C
:10E160002056657273696F6E203D20004350552024
:10E1700049442020202020203D20004C6F7720663D
:10E18000757365202020203D20004869676820665F
:10E190007573652020203D200045787420667573D6
:10E1A00065202020203D20004C6F636B2066757336
:10E1B000652020203D20004D617220203720323024
:10E1C000313300312E362E3800342E332E350056A2
:10E1D00023202020414444522020206F7020636F70
:10E1E00064652020202020696E73747275637469E1
:10E1F0006F6E2061646472202020496E74657272B3
:10E20000757074006E6F20766563746F7200726A49
:10E210006D702020006A6D70200057686174207056
:10E220006F72743A00506F7274206E6F7420737541
:10E2300070706F72746564004D7573742062652030
:10E2400061206C6574746572002000577269747483
:10E25000696E672045450052656164696E672045B7
:10E26000450045452065727220636E743D00504F35
:10E27000525400303D5A65726F2061646472003FF1
:10E280003D43505520737461747300403D454550C3
:10E29000524F4D207465737400423D426C696E6B41
:10E2A000204C454400453D44756D70204545505215
:10E2B0004F4D00463D44756D7020464C415348001B
:10E2C000483D48656C70004C3D4C69737420492F83
:10E2D0004F20506F72747300513D51756974005234
:10E2E0003D44756D702052414D00563D73686F7707
:10E2F00020696E7465727275707420566563746FF0
:10E30000727300593D506F727420626C696E6B00BD
:10E310002A0011241FBECFEFD1E2DEBFCDBF01E046
:10E320000CBF12E0A0E0B2E0EEE1FDEF03E00BBFB6
:10E3300002C007900D92A030B107D9F712E0A0E01B
:10E34000B2E001C01D92AE30B107E1F70F9460F367
:10E350000D948DFE01E20EBF0FEF0DBF11241FBE05
:10E360000D9460F30D9400F020E030E040ED57E0B4
:10E3700005C0FA013197F1F72F5F3F4F2817390792
:10E38000C0F308959C01260F311DC901A0E0B0E043
:10E390002F5F3F4FABBFFC018791882361F08093D3
:10E3A000C6008091C00086FFFCCF8091C0008064D1
:10E3B0008093C000EACF08958DE08093C6008091DD
:10E3C000C00086FFFCCF8091C00080648093C000B5
:10E3D0008AE08093C6008091C00086FFFCCF8091C8
:10E3E000C00080648093C00008950F94C2F10F9420
:10E3F000DCF10895FC019081992359F09093C600B7
:10E400008091C00086FFFCCF8091C0008064809323
:10E41000C0003196992379F70895282F982F929567
:10E420009F70892F805D8A3308F0895F8093C600D2
:10E430008091C00086FFFCCF8091C00080648093F3
:10E44000C000822F8F70982F905D9A3308F0995FEB
:10E450009093C6008091C00086FFFCCF8091C000E1
:10E4600080648093C00008959C01FB01853691056E
:10E470001CF46330710594F0C90164E670E00F94F8
:10E480002EFE605D7F4F6093C6008091C00086FFC6
:10E49000FCCF8091C00080648093C0002B30310598
:10E4A00014F43297B4F0C90164E670E00F942EFEC4
:10E4B0006AE070E00F942EFE605D7F4F6093C600AF
:10E4C0008091C00086FFFCCF8091C0008064809363
:10E4D000C000C9016AE070E00F942EFEC0968093E0
:10E4E000C6008091C00086FFFCCF8091C000806490
:10E4F0008093C00008951F93182F8EE692EE60E07F
:10E500000F94C2F11093C6008091C00086FFFCCF2B
:10E510008091C00080648093C0000F94DCF11F9153
:10E5200008952F923F924F925F926F927F928F92B7
:10E530009F92AF92BF92CF92DF92EF92FF920F9392
:10E540001F93DF93CF93CDB7DEB762970FB6F894E2
:10E55000DEBF0FBECDBF382E622ECA01DB015C01CB
:10E560006D01772420E2222E2E010894411C511CBB
:10E570008BC081E0A81680E0B80681E0C80680E084
:10E58000D80628F0C601AA27BB270F940DF2BB2797
:10E59000AD2D9C2D8B2D0F940DF28A2D0F940DF225
:10E5A0002092C6008091C00086FFFCCF8091C00001
:10E5B00080648093C0009DE29093C6008091C0006B
:10E5C00086FFFCCF8091C00080648093C0002092C1
:10E5D000C6008091C00086FFFCCF8091C00080649F
:10E5E0008093C00019828601750188249924A1E0D6
:10E5F0003A1651F03A1620F0B2E03B1661F409C029
:10E600000BBFF701779007C0C7010F9477FE782EF4
:10E6100002C0F7017080872D0F940DF22092C60082
:10E620008091C00086FFFCCF8091C0008064809301
:10E63000C000872D8052F401EF70F0708F3520F408
:10E64000E40DF51D708204C0E40DF51D8EE280839B
:10E650000894E11CF11C011D111D0894811C911CE2
:10E6600090E18916910409F0C2CF80E190E0A0E02A
:10E67000B0E0A80EB91ECA1EDB1E198AC2010F9493
:10E68000FAF10F94DCF16A94662009F072CF629679
:10E690000FB6F894DEBF0FBECDBFCF91DF911F91B3
:10E6A0000F91FF90EF90DF90CF90BF90AF909F9031
:10E6B0008F907F906F905F904F903F902F90089534
:10E6C0002F923F924F925F926F927F928F929F9282
:10E6D000AF92BF92CF92DF92EF92FF920F931F9370
:10E6E000DF93CF93CDB7DEB7CD53D1400FB6F894BB
:10E6F000DEBF0FBECDBF01E20EBF0FEF0DBF94B75F
:10E70000F894A89514BE80916000886180936000A1
:10E7100010926000789493FF05C0E0910002F091A0
:10E7200001021995279A2F9A8091C00082608093E8
:10E73000C00080E18093C40088E18093C1000000A4
:10E74000EE24FF24870144E0A42EB12CCC24DD2448
:10E7500024C0C5010197F1F70894E11CF11C011DCB
:10E76000111D21E2E2162EE4F20620E0020720E06D
:10E77000120718F031E0C32ED12CC801B70127ECE5
:10E780003BE140E050E00F9441FE611571058105C9
:10E79000910519F485B1805885B98091C00087FD35
:10E7A00003C0C114D104A9F2A6014F5F5F4FC25E3E
:10E7B000DE4F59834883CE51D140C25EDE4F8881FF
:10E7C0009981CE51D140019711F00D9410FEC05D9A
:10E7D000DE4F19821882C053D14060E0C15DDE4F28
:10E7E0001882CF52D14088249924C35DDE4F19820C
:10E7F0001882CD52D140C05EDE4F188219821A8233
:10E800001B82C052D140CE5CDE4F188219821A8220
:10E810001B82C253D140EE24FF2487010BBFF701B6
:10E8200007911691C45CDE4F19830883CC53D14005
:10E830000D940BFEC25EDE4F28813981CE51D1404E
:10E840002130310509F52091C600C25EDE4F1982E4
:10E850001882CE51D14022C02F5F3F4F4F4F5F4FA4
:10E86000213082E138078AE7480780E0580780F0C6
:10E87000C45CDE4FE881F981CC53D140EF5FFF4F9C
:10E8800019F0EE27FF27099420E030E040E050E047
:10E890008091C00087FFE0CF2091C600C35DDE4FAE
:10E8A00048815981CD52D1404F5F5F4FC35DDE4FEC
:10E8B00059834883CD52D140213209F063C64A3092
:10E8C000510508F05FC60894811C911C53E0851621
:10E8D000910409F059C600E010E018C081E280936D
:10E8E000C6008091C00086FFFCCF8091C00080648C
:10E8F0008093C0002F5F3F4F2931310579F70F9486
:10E90000DCF10F5F1F4F0530110519F020E030E0FA
:10E91000E5CF10920A0210920B0210920C02109294
:10E920000D02109206021092070210920802109235
:10E930000902109202021092030210920402109235
:10E9400005028FEE90EE60E00F94F5F180E191EE1C
:10E9500060E00F94C2F18091C00087FFFCCF9091DE
:10E96000C600903608F09F759032B8F09093C600BC
:10E970008091C00086FFFCCF8091C00080648093AE
:10E98000C000A0E2A093C6008091C00086FFFCCF2B
:10E990008091C00080648093C000983409F4D7C18E
:10E9A0009934B8F4923409F459C1933458F490333B
:10E9B00019F1903308F4E3C59F33A1F1903409F0C5
:10E9C000DEC5BDC0953409F470C1963409F0D7C5D1
:10E9D00098C1923509F42BC2933538F49C3409F46C
:10E9E000F5C1913509F0CBC518C2963509F445C279
:10E9F000993509F0C4C567C483E792EE62E00F94CD
:10EA0000F5F110920602109207021092080210927D
:10EA1000090210920A0210920B0210920C0210923C
:10EA20000D0213C18FE792EE62E00F94F5F18FEEC5
:10EA300090EE60E00F94F5F181E291EE60E00F94CA
:10EA4000C2F187EB91EE60E00F94F5F180E391EE77
:10EA500060E00F94C2F184EE90EE60E00F94F5F167
:10EA60008FE391EE60E00F94C2F186E090E061E008
:10EA700070E00F9434F20F94DCF18DE591EE60E0DC
:10EA80000F94C2F189EC91EE60E00F94F5F18EE401
:10EA900091EE60E00F94C2F183EC91EE60E00F9490
:10EAA000F5F18CE691EE60E00F94C2F18EE10F94E7
:10EAB0000DF288E90F940DF281E00F940DF20F949E
:10EAC000DCF18BE791EE60E00F94C2F119E0E0E039
:10EAD000F0E010935700E4918E2F0F940DF20F94F5
:10EAE000DCF18AE891EE60E00F94C2F1E3E0F0E03F
:10EAF00010935700E4918E2F0F940DF20F94DCF1D8
:10EB000089E991EE60E00F94C2F1E2E0F0E0109349
:10EB10005700E4918E2F0F940DF20F94DCF188EAE8
:10EB200091EE60E00F94C2F1E1E0F0E01093570045
:10EB30001491812F0F940DF20F94DCF107CF8BE825
:10EB400092EE62E00F94F5F18BE492EE60E00F94A8
:10EB5000F5F10F94DCF100E010E019C0C8016F2D51
:10EB60000F947FFEFF2031F489E492EE60E00F9471
:10EB7000C2F10BC0F092C6008091C00086FFFCCFAE
:10EB80008091C00080648093C0000F5F1F4FC80158
:10EB900081519F41A0E0B0E0ABBFFC01F790BAE229
:10EBA000FB1621F0E2E000301E07C1F60F94DCF105
:10EBB0000F94DCF187E592EE60E00F94F5F10F948D
:10EBC000DCF1CC24DD2400E010E01EC0C8010F946D
:10EBD00077FEF82E882331F489E492EE60E00F94FA
:10EBE000C2F10BC08093C6008091C00086FFFCCFAD
:10EBF0008091C00080648093C000FE1419F00894D6
:10EC0000C11CD11C0F5F1F4FC80181519F41A0E063
:10EC1000B0E0ABBFFC01E790FAE2EF1621F022E092
:10EC20000030120799F60F94DCF10F94DCF182E6C4
:10EC300092EE60E00F94C2F1C60161E070E00F94C3
:10EC400034F20F94DCF10F94DCF110920202109276
:10EC50000302109204021092050278CE89E992EE26
:10EC600062E00F94F5F1279A2F9A16C02F9880E052
:10EC700090E0E0EDF7E03197F1F7019684369105E9
:10EC8000C1F72F9A80E090E0E0EDF7E03197F1F7DF
:10EC9000019684369105C1F78091C00087FFE6CFC9
:10ECA0008091C00087FFFCCF64C485EA92EE62E0E9
:10ECB0000F94F5F140910202509103026091040219
:10ECC0007091050281E020E10F9491F2809102029F
:10ECD00090910302A0910402B091050280509F4FD1
:10ECE000AF4FBF4F8093020290930302A0930402A0
:10ECF000B093050280509041A040B04008F426CE69
:10ED0000A4CF83EB92EE62E00F94F5F140910602FE
:10ED100050910702609108027091090280E020E1A1
:10ED20000F9491F28091060290910702A09108023F
:10ED3000B091090280509F4FAF4FBF4F80930602A2
:10ED400090930702A0930802B0930902FFCD80ECD4
:10ED500092EE62E00F94F5F183E792EE60E00F949B
:10ED6000F5F18FE792EE60E00F94F5F18BE892EE0B
:10ED700060E00F94F5F189E992EE60E00F94F5F10F
:10ED800085EA92EE60E00F94F5F183EB92EE60E09D
:10ED90000F94F5F180EC92EE60E00F94F5F187ECC2
:10EDA00092EE60E00F94F5F188ED92EE60E00F9442
:10EDB000F5F18FED92EE60E00F94F5F18AEE92EEB0
:10EDC00060E00F94F5F183E093EEBDCD87EC92EE19
:10EDD00062E00F94F5F181E40F947BF282E40F94EA
:10EDE0007BF283E40F947BF284E40F947BF285E45E
:10EDF0000F947BF286E40F947BF287E40F947BF20E
:10EE000088E40F947BF28AE40F947BF28BE40F94F6
:10EE10007BF28CE40F947BF299CD88ED92EE62E068
:10EE20000F94F5F1772473948824992409C48FED05
:10EE300092EE62E00F94F5F140910A0250910B02BC
:10EE400060910C0270910D0282E020E10F9491F22A
:10EE500080910A0290910B02A0910C02B0910D02D8
:10EE600080509F4FAF4FBF4F80930A0290930B0289
:10EE7000A0930C02B0930D0269CD8AEE92EE62E08F
:10EE80000F94F5F184EE90EE60E00F94F5F18FECC5
:10EE900091EE60E00F94F5F1662477244301CC5D98
:10EEA000DE4F19821882C452D140D401C301B695F5
:10EEB000A79597958795CA5DDE4F88839983AA8326
:10EEC000BB83C652D140CC5DDE4FA881B981C4520C
:10EED000D1401196CC5DDE4FB983A883C452D14096
:10EEE000CD0162E070E00F9434F2B0E2B093C6005E
:10EEF0008091C00086FFFCCF8091C0008064809329
:10EF0000C000EDE2E093C6008091C00086FFFCCF18
:10EF10008091C00080648093C000F0E2F093C6004E
:10EF20008091C00086FFFCCF8091C00080648093F8
:10EF3000C000CA5DDE4FE880F9800A811B81C6529D
:10EF4000D140BB27A12F902F8F2D0F940DF2CA5DBA
:10EF5000DE4F8881C652D1400F940DF2B0E2FB2EF5
:10EF6000F092C6008091C00086FFFCCF8091C00067
:10EF700080648093C0000DE30093C6008091C000C0
:10EF800086FFFCCF8091C00080648093C00010E2B7
:10EF90001093C6008091C00086FFFCCF8091C00016
:10EFA00080648093C0008BBEF3012791C65DDE4F65
:10EFB0002883CA52D140A22EBB24CC24DD2408943D
:10EFC000611C711C811C911C8BBEF3018791282E42
:10EFD0003324442455240894611C711C811C911C09
:10EFE0008BBEF3013791C55DDE4F3883CB52D140E4
:10EFF0000894611C711C811C911C8BBEF30147910C
:10F00000C45DDE4F4883CC52D140ADEFEA2EAFEF66
:10F01000FA2EAFEF0A2FAFEF1A2F6E0C7F1C801E57
:10F02000911E142D032DF22CEE24EA0CFB1C0C1D5A
:10F030001D1D0F940DF220E22093C6008091C000A8
:10F0400086FFFCCF8091C00080648093C000C65DC5
:10F05000DE4F8881CA52D1400F940DF230E23093D6
:10F06000C6008091C00086FFFCCF8091C000806404
:10F070008093C000C45DDE4F8881CC52D1400F9494
:10F080000DF240E24093C6008091C00086FFFCCFA5
:10F090008091C00080648093C000C55DDE4F888190
:10F0A000CB52D1400F940DF250E25093C6008091A4
:10F0B000C00086FFFCCF8091C00080648093C000B8
:10F0C0008FEFE8168FEFF80680E0080780E018075A
:10F0D00031F484E092EE60E00F94C2F1DFC0D80119
:10F0E000C7018070907CA070B0708050904CA040A0
:10F0F000B040D1F52FEF3FE340E050E0E222F322B1
:10F1000004231523CA5DDE4FA880B980CA80DB8046
:10F11000C652D140AE0CBF1CC01ED11EAA0CBB1CD7
:10F12000CC1CDD1C8EE092EE60E00F94C2F1BB2798
:10F13000A12F902F8F2D0F940DF28E2D0F940DF285
:10F1400030E23093C6008091C00086FFFCCF8091F2
:10F15000C00080648093C0004EE34093C60080915D
:10F16000C00086FFFCCF87C08EE09EEFA0E0B0E03D
:10F17000E822F9220A231B239CE0E91694E9F90608
:10F1800090E0090790E0190709F088C0C45DDE4FE0
:10F19000A881CC52D140EA2EFF2400E010E0102FCD
:10F1A0000F2DFE2CEE24C55DDE4FB881CB52D14031
:10F1B000EB0EF11C011D111DD601C501817090706F
:10F1C000A070B070DC0199278827E80EF91E0A1F8D
:10F1D0001B1F20EF30E040E050E0A222B322C42207
:10F1E000D52241E1AA0CBB1CCC1CDD1C4A95D1F7F1
:10F1F000EA0CFB1C0C1D1D1D81E090E0A0E0B0E0BE
:10F20000282239224A225B2235E1220C331C441C7D
:10F21000551C3A95D1F7E20CF31C041D151D57013E
:10F220006801AA0CBB1CCC1CDD1C85E192EE60E0E1
:10F230000F94C2F1C801AA27BB270F940DF2BB2778
:10F24000A12F902F8F2D0F940DF28E2D0F940DF274
:10F2500090E29093C6008091C00086FFFCCF809121
:10F26000C00080648093C000AEE3A093C60080918C
:10F27000C00086FFFCCF8091C00080648093C000F6
:10F28000C601AA27BB270F940DF2BB27AD2D9C2DDD
:10F290008B2D0F940DF28A2D0F940DF20F94DCF14B
:10F2A000CC5DDE4FE881F981C452D140F99709F471
:10F2B0004DCBF4E0EF2EF12C012D112D6E0C7F1CA7
:10F2C000801E911EF2CD83E093EE62E00F94F5F183
:10F2D0008AE192EE60E00F94C2F18091C00087FF56
:10F2E000FCCF1091C6001F751093C6008091C0001E
:10F2F00086FFFCCF8091C00080648093C0000F9493
:10F30000DCF1812F81548A3108F036C1163409F4BA
:10F3100095C0173490F4133409F44EC0143430F40B
:10F320001134F1F0123409F01DC130C0143409F465
:10F3300059C0153409F016C16BC01A3409F4C4C0A1
:10F340001B3438F4173409F48FC0183409F00AC19B
:10F35000A1C01B3409F4D2C01C3409F003C1E8C0B9
:10F360008FEF81B90DC082B1809582B980E090E0C5
:10F37000E0EDF7E03197F1F70196883C9105C1F790
:10F380008091C00087FFEFCF12B8EFC08FEF84B934
:10F390000DC085B1809585B980E090E0E0EDF7E0A3
:10F3A0003197F1F70196883C9105C1F78091C00033
:10F3B00087FFEFCF15B8D9C08FEF87B90DC088B1DF
:10F3C000809588B980E090E0E0EDF7E03197F1F7C3
:10F3D0000196883C9105C1F78091C00087FFEFCF6F
:10F3E00018B8C3C08FEF8AB90DC08BB180958BB9A7
:10F3F00080E090E0E0EDF7E03197F1F70196883C8E
:10F400009105C1F78091C00087FFEFCF1BB8ADC059
:10F410008FEF8DB90DC08EB180958EB980E090E0F0
:10F42000E0EDF7E03197F1F70196883C9105C1F7DF
:10F430008091C00087FFEFCF1EB897C08FEF80BBD1
:10F440000DC081B3809581BB80E090E0E0EDF7E0F6
:10F450003197F1F70196883C9105C1F78091C00082
:10F4600087FFEFCF11BA81C08FEF83BB0DC084B38C
:10F47000809584BB80E090E0E0EDF7E03197F1F714
:10F480000196883C9105C1F78091C00087FFEFCFBE
:10F4900014BA6BC08FEF809301010FC080910201FD
:10F4A00080958093020180E090E0E0EDF7E03197F5
:10F4B000F1F70196883C9105C1F78091C00087FF64
:10F4C000EDCF1092020151C08FEF809304010FC065
:10F4D0008091050180958093050180E090E0E0ED4A
:10F4E000F7E03197F1F70196883C9105C1F78091DB
:10F4F000C00087FFEDCF1092050137C08FEF8093DA
:10F5000007010FC08091080180958093080180E079
:10F5100090E0E0EDF7E03197F1F70196883C910536
:10F52000C1F78091C00087FFEDCF109208011DC088
:10F530008FEF80930A010FC080910B01809580931B
:10F540000B0180E090E0E0EDF7E03197F1F70196F4
:10F55000883C9105C1F78091C00087FFEDCF1092E4
:10F560000B0103C085E292EEEEC98091C00087FFD7
:10F57000FCCF8091C600EAC988E392EEE4C98CE131
:10F5800091EEE1C988249924933011F1943028F444
:10F59000913089F09230B8F408C0953061F195301F
:10F5A000F0F0963009F048C043C02B3109F042C951
:10F5B00091E06BE13FC96227C15DDE4F2883CF52E6
:10F5C000D14092E037C9B22FA0E0622793E032C960
:10F5D000822F90E0A82BB92B622794E02BC92E3004
:10F5E00009F039C3622795E0C05DDE4F19821882A9
:10F5F000C053D1401FC9E1E0F0E0EC0FFD1FC05D3A
:10F60000DE4F08811981C053D140E00FF11F2083E4
:10F610000F5F1F4FC05DDE4F19830883C053D14079
:10F6200062270A171B0709F005C9D80196E002C92D
:10F63000261709F010C303C0973009F0FBC87724E0
:10F640009981933109F412C19431C8F4963009F4C8
:10F65000D8C0973050F4923009F406C1933009F4C1
:10F660006DC0913009F059C253C0913109F477C08F
:10F67000923108F0BBC0903109F04FC2F5C098310B
:10F6800009F487C0993150F4953109F4EFC09531F0
:10F6900008F4C6C1963109F040C2C2C19A3109F4DA
:10F6A0006CC09A3108F491C09B3109F45BC09D3164
:10F6B00009F033C29D81903359F48F81882311F46E
:10F6C0009EE11CC0813011F091E018C098E916C08D
:10F6D000892F807591F0903539F4E0E0F0E089E011
:10F6E0008093570094910AC0983539F4E3E0F0E034
:10F6F00089E080935700949101C090E01A821B82A8
:10F700008D818C831D829E831F8227E030E009C299
:10F710001A8288E08B8381E48C8386E58D8382E581
:10F720008E8389E48F8383E5888780E589878FE5E9
:10F730008A8782E38B872BE030E0F3C18A818139AD
:10F7400041F0823941F0803911F48FE005C080E04A
:10F7500003C082E001C08AE01A828B8344C0772410
:10F76000739482C08D81882311F48EE12CC0813086
:10F7700011F081E028C088E926C01A82E1E0F0E0BB
:10F7800089E08093570084918B831C8224E030E0D1
:10F79000C8C18B81803589F48C81883039F4E2E0EE
:10F7A000F0E089E08093570084910DC0E0E0F0E044
:10F7B00089E080935700849106C0E3E0F0E089E09F
:10F7C0008093570084911A82DFCF8D81836C99E0FA
:10F7D000E1E0F0E0082E90935700E89507B600FCB2
:10F7E000FDCF1A821B8223E030E09BC180EC8A832C
:10F7F000CE5CDE4F188219821A821B82C253D1401E
:10F800008EC18A8190E0A0E0B0E0582F44273327D2
:10F8100022278B8190E0A0E0B0E0DC0199278827C7
:10F82000282B392B4A2B5B2B8D8190E0A0E0B0E098
:10F83000282B392B4A2B5B2B8C8190E0A0E0B0E089
:10F84000BA2FA92F982F8827282B392B4A2B5B2BCF
:10F85000220F331F441F551FC05EDE4F288339839C
:10F860004A835B83C052D1401A8259C13A81C95C34
:10F87000DE4F3883C753D140CA5CDE4F1882C6536F
:10F88000D1408B81C82EDD24CA5CDE4F488159816E
:10F89000C653D140C42AD52A933109F082C0CE5C28
:10F8A000DE4F88819981AA81BB81C253D1408050AB
:10F8B000904CA340B04030F583E0CE5CDE4FE88052
:10F8C000F9800A811B81C253D140F70100935B008C
:10F8D00080935700E89507B600FCFDCFCE5CDE4F65
:10F8E000088119812A813B81C253D14000501F4FAA
:10F8F0002F4F3F4FCE5CDE4F088319832A833B8313
:10F90000C253D140C05EDE4F488159816A817B81FC
:10F91000C052D140DE011B9631E08C9111962C91A2
:10F9200011971296C75CDE4F2883C953D140C85C3B
:10F93000DE4F1882C853D14090E0C85CDE4FE881AA
:10F94000F981C853D1408E2B9F2B0C01FA01609393
:10F950005B0030935700E89511244E5F5F4F6F4F67
:10F960007F4F0EEFE02E0FEFF02ECE0CDF1CC114F8
:10F97000D10499F685E0C05EDE4F088119812A81A5
:10F980003B81C052D140F80120935B008093570027
:10F99000E89507B600FCFDCF81E180935700E8951C
:10F9A00035C0C05EDE4F88819981AA81BB81C0527B
:10F9B000D140B695A795979587957C018601ABE0D8
:10F9C000AA2EB12CAC0EBD1E0BC0D5016D915D01F0
:10F9D000C7010F947FFE0894E11CF11C01501040F8
:10F9E0000115110591F7A60160E070E0440F551F65
:10F9F000661F771FC05EDE4FE880F9800A811B8199
:10FA0000C052D1404E0D5F1D601F711F1A82C05E33
:10FA1000DE4F488359836A837B83C052D1407FC0C5
:10FA2000FA80C55CDE4FF882CB53D140C65CDE4F16
:10FA30001882CA53D1408B81C82EDD24C65CDE4FAC
:10FA400008811981CA53D140C02AD12A1A828981DA
:10FA5000BE016D5F7F4F843121F59601C05EDE4FA0
:10FA6000E880F9800A811B81C052D1400BBFF701A9
:10FA700087919691DB018C9311969C936E5F7F4FDB
:10FA8000D801C7010296A11DB11DC05EDE4F88835B
:10FA90009983AA83BB83C052D14022503040F1F6F3
:10FAA00036C0C05EDE4F288139814A815B81C052F9
:10FAB000D1400894C108D108760100E010E0089414
:10FAC000C11CD11C0894E11CF11C011D111DE20E8A
:10FAD000F31E041F151F21BDBB27A52F942F832FB5
:10FAE00082BD2F5F3F4F4F4F5F4FF89A80B5DB01CC
:10FAF0008D93BD012E153F054007510761F7C05E8C
:10FB0000DE4F288339834A835B83C052D1409601FC
:10FB10002D5F3F4FFB01108204C080EC8A8322E0FE
:10FB200030E08BE18093C6008091C00086FFFCCF5F
:10FB30008091C00080648093C000C15DDE4FF88179
:10FB4000CF52D140F093C6008091C00086FFFCCF19
:10FB50008091C00080648093C000432F3093C60022
:10FB60008091C00086FFFCCF8091C00080648093AC
:10FB7000C000922F2093C6008091C00086FFFCCF6A
:10FB80008091C00080648093C0008EE08093C600A6
:10FB90008091C00086FFFCCF8091C000806480937C
:10FBA000C00065E1C15DDE4FE880CF52D1406E25D7
:10FBB00069276427FE01319610C090819093C6009A
:10FBC0008091C00086FFFCCF31968091C000806498
:10FBD0008093C0006927215030402115310569F715
:10FBE0006093C6008091C00086FFFCCF8091C0006A
:10FBF00080648093C00085B1805885B9772081F4F6
:10FC0000C15DDE4F0881CF52D1400F5FC15DDE4F35
:10FC10000883CF52D14090E0A0E0B0E00D941AF4F8
:10FC200027982F9880E090E020ED37E0F901319798
:10FC3000F1F7019684369105C9F700008091C00064
:10FC40008D7F8093C00081E180935700E895EE2777
:10FC5000FF270994FFCF90E00D941AF497FB092E2B
:10FC600007260AD077FD04D02ED006D000201AF443
:10FC7000709561957F4F0895F6F7909581959F4F08
:10FC80000895A1E21A2EAA1BBB1BFD010DC0AA1FDD
:10FC9000BB1FEE1FFF1FA217B307E407F50720F0F5
:10FCA000A21BB30BE40BF50B661F771F881F991F70
:10FCB0001A9469F760957095809590959B01AC01B9
:10FCC000BD01CF010895AA1BBB1B51E107C0AA1FAC
:10FCD000BB1FA617B70710F0A61BB70B881F991FED
:10FCE0005A95A9F780959095BC01CD010895F99991
:10FCF000FECF92BD81BDF89A992780B50895262F31
:10FD0000F999FECF1FBA92BD81BD20BD0FB6F89400
:0EFD1000FA9AF99A0FBE01960895F894FFCF63
:040000033000E000E9
:00000001FF