:1000000016C1000045C1000043C1000041C100000D
:100010003FC100003DC100003BC1000039C10000EC
:1000200037C1000035C1000033C1000031C10000FC
:100030002FC100001FC700002BC1000029C1000014
:1000400027C1000025C1000023C1000021C100001C
:100050001FC100001DC100001BC100000C94370827
:1000600017C10000CEC70000A3C7000011C10000E7
:100070000FC100000DC100000BC1000009C100004C
:1000800007C1000005C1000003C1000001C100005C
:10009000FFC00000FDC00000FBC00000F9C0000070
:1000A000F7C00000F5C00000F3C00000F1C0000080
:1000B000EFC00000EDC00000EBC00000E9C0000090
:1000C000E7C00000E5C00000E3C00000E1C00000A0
:1000D000DFC00000DDC00000DBC00000D9C00000B0
:1000E000D7C000009502980287028B029102CF02CE
:1000F0009C02A002A602AA02AE02B402B802BC028E
:10010000CF02C202C602CA0200002000230026005D
:1001100029002C002F00320000010000030106011D
:10012000090100002100240027002A002D003000D2
:10013000330001010000040107010A010000220050
:10014000250028002B002E003100340002010000A1
:10015000050108010B010505050507050808080844
:10016000020202020A0A080804040404010101014F
:10017000010101010303030303030303040707074A
:100180000C0C0C0C0C0C0C0C0202020206060606EF
:10019000060606060B0B0B0B0B0B0B0B01021020BC
:1001A00020080810204010204080020102010804AD
:1001B0000201010204081020408080402010080441
:1001C000020180040201804020100804020108049A
:1001D00002010102040810204080010204081020DE
:1001E000408000000A0B02090C0D0E0807030401F1
:1001F00000000000000000000000000000000000FF
:1002000000000000000000000000000000001211CB
:1002100010000000000000000000000000000000CE
:10022000000000000000000002008108A50A11245F
:100230001FBECFEFD1E2DEBFCDBF00E00CBF12E0AA
:10024000A0E0B2E0E8E4F8E100E00BBF02C00790F4
:100250000D92AC37B107D9F723E0ACE7B2E001C0AB
:100260001D92AF34B207E1F711E0C6E1D1E000E042
:1002700006C021970109802FFE010E94D10AC531D5
:10028000D10780E00807A9F70E946D090C94130CB0
:10029000B7CECF92DF92EF92FF920F931F93CF933F
:1002A000DF936C017A018B01C0E0D0E0CE15DF0551
:1002B00089F0D8016D918D01D601ED91FC910190ED
:1002C000F081E02DC6011995892B11F47E0102C041
:1002D0002196ECCFC701DF91CF911F910F91FF9035
:1002E000EF90DF90CF900895FC01538D448D252F22
:1002F00030E0842F90E0821B930B541710F0CF96C0
:10030000089501970895FC01918D828D981761F0F1
:10031000828DDF01A80FB11D5D968C91928D9F5F3C
:100320009F73928F90E008958FEF9FEF0895FC01E7
:10033000918D828D981731F0828DE80FF11D858D9A
:1003400090E008958FEF9FEF0895FC01918D228D2D
:10035000892F90E0805C9F4F821B91098F739927B2
:10036000089585EA92E0F1DF21E0892B09F420E08D
:10037000822F0895FC01848DDF01A80FB11DA35ABF
:10038000BF4F2C91848D90E001968F739927848FB5
:10039000A689B7892C93A089B1898C9180648C93AC
:1003A000938D848D981306C00288F389E02D808197
:1003B0008F7D80830895EF92FF920F931F93CF93C9
:1003C000DF93EC0181E0888F9B8D8C8D981305C0A5
:1003D000E889F989808185FD23C0F62E0B8D10E018
:1003E0000F5F1F4F0F731127E02E8C8DE8120BC08B
:1003F0000FB607FCFACFE889F989808185FFF5CF30
:10040000CE01B8DFF2CF8B8DFE01E80FF11DE35A6C
:10041000FF4FF0820B8FEA89FB898081806207C0E1
:10042000EE89FF896083E889F9898081806480830F
:1004300081E090E0DF91CF911F910F91FF90EF90BD
:100440000895CF93DF93EC01888D8823C1F0EA896A
:10045000FB89808185FD05C0A889B9898C9186FDBD
:100460000EC00FB607FCF5CF808185FFF2CFA889BB
:10047000B9898C9185FFEDCFCE017CDFE8CFDF918C
:10048000CF91089580E090E0892B19F06ADF811107
:1004900025C080E090E0892B41F080E090E0892B3E
:1004A00021F00E94000081111CC080E090E0892BA7
:1004B00041F080E090E0892B21F00E940000811142
:1004C00013C080E090E0892BA1F080E090E0892BC0
:1004D00081F00E94000081110AC008950E9400006E
:1004E000D8CF0E940000E1CF0E940000EACF0C9418
:1004F0000000089590E0FC013197E231F10508F029
:100500004EC08827EE58FF4F8F4F0C94D10A809130
:1005100080008F7703C0809180008F7D8093800062
:10052000089580918000877FF9CF84B58F7702C0CE
:1005300084B58F7D84BD08958091B0008F7703C00E
:100540008091B0008F7D8093B000089580919000DD
:100550008F7707C0809190008F7D03C080919000BD
:10056000877F8093900008958091A0008F7707C0C7
:100570008091A0008F7D03C08091A000877F809331
:10058000A0000895809120018F7707C080912001FD
:100590008F7D03C080912001877F80932001089583
:1005A0001F93CF93DF93282F30E0F901EE51FE4FD8
:1005B0008491F901E456FE4FD491F901EA5AFE4FB5
:1005C000C491CC23C1F0162F811194DFEC2FF0E001
:1005D000EE0FFF1FE45CFE4FA591B4918FB7F89426
:1005E000111105C09C91ED2FE095E92302C0EC911B
:1005F000ED2BEC938FBFDF91CF911F910895CF9397
:10060000DF9390E0FC01E456FE4F2491FC01EA5A8E
:10061000FE4F8491882361F190E0880F991FFC01BF
:10062000EE5DFE4FC591D491FC01E45CFE4FA591B7
:10063000B491611109C09FB7F894888120958223F5
:100640008883EC912E230BC0623061F49FB7F8943D
:100650003881822F809583238883EC912E2B2C93D5
:100660009FBF06C08FB7F894E8812E2B28838FBFD9
:10067000DF91CF9108952FB7F89460919A0270910D
:100680009B0280919C0290919D022FBF0895DC01F6
:1006900026E0629FA00DB11D112490965C934E93AD
:1006A0005F9721E091962C939197FC01E459FF4FBD
:1006B000208131960190F081E02D222331F0309796
:1006C00049F0611107C0DC0102C0309719F05C9657
:1006D0008C91199408956F927F928F929F92AF920E
:1006E000BF92CF92DF92EF92FF921F93CF93DF934F
:1006F0001F92CDB7DEB73C01162FFC0186E0689F44
:10070000E00DF11D112411A2878D90A1813091057A
:10071000E9F01CF4892B51F04BC08230910599F11E
:10072000039709F045C040E050E031C0442309F48C
:100730003FC041E050E0C301AADF9DDFF301E85A6A
:10074000FF4F608371838283938332C0498393DF39
:10075000F301E85AFF4FC080D180E280F3804B0163
:100760005C018C189D08AE08BF087296808191814B
:10077000A0E0B0E0498188159905AA05BB0518F4E9
:1007800042E050E004C0411113C043E050E0612F4B
:10079000C3010F90DF91CF911F91FF90EF90DF90F9
:1007A000CF90BF90AF909F908F907F906F906FCFC2
:1007B0000F90DF91CF911F91FF90EF90DF90CF903E
:1007C000BF90AF909F908F907F906F900895CF9340
:1007D000DF9370E0FB01EE51FE4F8491FB01E45684
:1007E000FE4FD491FB01EA5AFE4FC491CC2389F00D
:1007F000811180DEEC2FF0E0EE0FFF1FE85FFE4F6F
:10080000A591B491EC91ED2381E090E021F480E09A
:1008100002C080E090E0DF91CF910895862F642F91
:10082000BFCE862F642FEBCECF93DF93EC0160E039
:100830008E81B6DE61E08E81B3DE60E08E81B0DE57
:100840008BE891E00197F1F7DF91CF910895CF9276
:10085000DF92EF92FF920F931F93CF93DF937C0170
:100860006C0187E0C80ED11CC0E0D0E0062F10E07C
:10087000B8010C2E02C0759567950A94E2F7617075
:10088000F60181916F018CDE2196C430D10581F78C
:10089000C701DF91CF911F910F91FF90EF90DF90F3
:1008A000CF90C2CFCF92DF92EF92FF920F931F9320
:1008B000CF93DF93EC01F62E642F8C8171DE8D8156
:1008C0008F3F11F060E06CDE8F850F2D10E084FF0C
:1008D00023C06E0187E0C80ED11CE12CF12CB801B9
:1008E0000E2C02C0759567950A94E2F76170F601C7
:1008F00081916F0155DEFFEFEF1AFF0A88E0E816DD
:10090000F10469F7CE01DF91CF911F910F91FF9014
:10091000EF90DF90CF9088CFB80184E07595679510
:100920008A95E1F7CE0193DF6F2DCE01DF91CF9154
:100930001F910F91FF90EF90DF90CF9088CF41E013
:10094000B1DF81E090E0089540E0ACCFEF92FF92FC
:100950000F931F93CF93DF93EC01423018F08F85F4
:1009600088608F874B8B1C8A80E48D8B6E8B70E048
:10097000605C7F4F6F8B61E08C8141DE8D818F3FAA
:1009800011F061E03CDE61E08E8139DE7E0187E0BE
:10099000E80EF11C00E010E08F8584FD03C084E0C8
:1009A00090E002C088E090E00817190744F461E085
:1009B000F70181917F0123DE0F5F1F4FEDCF8BE3A6
:1009C0009DE00197F1F760E08C81EADD60E08E81C7
:1009D000E7DD8D818F3F11F060E0E2DD6F8564FD22
:1009E00019C063E0CE0133DF0BE416E4C8010197C0
:1009F000F1F763E0CE012BDFC8010197F1F763E067
:100A0000CE0125DF83E592E00197F1F762E0CE01A8
:100A10001EDF13C06062CE0197DF8BE496E401977E
:100A2000F1F76F856062CE018FDF83E592E0019779
:100A3000F1F76F856062CE0187DF6F856062CE015E
:100A400083DF84E0888B6CE0CE017EDF61E0CE0145
:100A50007BDF8BE39FE10197F1F782E0898B66E012
:100A6000CE01DF91CF911F910F91FF90EF906CCF4E
:100A7000089580E090E00895CF93DF93EC01DB01CF
:100A8000ED91FC910190F081E02DCB01199583301F
:100A900019F485E592E004C0843031F480E692E0F8
:100AA0009D838C8381E001C080E0DF91CF91089528
:100AB0002F923F924F925F926F927F928F929F926E
:100AC000AF92BF92CF92DF92EF92FF920F931F935C
:100AD000CF93DF93CDB7DEB72E970FB6F894DEBF76
:100AE0000FBECDBF9E878D878A579F4F9A8389837C
:100AF00081E0A981BA818C93BEDD2D853E852A587F
:100B00003F4F3C832B83D9010D911D912D913C9139
:100B1000AB01BC01401B510B620B730BED85FE85D5
:100B2000EE57FF4F80819181A0E0B0E084179507D8
:100B3000A607B70708F046C10D851E85065E1F4F44
:100B4000F12C2D843E84B0E82B0E311CCD84DE8444
:100B5000ECE7CE0ED11CF1018081F81658F4D601D5
:100B6000ED91FC91EF0DF11D42E06081C80159DE6D
:100B7000F394F1CF912C2D853E852F573F4F3E8327
:100B80002D83CD84DE843EE7C30ED11C412C512C35
:100B9000320143942D853E8524583F4F38872F835B
:100BA000AD81BE818C91981608F064C0A92CB12C3F
:100BB000D601ED91FC91EA0DFB1D41E06081C80179
:100BC00030DED601ED91FC91EA0DFB1D40E0608125
:100BD000C80124DED301C201092C04C0880F991F6B
:100BE000AA1FBB1F0A94D2F7AC019C012095309537
:100BF000812CF1018081881640F5E82CF12CAF8121
:100C0000B885ED91FC91EE0DFF1D6081C8012B8729
:100C10003C8749875A87DBDDEE0CFF1C2B853C8522
:100C200049855A85ED85FE85EE0DFF1D892B29F43A
:100C300082A193A1842B952B04C082A193A182232E
:100C4000932393A382A38394D4CFD601ED91FC91F7
:100C5000EA0DFB1D41E06081C801E0DDF601808105
:100C60009181FC01EA0DFB1D40E06081C801D9DDE6
:100C7000939496CFED84FE84B6E3EB0EF11C8D8544
:100C80009E858E589F4FF7012FEF3FEF4381548190
:100C9000452B21F410823283218315823696E81782
:100CA000F907A1F7912CCD84DE84EAE7CE0ED11CA2
:100CB000AD84BE84F7E3AF0EB11C86E0882EF1014F
:100CC0008081981608F057C0712C4D845E84490CC1
:100CD000511C490C511C32E2430E511CAD81BE81A6
:100CE0008C91781608F045C0D2014D915C91072C8B
:100CF00002C0569547950A94E2F741705527989E91
:100D0000C0011124870D911DD601ED91FC91E80FD2
:100D1000F91FA081F50160E0208131812817390792
:100D200011F441701BC06F5F36966A30A9F7452BEE
:100D3000F1F0F70160E070E02081211112C0869E81
:100D4000F001879EF00D11242D853E85E20FF31FE3
:100D5000A6AB90AF87AB12AE11AE41E0C801BBDCD1
:100D600006C06F5F7F4F36966A30710529F773941E
:100D7000B5CF9394A4CFED85FE85FB968D859E859A
:100D800089589F4F10E02081211111E03696E81715
:100D9000F907C9F770DCAB81BC816D937D938D93AE
:100DA0009C931397112371F0ED85FE8583AD882305
:100DB00049F081AD92AD8130910521F426A92A3206
:100DC000B1F004C0A981BA811C9206C0233239F067
:100DD000213441F0243449F080E090E008C082E002
:100DE00090E005C083E090E002C084E090E02E96A1
:100DF0000FB6F894DEBF0FBECDBFDF91CF911F912C
:100E00000F91FF90EF90DF90CF90BF90AF909F90A9
:100E10008F907F906F905F904F903F902F900895AC
:100E20000895F4D45BC40F931F93CF93DF938B018A
:100E3000EC01229661E0CE0187DD8BE39FE1019713
:100E4000F1F7F801648175816115710571F0FB019D
:100E500001900020E9F73197AF01461B570BCE01F7
:100E6000DF91CF911F910F9114CADF91CF911F9104
:100E70000F9108951F920F920FB60F9211240BB687
:100E80000F922F933F934F935F936F937F938F9323
:100E90009F93AF93BF93EF93FF938091A1029091A3
:100EA000A202A091A302B091A402892B8A2B8B2BC2
:100EB00059F18091A002E0919E02F0919F029081F1
:100EC000892780838091A1029091A202A091A30220
:100ED000B091A402181619061A061B060CF055C08C
:100EE0008091A1029091A202A091A302B091A402CC
:100EF0000197A109B1098093A1029093A202A09346
:100F0000A302B093A40241C080910002E8E2F2E0A3
:100F1000E4919FEF90930002E230C9F050F4EE2389
:100F200099F0E13081F590916F009D7F90936F0073
:100F30002AC0E43019F1E0F0E53029F59091730012
:100F40009D7F909373001FC010926E001CC0909103
:100F500070009D7F9093700091E09093B00090910D
:100F6000B100987F94609093B1001092B3000BC0D1
:100F7000909171009D7F9093710005C090917200D7
:100F80009D7F9093720060E00BDBFF91EF91BF912A
:100F9000AF919F918F917F916F915F914F913F9111
:100FA0002F910F900BBE0F900FBE0F901F901895B2
:100FB0001F920F920FB60F9211240BB60F922F9320
:100FC0003F934F935F936F937F938F939F93AF93D1
:100FD000BF93EF93FF9385EA92E0CCD9FF91EF9115
:100FE000BF91AF919F918F917F916F915F914F9141
:100FF0003F912F910F900BBE0F900FBE0F901F903F
:1010000018951F920F920FB60F9211240BB60F92E4
:101010002F938F939F93EF93FF93E091B502F091FD
:10102000B6028081E091BB02F091BC0282FD12C049
:1010300090818091BE028F5F8F732091BF028217D3
:1010400051F0E091BE02F0E0EB55FD4F958F80939B
:10105000BE0201C08081FF91EF919F918F912F91EE
:101060000F900BBE0F900FBE0F901F9018951F9200
:101070000F920FB60F9211242F933F938F939F934C
:10108000AF93BF9380919A0290919B02A0919C0292
:10109000B0919D023091990223E0230F2D3720F467
:1010A0000196A11DB11D05C026E8230F0296A11DC2
:1010B000B11D2093990280939A0290939B02A09372
:1010C0009C02B0939D028091950290919602A0910E
:1010D0009702B09198020196A11DB11D80939502CF
:1010E00090939602A0939702B0939802BF91AF910C
:1010F0009F918F913F912F910F900FBE0F901F9056
:1011000018950F931F93CF93DF931092A80210921C
:10111000A70288EE93E0A0E0B0E08093A90290934C
:10112000AA02A093AB02B093AC0285E292E0909346
:10113000A6028093A50285EC90E09093B202809382
:10114000B10284EC90E09093B4028093B30280ECFF
:1011500090E09093B6028093B50281EC90E090937A
:10116000B8028093B70282EC90E09093BA02809329
:10117000B90286EC90E09093BC028093BB0210927F
:10118000BE021092BF021092C0021092C1021092D1
:1011900046038FEF9FEF909348038093470310928D
:1011A0004A031092490389E890E003D2EC0181E4FC
:1011B00092E09983888386E18A8388E18B838AE140
:1011C0008C838CE18D838EE18E8380E28F8382E23B
:1011D000888784E2898780E1E7E0F2E0DE011A9601
:1011E00001900D928A95E1F7CE010696AE014E5F11
:1011F0005F4F9E01265F3F4F1C8E18A21F8E19A2C3
:1012000067E372E07B8F6A8FFE01F696BE016E582F
:101210007F4F10821482138215823696E617F707E5
:10122000C1F7FE01E458FF4F51834083329691830A
:101230008083329684E08083319680833797318330
:10124000208338968AE090E091838083329684EF01
:1012500091E091838083339611821082719710827E
:1012600011821282138270961082D0934503C0932C
:1012700044038AE190E09DD1EC0183E592E0FE0118
:10128000819391938F011D821C8287E492E09B835E
:101290008A8388E28E838FEF8F838AE288878CE24D
:1012A00089878EE28A8780E38B8782E38C871D861D
:1012B0001E861F86188A198A41E060E1CF0146DB4D
:1012C00044E064E1C80142DBD0934303C09342038E
:1012D000DF91CF911F910F910895789484B582602A
:1012E00084BD84B5816084BD85B5826085BD85B5CA
:1012F000816085BD80916E00816080936E00109248
:1013000081008091810082608093810080918100C2
:101310008160809381008091800081608093800053
:101320008091B10084608093B1008091B0008160B1
:101330008093B000809191008260809391008091B1
:1013400091008160809391008091900081608093F2
:1013500090008091A10082608093A1008091A10003
:1013600081608093A1008091A00081608093A000A3
:10137000809121018260809321018091210181600F
:1013800080932101809120018160809320018091D0
:101390007A00846080937A0080917A0082608093E2
:1013A0007A0080917A00816080937A0080917A003F
:1013B000806880937A001092C100E091B502F091AC
:1013C000B60282E08083E091B102F091B202108215
:1013D000E091B302F091B4028FEC80831092BD02D1
:1013E000E091B902F091BA0286E08083E091B70201
:1013F000F091B802808180618083E091B702F09122
:10140000B802808188608083E091B702F091B802D1
:10141000808180688083E091B702F091B80280817A
:101420008F7D808386E090E0C4D08C018DE692E0D1
:10143000D80113969C938E9312978BE192E01196AC
:101440009C938E9382E792E015969C938E931497CB
:10145000F0904603EE24E394EF0CC0904903D09043
:101460004A03CE2DD0E0CE01880F991FC114D104BC
:1014700041F09FD0B4E0FB9EA0011124B601CAD177
:1014800005C097D090934A0380934903E0924603A6
:10149000C150D048CC0FDD1F8091490390914A0381
:1014A000C80FD91F1983088390914603E09149031F
:1014B000F0914A0380E08917C9F0A191B191129689
:1014C0002D913C9113972D56324031F490E090933A
:1014D0004803809347030AC08F5FEDCF20914603F6
:1014E00030E0821793075CF00E944202809147032C
:1014F000909148038F3FAFEF9A0781F7F5CF880FA0
:10150000991FE0914903F0914A03E80FF91FC08148
:10151000D181209749F3E881F9816091440370916A
:1015200045030480F581E02DCE0119958823E1F271
:101530008091420390914303DC01ED91FC91019075
:10154000F081E02DBE011995CFCFCF938091440358
:1015500090914503C3D08091420390914303BED044
:10156000C0E0209146038091490390914A03C2173D
:1015700090F4FC01EC0FF11DEC0FF11D80819181C5
:10158000009739F0DC01ED91FC910280F381E02DB0
:101590001995CF5FE6CF009711F0CF919FC0CF9103
:1015A0000895EE0FFF1F881F8BBF0790F691E02D67
:1015B0001994CF93DF938230910510F482E090E08C
:1015C000E0914D03F0914E0320E030E0C0E0D0E028
:1015D000309711F14081518148175907C0F04817E1
:1015E000590761F482819381209719F09B838A8344
:1015F0002BC090934E0380934D0326C021153105D7
:1016000019F04217530718F49A01BE01DF01EF01E8
:101610000280F381E02DDCCF2115310509F1281B73
:10162000390B2430310590F412968D919C911397CB
:101630006115710521F0FB019383828304C09093AF
:101640004E0380934D03FD01329644C0FD01E20F2D
:10165000F31F81939193225031092D933C933AC00B
:1016600020914B0330914C03232B41F42091030232
:101670003091040230934C0320934B0320910102DC
:10168000309102022115310541F42DB73EB740914A
:10169000050250910602241B350BE0914B03F0919B
:1016A0004C03E217F307A0F42E1B3F0B2817390752
:1016B00078F0AC014E5F5F4F2417350748F04E0FAE
:1016C0005F1F50934C0340934B038193919302C04F
:1016D000E0E0F0E0CF01DF91CF9108950F931F93E9
:1016E000CF93DF93009709F48CC0FC0132971382EB
:1016F000128200914D0310914E030115110581F4E2
:1017000020813181820F931F20914B0330914C0334
:101710002817390779F5F0934C03E0934B0371C018
:10172000D80140E050E0AE17BF0750F412962D915B
:101730003C911397AD012115310509F1D901F3CF82
:101740009D01DA013383228360817181860F971FA7
:101750008217930769F4EC0128813981260F371F1E
:101760002E5F3F4F318320838A819B8193838283C5
:10177000452B29F4F0934E03E0934D0342C013969A
:10178000FC93EE931297ED01499159919E01240F1C
:10179000351FE217F30771F480819181840F951F43
:1017A000029611969C938E938281938113969C93BB
:1017B0008E931297E0E0F0E0D80112968D919C9103
:1017C0001397009719F0F8018C01F6CF8D919C9139
:1017D00098012E5F3F4F820F931F20914B03309152
:1017E0004C032817390769F4309729F410924E03F7
:1017F00010924D0302C01382128210934C03009387
:101800004B03DF91CF911F910F91089581E090E0FC
:10181000F89409C0FB01DC0102C001900D92415017
:101820005040D8F7089511E0C6E1D1E000E005C0CE
:10183000802FFE01B6DE2196011DC731D10780E061
:081840000807B1F7F894FFCF8F
:10184800FF00004F038000313233413435364237D0
:101858003839432A30234400000000100712073C9F
:101868000500000000DB01490174012102A5018384
:101878000197010000000011040E04E703000000B6
:10188800005805000000009F04490139053805008B
:10189800000000130755702070726573736564004B
:1018A800446F776E20707265737365640054657356
:0C18B8007400436F6E677261747321004E
:00000001FF
