:100000000C9415010C943F010C943F010C943F019A
:100010000C943F010C943F010C943F010C943F0160
:100020000C943F010C943F010C943F010C943F0150
:100030000C943F010C943F010C943F010C943F0140
:100040000C943F010C943F010C943F010C943F0130
:100050000C943F010C943F010C943F010C94F70663
:100060000C943F010C94C1060C9497060C943F012C
:100070000C943F010C943F010C943F010C943F0100
:100080000C943F010C943F010C943F010C943F01F0
:100090000C943F010C943F010C943F010C943F01E0
:1000A0000C943F010C943F010C943F010C943F01D0
:1000B0000C943F010C943F010C943F010C943F01C0
:1000C0000C943F010C943F010C943F010C943F01B0
:1000D0000C943F010C943F010C943F010C943F01A0
:1000E0000C943F018F029202810285028B02C902A9
:1000F00096029A02A002A402A802AE02B202B602BE
:10010000C902BC02C002C402000020002300260075
:1001100029002C002F00320000010000030106011D
:10012000090100002100240027002A002D003000D2
:10013000330001010000040107010A010000220050
:10014000250028002B002E003100340002010000A1
:10015000050108010B010505050507050808080844
:10016000020202020A0A080804040404010101014F
:10017000010101010303030303030303040707074A
:100180000C0C0C0C0C0C0C0C0202020206060606EF
:10019000060606060B0B0B0B0B0B0B0B01021020BC
:1001A00020080810204010204080020102010804AD
:1001B0000201010204081020408080402010080441
:1001C000020180040201804020100804020108049A
:1001D00002010102040810204080010204081020DE
:1001E000408000000A0B02090C0D0E0807030401F1
:1001F00000000000000000000000000000000000FF
:1002000000000000000000000000000000001211CB
:1002100010000000000000000000000000000000CE
:100220000000000000000000410711241FBECFEFB6
:10023000D1E2DEBFCDBF23E0A0E4B2E001C01D9259
:10024000AB3BB207E1F712E0A0E0B2E0EAE2FCE18A
:1002500000E00BBF02C007900D92A034B107D9F7A0
:1002600011E0C5E1D1E004C02197FE010E94B80D64
:10027000C431D107C9F70E94AD080C94130E0C9439
:100280000000CF92DF92EF92FF920F931F93CF93D4
:10029000DF936C017A018B01C0E0D0E0CE15DF0561
:1002A00089F0D8016D918D01D601ED91FC910190FD
:1002B000F081E02DC6010995892B11F47E0102C061
:1002C0002196ECCFC701DF91CF911F910F91FF9045
:1002D000EF90DF90CF900895FC01538D448D252F32
:1002E00030E0842F90E0821B930B541710F0CF96D0
:1002F000089501970895FC01918D828D981761F002
:10030000828DDF01A80FB11D5D968C91928D9F5F4C
:100310009F73928F90E008958FEF9FEF0895FC01F7
:10032000918D828D981731F0828DE80FF11D858DAA
:1003300090E008958FEF9FEF0895FC01918D228D3D
:10034000892F90E0805C9F4F821B91098F739927C2
:10035000089589E492E00E949D0121E0892B09F42F
:1003600020E0822F0895FC01848DDF01A80FB11DCC
:10037000A35ABF4F2C91848D90E001968F739927DB
:10038000848FA689B7892C93A089B1898C918064C8
:100390008C93938D848D981306C00288F389E02D89
:1003A00080818F7D80830895EF92FF920F931F933A
:1003B000CF93DF93EC0181E0888F9B8D8C8D981318
:1003C00005C0E889F989808185FD24C0F62E0B8D52
:1003D00010E00F5F1F4F0F731127E02E8C8DE81276
:1003E0000CC00FB607FCFACFE889F989808185FF38
:1003F000F5CFCE010E94B301F1CF8B8DFE01E80F46
:10040000F11DE35AFF4FF0820B8FEA89FB8980814F
:10041000806207C0EE89FF896083E889F98980815D
:100420008064808381E090E0DF91CF911F910F91F4
:10043000FF90EF900895CF93DF93EC01888D882390
:10044000C9F0EA89FB89808185FD05C0A889B98941
:100450008C9186FD0FC00FB607FCF5CF808185FF1C
:10046000F2CFA889B9898C9185FFEDCFCE010E948A
:10047000B301E7CFDF91CF91089580E090E0892B21
:1004800021F00E94A901811125C080E090E0892B14
:1004900041F080E090E0892B21F00E940000811162
:1004A0001CC080E090E0892B41F080E090E0892B37
:1004B00021F00E940000811113C080E090E0892BA0
:1004C000A1F080E090E0892B81F00E940000811172
:1004D0000AC008950E940000D8CF0E940000E1CF1A
:1004E0000E940000EACF0C940000089590E0FC0107
:1004F0003197E231F10508F04CC0EE58FF4F0C94F3
:10050000B80D809180008F7703C0809180008F7D2F
:1005100080938000089580918000877FF9CF84B513
:100520008F7702C084B58F7D84BD08958091B0001F
:100530008F7703C08091B0008F7D8093B0000895C5
:10054000809190008F7707C0809190008F7D03C0CD
:1005500080919000877F8093900008958091A00003
:100560008F7707C08091A0008F7D03C08091A0008D
:10057000877F8093A0000895809120018F7707C026
:10058000809120018F7D03C080912001877F80931F
:10059000200108951F93CF93DF93282F30E0F901B6
:1005A000EE51FE4F8491F901E456FE4FD491F901CA
:1005B000EA5AFE4FC491CC23C9F0162F81110E9434
:1005C0007602EC2FF0E0EE0FFF1FE45CFE4FA591EA
:1005D000B4918FB7F894111105C09C91ED2FE0955F
:1005E000E92302C0EC91ED2BEC938FBFDF91CF910B
:1005F0001F910895CF93DF9390E0FC01E456FE4FE6
:100600002491FC01EA5AFE4F8491882361F190E025
:10061000880F991FFC01EE5DFE4FC591D491FC013E
:10062000E45CFE4FA591B491611109C09FB7F894A5
:100630008881209582238883EC912E230BC0623021
:1006400061F49FB7F8943881822F80958323888343
:10065000EC912E2B2C939FBF06C08FB7F894E881A6
:100660002E2B28838FBFDF91CF9108953FB7F89449
:100670008091450290914602A0914702B0914802B4
:1006800026B5A89B05C02F3F19F00196A11DB11DED
:100690003FBFBA2FA92F982F8827820F911DA11D28
:1006A000B11DBC01CD0142E0660F771F881F991F65
:1006B0004A95D1F70895CF93DF9370E0FB01EE5197
:1006C000FE4F8491FB01E456FE4FD491FB01EA5AA0
:1006D000FE4FC491CC2391F081110E947602EC2F41
:1006E000F0E0EE0FFF1FE85FFE4FA591B491EC9193
:1006F000ED2381E090E021F480E002C080E090E012
:10070000DF91CF910895862F642F0C94CA02862F13
:10071000642F0C94FA02CF93DF93EC0160E08E819A
:100720000E94CA0261E08E810E94CA0260E08E814E
:100730000E94CA028BE891E00197F1F7DF91CF9117
:100740000895CF92DF92EF92FF920F931F93CF9372
:10075000DF937C016C0187E0C80ED11CC0E0D0E0C3
:10076000062F10E0B8010C2E02C0759567950A940B
:10077000E2F76170F60181916F010E94CA02219631
:10078000C430D10579F7C701DF91CF911F910F9147
:10079000FF90EF90DF90CF900C948B03CF92DF927D
:1007A000EF92FF920F931F93CF93DF93EC01F62EFE
:1007B000642F8C810E94CA028D818F3F19F060E006
:1007C0000E94CA028F850F2D10E084FF25C06E01A4
:1007D00087E0C80ED11CE12CF12CB8010E2C02C010
:1007E000759567950A94E2F76170F60181916F0142
:1007F0000E94CA02FFEFEF1AFF0A88E0E816F10430
:1008000061F7CE01DF91CF911F910F91FF90EF9093
:10081000DF90CF900C948B03B80184E075956795B9
:100820008A95E1F7CE010E94A1036F2DCE01DF91E1
:10083000CF911F910F91FF90EF90DF90CF900C948C
:10084000A103EF92FF920F931F93CF93DF93EC01DD
:10085000423018F08F8588608F874B8B1C8A80E42C
:100860008D8B6E8B70E0605C7F4F6F8B61E08C8155
:100870000E94FA028D818F3F19F061E00E94FA0216
:1008800061E08E810E94FA027E0187E0E80EF11C91
:1008900000E010E08F8584FD03C084E090E002C09A
:1008A00088E090E0081719074CF461E0F7018191A6
:1008B0007F010E94FA020F5F1F4FECCF8BE39DE098
:1008C0000197F1F760E08C810E94CA0260E08E819E
:1008D0000E94CA028D818F3F19F060E00E94CA0217
:1008E0006F8564FD1DC063E0CE010E94A1030BE48F
:1008F00016E4C8010197F1F763E0CE010E94A1035D
:10090000C8010197F1F763E0CE010E94A10383E5DE
:1009100092E00197F1F762E0CE010E94A10319C0B5
:10092000606240E0CE010E94CE038BE496E4019722
:10093000F1F76F85606240E0CE010E94CE0383E54F
:1009400092E00197F1F76F85606240E0CE010E946E
:10095000CE036F85606240E0CE010E94CE0384E04A
:10096000888B40E06CE0CE010E94CE0340E061E065
:10097000CE010E94CE038BE39FE10197F1F782E065
:10098000898B40E066E0CE01DF91CF911F910F91FE
:10099000FF90EF900C94CE0341E00E94CE0381E0E3
:1009A00090E00895089580E090E0089580E890E058
:1009B0000895EF92FF920F931F93CF93DF93EC0173
:1009C0007B0101E010E0E881F9810190F081E02DE8
:1009D000CE010995801791074CF0E016F10619F445
:1009E000FF8AEE8A03C0000F111FEDCF8E899F8909
:1009F000DF91CF911F910F91FF90EF9008952F926B
:100A00003F924F925F926F927F928F929F92AF929E
:100A1000BF92CF92DF92EF92FF920F931F93CF93EB
:100A2000DF936B017C018091A9039091AA03A091AF
:100A3000AB03B091AC034091B1035091B20360910C
:100A4000B3037091B4038090A5039090A603A09087
:100A5000A703B090A8034090AD035090AE03609000
:100A6000AF037090B0030097A105B10599F16CF048
:100A7000481759076A077B075CF4481459046A044D
:100A80007B044CF422E030E008C020E030E005C0F8
:100A900023E030E002C021E030E02115310519F3F8
:100AA000233031050CF02EC18C0D9D1DAE1DBF1DD8
:100AB000F7FE07C084179507A607B70714F4DB01F4
:100AC000CA018093A9039093AA03A093AB03B093A8
:100AD000AC0318C1D701C60180959095A095B0953B
:100AE0008827B7FD83959927AA27BB279093BA0338
:100AF0008093B90310928B0310928C0310928D0394
:100B000010928E03F7FE08C0F094E094D094C09445
:100B1000C11CD11CE11CF11CC092A903D092AA03F4
:100B2000E092AB03F092AC031092A5031092A603DF
:100B30001092A7031092A8031092870310928803C3
:100B40001092890310928A0380919F039091A003D1
:100B500020919D0330919E03009193031091940383
:100B6000C0919B03D0919C03019709F099C0209FED
:100B7000C001219F900D309F900D11246CE370E017
:100B80000E94850D0091A1031091A2039B01DB013E
:100B90000E94C10D9B01AC01DE010E94D00D9801A5
:100BA000220F331F032E000C440B550B0E94990D8E
:100BB00049015A012093AD033093AE034093AF0334
:100BC0005093B0032090A3033090A4032101032C81
:100BD000000C66087708D8010E94D00DA30192018D
:100BE0000E94990D2093B1033093B2034093B30355
:100BF0005093B403D501C401820F931FA41FB51FE6
:100C0000C816D906EA06FB061CF5A7019601C30122
:100C1000B2010E94750D9801220D331D032E000CA8
:100C2000440B550B0E94990D2093AD033093AE03F6
:100C30004093AF035093B003C21AD30AE40AF50AF3
:100C4000C092B103D092B203E092B303F092B40326
:100C50000C9FB0010D9F700D1C9F700D1124072E6D
:100C6000000C880B990B0E945F0B9B01AC0160E0AC
:100C700070E080E090E40E94720C0E94200D20E061
:100C80003AE045E259E40E949A0B0E94E40C60931A
:100C9000B5037093B6038093B7039093B80332C043
:100CA000032E000C440B550B60E077E883E993E0DA
:100CB0000E94990DCA01B9019801110F440B550BFF
:100CC0000E94990DCA01B9019E01DD0F440B550B1D
:100CD0000E94990D2093B5033093B6034093B70358
:100CE0005093B8031092AD031092AE031092AF036D
:100CF0001092B0031092B1031092B2031092B3039A
:100D00001092B403DF91CF911F910F91FF90EF905C
:100D1000DF90CF90BF90AF909F908F907F906F901B
:100D20005F904F903F902F9008950E940E0E1F925B
:100D30000F920FB60F9211240BB60F922F933F9381
:100D40004F935F936F937F938F939F93AF93BF93D3
:100D5000EF93FF9389E492E00E94B301FF91EF913A
:100D6000BF91AF919F918F917F916F915F914F91C3
:100D70003F912F910F900BBE0F900FBE0F901F90C1
:100D800018951F920F920FB60F9211240BB60F9267
:100D90002F938F939F93EF93FF93E0915902F091DC
:100DA0005A028081E0915F02F091600282FD12C0E0
:100DB0009081809162028F5F8F732091630282170E
:100DC00051F0E0916202F0E0E75BFD4F958F809378
:100DD000620201C08081FF91EF919F918F912F91CD
:100DE0000F900BBE0F900FBE0F901F9018951F9283
:100DF0000F920FB60F9211242F933F938F939F93CF
:100E0000AF93BF938091410290914202A09143021F
:100E1000B09144023091400223E0230F2D3720F49B
:100E20000196A11DB11D05C026E8230F0296A11D44
:100E3000B11D209340028093410290934202A093FF
:100E40004302B09344028091450290914602A091E2
:100E50004702B09148020196A11DB11D8093450241
:100E600090934602A0934702B0934802BF91AF917E
:100E70009F918F913F912F910F900FBE0F901F90D8
:100E8000189510924C0210924B0288EE93E0A0E06D
:100E9000B0E080934D0290934E02A0934F02B09326
:100EA000500284E192E090934A028093490285ECDB
:100EB00090E0909356028093550284EC90E09093DA
:100EC00058028093570280EC90E090935A028093EE
:100ED000590281EC90E090935C0280935B0282EC7B
:100EE00090E090935E0280935D0286EC90E0909398
:100EF000600280935F02109262021092630210926D
:100F0000640210926502E6EEF2E085EDDF011D92CB
:100F10008A95E9F786E18093E60288E18093E7020B
:100F20008AE18093E8028CE18093E9028EE180936C
:100F3000EA0280E28093EB0282E28093EC0284E298
:100F40008093ED0280E1E0E0F2E0AEEEB2E00190ED
:100F50000D928A95E1F786E292E09093FF028093EA
:100F6000FE0280E090E0FC01EA51FD4F14AA10AEB1
:100F700017AA11AE06968C339105A9F786EE92E07A
:100F800090936103809360038AEE92E090936303F1
:100F90008093620384E080936403809365032EEE64
:100FA00032E030935F0320935E032AE030E0309319
:100FB00067032093660324EF31E0309369032093A5
:100FC000680310926C0310926B0310925A031092F4
:100FD0005B0310925C0310925D0310926A031092FF
:100FE000700310926F0320E332E030936E0320937E
:100FF0006D039CE0909371039FEF909372039BE0CD
:101000009093730395E0909374038093750383E04A
:101010008093760382E08093770310927803109296
:10102000790310927A0310927B0310927C0341E0C3
:1010300060E18DE693E00E94210444E064E18DE6E6
:1010400093E00E9421048CE392E0909386038093C6
:10105000850310928B0310928C0310928D031092D3
:101060008E0310928F0310929003109291031092AE
:10107000920388EC90E0909394038093930386E02E
:1010800090E0909396038093950383E090E0909393
:101090009803809397038FEF9FEF90939A03809329
:1010A000990381E090E090939C0380939B031092BE
:1010B0009E0310929D031092A00310929F0388EE4E
:1010C00093E09093A2038093A1039093A403809351
:1010D000A30361E088E00E94FA0260E088E00E94D9
:1010E000CA0261E0809195030E94FA0261E080915A
:1010F00095030E94CA0261E0809197030E94FA0260
:1011000060E0809197030E94CA02809199039091B8
:101110009A038F3FBFEF9B0741F061E00E94FA0204
:1011200061E0809199030E94CA0288E790E0909361
:101130009E0380939D0361E070E085E893E00E9448
:10114000D9048091990390919A038F3F2FEF9207D2
:1011500019F060E00C94CA020895CF93DF93CDB7E5
:10116000DEB728970FB6F894DEBF0FBECDBF7894D8
:1011700084B5826084BD84B5816084BD85B582609C
:1011800085BD85B5816085BD80916E00816080934D
:101190006E001092810080918100826080938100B6
:1011A00080918100816080938100809180008160C6
:1011B000809380008091B10084608093B100809121
:1011C000B00081608093B000809191008260809334
:1011D00091008091910081608093910080919000B6
:1011E0008160809390008091A10082608093A10033
:1011F0008091A10081608093A1008091A000816016
:101200008093A000809121018260809321018091D0
:101210002101816080932101809120018160809370
:10122000200180917A00846080937A0080917A0016
:10123000826080937A0080917A00816080937A0046
:1012400080917A00806880937A001092C100E091CA
:101250005902F0915A0282E08083E0915502F091A8
:1012600056021082E0915702F09158028FEC808371
:1012700010926102E0915D02F0915E0286E080834F
:10128000E0915B02F0915C02808180618083E0915B
:101290005B02F0915C02808188608083E0915B0258
:1012A000F0915C02808180688083E0915B02F09124
:1012B0005C0280818F7D8083A0919303B091940321
:1012C00028E631E00E94C90D9B01AC01A0919B036F
:1012D000B0919C030E94D00D28E631E040E050E040
:1012E0000E94990DCA01B9010E94FF048091A903CF
:1012F0009091AA03A091AB03B091AC031816190604
:101300001A061B060CF092C1C0908B03D0908C0380
:10131000E0908D03F0908E0380908F039090900367
:10132000A0909103B090920381149104A104B104A0
:1013300039F56091B903809195030E94CA0261E07A
:10134000809197030E94CA020E9436036D837E83B8
:101350008F839887C090B503D090B603E090B70311
:10136000F090B8038091A9039091AA03A091AB03D8
:10137000B091AC03181619061A061B06C4F018C162
:10138000C114D104E104F10421F40E9436036B017D
:101390007C010E943603DC01CB018C199D09AE094A
:1013A000BF0988159905AA05BB0598F3C2CF9C0112
:1013B000AD0121503109410951092093A90330930E
:1013C000AA034093AB035093AC038090A503909085
:1013D000A603A090A703B090A8038FEF881A980ADD
:1013E000A80AB80A8092A5039092A603A092A70328
:1013F000B092A80380919F039091A003019709F0F8
:10140000D7C02115310541055105E9F08091B1039F
:101410009091B203A091B303B091B40382179307E4
:10142000A407B5079CF48091AD039091AE03A09101
:10143000AF03B091B00388159905AA05BB054CF41C
:1014400082E090E008C080E090E005C083E090E09A
:1014500002C081E090E08130910509F440C003971B
:1014600009F0A6C0409087035090880360908903DC
:1014700070908A03ACEFBFEF0E94D30D4B015C016B
:10148000D701C601880F991FAA1FBB1FBC01CD0140
:10149000640D751D861D971DA5019401209530953D
:1014A000409550950E94990DD701C601820F931F58
:1014B000A41FB51F8093B5039093B603A093B70301
:1014C000B093B803880F991FAA1FBB1FBC01CD01A1
:1014D000640D751D861D971DA50194015BC02091AB
:1014E0008703309188034091890350918A032983AF
:1014F0003A834B835C832401350162E0440C551C24
:10150000661C771C6A95D1F7D701C601880F991F11
:10151000AA1FBB1F280F391F4A1F5B1FCA01B90131
:10152000A301920120953095409550950E94990D08
:10153000BA01A9014C0D5D1D6E1D7F1D4093B503C1
:101540005093B6036093B7037093B8038091AD03D3
:101550009091AE03A091AF03B091B00388169906A5
:10156000AA06BB069CF4DB01CA01880F991FAA1FBB
:10157000BB1F29813A814B815C81280F391F4A1F8B
:101580005B1FCA01B901A301920104C060E070E0D1
:10159000CB0106C02F5F3F4F4F4F5F4F0E94990D09
:1015A00060938703709388038093890390938A03E1
:1015B0000E9436038B014D815E81041B150B69F47B
:1015C0000E9436034B015C010E94360368157905C1
:1015D0008A059B05C9F301E010E060E08091970364
:1015E0000E94CA020E94360360938B0370938C039F
:1015F00080938D0390938E03C801A0E0B0E08C151A
:101600009D05AE05BF052CF4C81AD90AEA0AFB0AE3
:1016100004C0C12CD12C7601C394C0928F03D09208
:101620009003E0929103F092920310C010928B030A
:1016300010928C0310928D0310928E0310928F03E0
:1016400010929003109291031092920380918F0355
:1016500090919003A0919103B0919203892B8A2BD2
:101660008B2B09F043CE0E9436034B015C0180EDC9
:10167000C82E87E0D82EE12CF12C0E943603DC0125
:10168000CB0188199909AA09BB09883E9340A10595
:10169000B10558F051E0C51AD108E108F10888EE0B
:1016A000880E83E0981EA11CB11CC114D104E10472
:1016B000F10419F70E943D02FFCDE89409C097FBA1
:1016C0003EF490958095709561957F4F8F4F9F4F19
:1016D0009923A9F0F92F96E9BB279395F69587955D
:1016E00077956795B795F111F8CFFAF4BB0F11F420
:1016F00060FF1BC06F5F7F4F8F4F9F4F16C08823C7
:1017000011F096E911C0772321F09EE8872F762FFC
:1017100005C0662371F096E8862F70E060E02AF03D
:101720009A95660F771F881FDAF7880F9695879529
:1017300097F908950E94AD0B0C941E0C0E94100C9A
:1017400038F00E94170C20F0952311F00C94070C30
:101750000C940D0C11240C94520C0E942F0C70F35D
:10176000959FC1F3950F50E0551F629FF001729F46
:10177000BB27F00DB11D639FAA27F00DB11DAA1F55
:10178000649F6627B00DA11D661F829F2227B00DA2
:10179000A11D621F739FB00DA11D621F839FA00D2D
:1017A000611D221F749F3327A00D611D231F849F7D
:1017B000600D211D822F762F6A2F11249F575040D4
:1017C0009AF0F1F088234AF0EE0FFF1FBB1F661F4F
:1017D000771F881F91505040A9F79E3F510580F018
:1017E0000C94070C0C94520C5F3FE4F3983ED4F336
:1017F000869577956795B795F795E7959F5FC1F7BC
:10180000FE2B880F911D9695879597F9089597F966
:101810009F6780E870E060E008959FEF80EC089596
:1018200000240A94161617061806090608950024BF
:101830000A9412161306140605060895092E039439
:10184000000C11F4882352F0BB0F40F4BF2B11F4AD
:1018500060FF04C06F5F7F4F8F4F9F4F089557FD0C
:101860009058440F551F59F05F3F71F04795880F0E
:1018700097FB991F61F09F3F79F0879508951216A5
:1018800013061406551FF2CF4695F1DF08C0161651
:1018900017061806991FF1CF869571056105089402
:1018A0000895E894BB2766277727CB0197F9089519
:1018B0000E94630CA59F900DB49F900DA49F800D76
:1018C000911D11240895A29FB001B39FC001A39F51
:1018D000700D811D1124911DB29F700D811D112469
:1018E000911D08950E94860C0C941E0C0E94170CEA
:1018F00058F00E94100C40F029F45F3F29F00C943E
:10190000070C51110C94520C0C940D0C0E942F0CCE
:1019100068F39923B1F3552391F3951B550BBB271E
:10192000AA2762177307840738F09F5F5F4F220F63
:10193000331F441FAA1FA9F335D00E2E3AF0E0E85A
:1019400032D091505040E695001CCAF72BD0FE2FA4
:1019500029D0660F771F881FBB1F26173707480738
:10196000AB07B0E809F0BB0B802DBF01FF279358F0
:101970005F4F3AF09E3F510578F00C94070C0C94A1
:10198000520C5F3FE4F3983ED4F3869577956795C4
:10199000B795F7959F5FC9F7880F911D9695879525
:1019A00097F90895E1E0660F771F881FBB1F621744
:1019B00073078407BA0720F0621B730B840BBA0B02
:1019C000EE1F88F7E09508950E94EB0C6894B11122
:1019D0000C94520C08950E94370C88F09F5798F091
:1019E000B92F9927B751B0F0E1F0660F771F881F24
:1019F000991F1AF0BA95C9F714C0B13091F00E943E
:101A0000510CB1E008950C94510C672F782F882762
:101A1000B85F39F0B93FCCF3869577956795B39564
:101A2000D9F73EF490958095709561957F4F8F4FD3
:101A30009F4F089519F416F40C940D0C0C94600D3E
:101A40000E94370CB8F39923C9F3B6F39F57550B8F
:101A500087FF0E946E0D0024A0E640EA90018058A6
:101A60005695979528F4805C660F771F881F20F0A5
:101A700026173707480730F4621B730B840B2029A5
:101A800031294A2BA69517940794202531254A27FA
:101A900058F7660F771F881F20F02617370748076B
:101AA00030F4620B730B840B200D311D411DA0958A
:101AB00081F7B901842F9158880F969587950895DD
:101AC0009F3F31F0915020F4879577956795B795B2
:101AD000880F911D9695879597F9089591505040DC
:101AE000660F771F881FD2F70895DB018F939F93AE
:101AF0000E94580CBF91AF91A29F800D911DA39F92
:101B0000900DB29F900D1124089597FB072E16F4A7
:101B1000009407D077FD09D00E94D80D07FC05D0AE
:101B20003EF4909581959F4F0895709561957F4FF4
:101B30000895052E97FB1EF400940E94B00D57FDEA
:101B400007D00E94EC0D07FC03D04EF40C94B00DAE
:101B500050954095309521953F4F4F4F5F4F0895D9
:101B600090958095709561957F4F8F4F9F4F089509
:101B7000EE0FFF1F0024001C0BBE0790F691E02D16
:101B800009940E94630C332312F48A1B9B0B0C9460
:101B9000CB0D0E94630CB7FF0895821B930B089531
:101BA000B7FF0C94580C0E94580C821B930B08959D
:101BB000AA1BBB1B51E107C0AA1FBB1FA617B70773
:101BC00010F0A61BB70B881F991F5A95A9F780958F
:101BD0009095BC01CD010895A1E21A2EAA1BBB1B52
:101BE000FD010DC0AA1FBB1FEE1FFF1FA217B307E9
:101BF000E407F50720F0A21BB30BE40BF50B661FFF
:101C0000771F881F991F1A9469F7609570958095C2
:101C100090959B01AC01BD01CF01089581E090E05A
:0A1C2000F8940C94130EF894FFCF13
:101C2A003132334134353642373839432A30234446
:101C3A0000000000D40141016C011B029D017B01DF
:101C4A008F0100000000870383035B03000000008C
:101C5A00CC044101D304D20400000000D604D90404
:00000001FF
