:1000000015C1000043C1000041C100003FC1000014
:100010003DC100003BC1000039C1000037C10000F4
:1000200035C1000033C1000031C100002FC1000004
:100030002DC100002BC1000029C1000027C1000014
:1000400025C1000023C1000021C100001FC1000024
:100050001DC100001BC1000019C1000053C70000F2
:1000600015C1000019C70000EEC600000FC1000056
:100070000DC100000BC1000009C1000007C1000054
:1000800005C1000003C1000001C10000FFC0000065
:10009000FDC00000FBC00000F9C00000F7C0000078
:1000A000F5C00000F3C00000F1C00000EFC0000088
:1000B000EDC00000EBC00000E9C00000E7C0000098
:1000C000E5C00000E3C00000E1C00000DFC00000A8
:1000D000DDC00000DBC00000D9C00000D7C00000B8
:1000E000D5C0000092029502840288028E02CC02E2
:1000F00099029D02A302A702AB02B102B502B902A6
:10010000CC02BF02C302C702000020002300260069
:1001100029002C002F00320000010000030106011D
:10012000090100002100240027002A002D003000D2
:10013000330001010000040107010A010000220050
:10014000250028002B002E003100340002010000A1
:10015000050108010B010505050507050808080844
:10016000020202020A0A080804040404010101014F
:10017000010101010303030303030303040707074A
:100180000C0C0C0C0C0C0C0C0202020206060606EF
:10019000060606060B0B0B0B0B0B0B0B01021020BC
:1001A00020080810204010204080020102010804AD
:1001B0000201010204081020408080402010080441
:1001C000020180040201804020100804020108049A
:1001D00002010102040810204080010204081020DE
:1001E000408000000A0B02090C0D0E0807030401F1
:1001F00000000000000000000000000000000000FF
:1002000000000000000000000000000000001211CB
:1002100010000000000000000000000000000000CE
:100220000000000000000000CC07010A11241FBEDE
:10023000CFEFD1E2DEBFCDBF00E00CBF12E0A0E007
:10024000B2E0E0E1F7E100E00BBF02C007900D92E1
:10025000AC37B107D9F723E0ACE7B2E001C01D929B
:10026000A033B207E1F711E0C5E1D1E000E006C03C
:1002700021970109802FFE010E94350AC431D10760
:1002800080E00807A9F776D70C94770BB9CECF9208
:10029000DF92EF92FF920F931F93CF93DF936C0146
:1002A0007A018B01C0E0D0E0CE15DF0589F0D801DE
:1002B0006D918D01D601ED91FC910190F081E02DC1
:1002C000C6011995892B11F47E0102C02196ECCF4D
:1002D000C701DF91CF911F910F91FF90EF90DF90B9
:1002E000CF900895FC01538D448D252F30E0842F4D
:1002F00090E0821B930B541710F0CF96089501974E
:100300000895FC01918D828D981761F0828DDF0137
:10031000A80FB11D5D968C91928D9F5F9F73928FF8
:1003200090E008958FEF9FEF0895FC01918D828DED
:10033000981731F0828DE80FF11D858D90E00895BA
:100340008FEF9FEF0895FC01918D228D892F90E012
:10035000805C9F4F821B91098F739927089585E8D0
:1003600092E0F1DF21E0892B09F420E0822F08954B
:10037000FC01848DDF01A80FB11DA35ABF4F2C9142
:10038000848D90E001968F739927848FA689B78911
:100390002C93A089B1898C9180648C93938D848DEA
:1003A000981306C00288F389E02D80818F7D8083B9
:1003B0000895EF92FF920F931F93CF93DF93EC0179
:1003C00081E0888F9B8D8C8D981305C0E889F98911
:1003D000808185FD23C0F62E0B8D10E00F5F1F4F2F
:1003E0000F731127E02E8C8DE8120BC00FB607FC9F
:1003F000FACFE889F989808185FFF5CFCE01B8DF92
:10040000F2CF8B8DFE01E80FF11DE35AFF4FF08212
:100410000B8FEA89FB898081806207C0EE89FF89A2
:100420006083E889F98980818064808381E090E03D
:10043000DF91CF911F910F91FF90EF900895CF938F
:10044000DF93EC01888D8823C1F0EA89FB898081E4
:1004500085FD05C0A889B9898C9186FD0EC00FB6AF
:1004600007FCF5CF808185FFF2CFA889B9898C91EF
:1004700085FFEDCFCE017CDFE8CFDF91CF910895EE
:1004800080E090E0892B19F06ADF811125C080E0BF
:1004900090E0892B41F080E090E0892B21F00E94D0
:1004A000000081111CC080E090E0892B41F080E0C9
:1004B00090E0892B21F00E940000811113C080E0A0
:1004C00090E0892BA1F080E090E0892B81F00E94E0
:1004D000000081110AC008950E940000D8CF0E9438
:1004E0000000E1CF0E940000EACF0C9400000895C4
:1004F00090E0FC013197E231F10508F04DC088270A
:10050000EE58FF4F8F4FB1C7809180008F7703C0A7
:10051000809180008F7D809380000895809180007D
:10052000877FF9CF84B58F7702C084B58F7D84BD76
:1005300008958091B0008F7703C08091B0008F7DC7
:100540008093B0000895809190008F7707C08091CC
:1005500090008F7D03C080919000877F80939000F2
:1005600008958091A0008F7707C08091A0008F7DB3
:1005700003C08091A000877F8093A00008958091A0
:1005800020018F7707C0809120018F7D03C080916B
:100590002001877F8093200108951F93CF93DF93DD
:1005A000282F30E0F901EE51FE4F8491F901E45615
:1005B000FE4FD491F901EA5AFE4FC491CC23C1F009
:1005C000162F811195DFEC2FF0E0EE0FFF1FE45C9A
:1005D000FE4FA591B4918FB7F894111105C09C916D
:1005E000ED2FE095E92302C0EC91ED2BEC938FBF4A
:1005F000DF91CF911F910895CF93DF9390E0FC019D
:10060000E456FE4F2491FC01EA5AFE4F8491882360
:1006100061F190E0880F991FFC01EE5DFE4FC591DE
:10062000D491FC01E45CFE4FA591B491611109C025
:100630009FB7F8948881209582238883EC912E239C
:100640000BC0623061F49FB7F8943881822F809597
:1006500083238883EC912E2B2C939FBF06C08FB7EA
:10066000F894E8812E2B28838FBFDF91CF910895D6
:100670002FB7F89460918102709182028091830279
:10068000909184022FBF0895DC0126E0629FA00DA7
:10069000B11D112490965C934E935F9721E0919643
:1006A0002C939197FC01E459FF4F208131960190E2
:1006B000F081E02D222331F0309749F0611107C01D
:1006C000DC0102C0309719F05C968C911994089562
:1006D0006F927F928F929F92AF92BF92CF92DF9252
:1006E000EF92FF921F93CF93DF931F92CDB7DEB7A8
:1006F0003C01162FFC0186E0689FE00DF11D1124DE
:1007000011A2878D90A181309105E9F01CF4892B0D
:1007100051F04BC08230910599F1039709F045C023
:1007200040E050E031C0442309F43FC041E050E0D4
:10073000C301AADF9DDFF301E85AFF4F6083718395
:100740008283938332C0498393DFF301E85AFF4FDA
:10075000C080D180E280F3804B015C018C189D0841
:10076000AE08BF08729680819181A0E0B0E0498117
:1007700088159905AA05BB0518F442E050E004C0AD
:10078000411113C043E050E0612FC3010F90DF918E
:10079000CF911F91FF90EF90DF90CF90BF90AF90DF
:1007A0009F908F907F906F906FCF0F90DF91CF9140
:1007B0001F91FF90EF90DF90CF90BF90AF909F90F0
:1007C0008F907F906F900895CF93DF9370E0FB013F
:1007D000EE51FE4F8491FB01E456FE4FD491FB0194
:1007E000EA5AFE4FC491CC2389F0811181DEEC2FAF
:1007F000F0E0EE0FFF1FE85FFE4FA591B491EC9182
:10080000ED2381E090E021F480E002C080E090E000
:10081000DF91CF910895862F642FBFCE862F642F4E
:10082000EBCECF93DF93EC0160E08E81B6DE61E02A
:100830008E81B3DE60E08E81B0DE8BE891E00197BF
:10084000F1F7DF91CF910895CF92DF92EF92FF926F
:100850000F931F93CF93DF937C016C0187E0C80E49
:10086000D11CC0E0D0E0062F10E0B8010C2E02C071
:10087000759567950A94E2F76170F60181916F01B1
:100880008CDE2196C430D10581F7C701DF91CF916D
:100890001F910F91FF90EF90DF90CF90C2CFCF923A
:1008A000DF92EF92FF920F931F93CF93DF93EC01B0
:1008B000F62E642F8C8171DE8D818F3F11F060E008
:1008C0006CDE8F850F2D10E084FF23C06E0187E062
:1008D000C80ED11CE12CF12CB8010E2C02C075956C
:1008E00067950A94E2F76170F60181916F0155DE18
:1008F000FFEFEF1AFF0A88E0E816F10469F7CE016E
:10090000DF91CF911F910F91FF90EF90DF90CF90EB
:1009100088CFB80184E0759567958A95E1F7CE0197
:1009200093DF6F2DCE01DF91CF911F910F91FF903B
:10093000EF90DF90CF9088CFEF92FF920F931F93AD
:10094000CF93DF93EC01423018F08F8588608F875A
:100950004B8B1C8A80E48D8B6E8B70E0605C7F4FCC
:100960006F8B61E08C8148DE8D818F3F11F061E0FB
:1009700043DE61E08E8140DE7E0187E0E80EF11CFF
:1009800000E010E08F8584FD03C084E090E002C0A9
:1009900088E090E00817190744F461E0F7018191BD
:1009A0007F012ADE0F5F1F4FEDCF8BE39DE00197A4
:1009B000F1F760E08C81F1DD60E08E81EEDD8D810C
:1009C0008F3F11F060E0E9DD6F8564FD19C063E0E1
:1009D000CE013ADF0BE416E4C8010197F1F763E0BA
:1009E000CE0132DFC8010197F1F763E0CE012CDFC1
:1009F00083E592E00197F1F762E0CE0125DF16C0B2
:100A0000606240E0CE014BDF8BE496E40197F1F7A2
:100A10006F85606240E0CE0142DF83E592E001979E
:100A2000F1F76F85606240E0CE0139DF6F8560626B
:100A300040E0CE0134DF84E0888B40E06CE0CE0102
:100A40002EDF40E061E0CE012ADF8BE39FE10197DA
:100A5000F1F782E0898B40E066E0CE01DF91CF9133
:100A60001F910F91FF90EF901ACF41E018DF81E0C6
:100A700090E00895089580E090E00895CF93DF938B
:100A8000EC01DB01ED91FC910190F081E02DCB01B7
:100A90001995833019F484E592E004C0843021F480
:100AA0008FE592E09D838C83DF91CF9108952F9203
:100AB0003F924F925F926F927F928F929F92AF92EE
:100AC000BF92CF92DF92EF92FF920F931F93CF933B
:100AD000DF93CDB7DEB72E970FB6F894DEBF0FBE0B
:100AE000CDBF9E878D878A579F4F9A83898381E0E8
:100AF000A981BA818C93BCDD2D853E852A583F4F54
:100B00003C832B83D9010D911D912D913C91AB011B
:100B1000BC01401B510B620B730BED85FE85EE573C
:100B2000FF4F80819181A0E0B0E084179507A60770
:100B3000B70708F046C10D851E85065E1F4FF12CD4
:100B40002D843E84B0E82B0E311CCD84DE84ECE78E
:100B5000CE0ED11CF1018081F81658F4D601ED912A
:100B6000FC91EF0DF11D42E06081C80157DEF39466
:100B7000F1CF912C2D853E852F573F4F3E832D83FE
:100B8000CD84DE843EE7C30ED11C412C512C3201B2
:100B900043942D853E8524583F4F38872F83AD8160
:100BA000BE818C91981608F064C0A92CB12CD60196
:100BB000ED91FC91EA0DFB1D41E06081C8012EDE44
:100BC000D601ED91FC91EA0DFB1D40E06081C8016A
:100BD00022DED301C201092C04C0880F991FAA1F6D
:100BE000BB1F0A94D2F7AC019C0120953095812C53
:100BF000F1018081881640F5E82CF12CAF81B88591
:100C0000ED91FC91EE0DFF1D6081C8012B873C87A3
:100C100049875A87D9DDEE0CFF1C2B853C85498519
:100C20005A85ED85FE85EE0DFF1D892B29F482A1E5
:100C300093A1842B952B04C082A193A1822393239B
:100C400093A382A38394D4CFD601ED91FC91EA0DB6
:100C5000FB1D41E06081C801DEDDF60180819181EC
:100C6000FC01EA0DFB1D40E06081C801D7DD9394D3
:100C700096CFED84FE84B6E3EB0EF11C8D859E8548
:100C80008E589F4FF7012FEF3FEF43815481452B43
:100C900021F410823283218315823696E817F907F2
:100CA000A1F7912CCD84DE84EAE7CE0ED11CAD8471
:100CB000BE84F7E3AF0EB11C86E0882EF10180817F
:100CC000981608F057C0712C4D845E84490C511C55
:100CD000490C511C32E2430E511CAD81BE818C91F6
:100CE000781608F045C0D2014D915C91072C02C0E6
:100CF000569547950A94E2F741705527989EC00192
:100D00001124870D911DD601ED91FC91E80FF91F7B
:100D1000A081F50160E0208131812817390711F4A5
:100D200041701BC06F5F36966A30A9F7452BF1F012
:100D3000F70160E070E02081211112C0869EF00171
:100D4000879EF00D11242D853E85E20FF31FA6AB83
:100D500090AF87AB12AE11AE41E0C801B9DC06C05E
:100D60006F5F7F4F36966A30710529F77394B5CF60
:100D70009394A4CFED85FE85FB968D859E8589583D
:100D80009F4F10E02081211111E03696E817F907F6
:100D9000C9F76EDCAB81BC816D937D938D939C9381
:100DA0001397112371F0ED85FE8583AD882349F0FB
:100DB00081AD92AD8130910521F426A92A32B1F09E
:100DC00004C0A981BA811C9206C0233239F02134B3
:100DD00041F0243449F080E090E008C082E090E0E7
:100DE00005C083E090E002C084E090E02E960FB64C
:100DF000F894DEBF0FBECDBFDF91CF911F910F9151
:100E0000FF90EF90DF90CF90BF90AF909F908F902A
:100E10007F906F905F904F903F902F90089508952E
:100E200059D4C0C3FB0164817581029661157105B7
:100E300049F0FB0101900020E9F73197AF01461B13
:100E4000570B25CA08951F920F920FB60F921124C7
:100E50000BB60F922F933F934F935F936F937F93B4
:100E60008F939F93AF93BF93EF93FF9385E892E0A7
:100E70007FDAFF91EF91BF91AF919F918F917F9119
:100E80006F915F914F913F912F910F900BBE0F90FB
:100E90000FBE0F901F9018951F920F920FB60F92D2
:100EA00011240BB60F922F938F939F93EF93FF9381
:100EB000E0919502F09196028081E0919B02F09181
:100EC0009C0282FD12C0908180919E028F5F8F7381
:100ED00020919F02821751F0E0919E02F0E0EB57C3
:100EE000FD4F958F80939E0201C08081FF91EF910D
:100EF0009F918F912F910F900BBE0F900FBE0F906F
:100F00001F9018951F920F920FB60F9211242F93D6
:100F10003F938F939F93AF93BF9380918102909162
:100F20008202A0918302B09184023091800223E07A
:100F3000230F2D3720F40196A11DB11D05C026E811
:100F4000230F0296A11DB11D209380028093810280
:100F500090938202A0938302B093840280917C02DA
:100F600090917D02A0917E02B0917F020196A11D19
:100F7000B11D80937C0290937D02A0937E02B0937A
:100F80007F02BF91AF919F918F913F912F910F90D1
:100F90000FBE0F901F9018950F931F93CF93DF9361
:100FA000109288021092870288EE93E0A0E0B0E0F1
:100FB0008093890290938A02A0938B02B0938C0253
:100FC00084E292E0909386028093850285EC90E023
:100FD000909392028093910284EC90E0909394021B
:100FE0008093930280EC90E0909396028093950218
:100FF00081EC90E0909398028093970282EC90E0CD
:1010000090939A028093990286EC90E090939C02D0
:1010100080939B0210929E0210929F021092A00257
:101020001092A10210922703109226038FEF9FEFD8
:10103000909329038093280310922B0310922A0384
:1010400089E890E01AD2EC0180E492E099838883E9
:1010500086E18A8388E18B838AE18C838CE18D83AE
:101060008EE18E8380E28F8382E2888784E28987A3
:1010700080E1E6E0F2E0DE011A9601900D928A9599
:10108000E1F7CE010696AE014E5F5F4F9E01265FEF
:101090003F4F1C8E18A21F8E19A266E372E07B8F51
:1010A0006A8FFE01F696BE016E587F4F1082148241
:1010B000138215823696E617F707C1F7FE01E4584A
:1010C000FF4F51834083329691838083329684E030
:1010D00080833196808337973183208338968AE0E6
:1010E00090E091838083329684EF91E091838083B6
:1010F00033961182108271971082118212821382AC
:1011000070961082D0932503C09324038AE190E067
:10111000B4D1EC0182E592E0FE01819391938F01BD
:101120001D821C8286E492E09B838A8388E28E8300
:101130008FEF8F838AE288878CE289878EE28A87A5
:1011400080E38B8782E38C871D861E861F86188A24
:10115000198A41E060E1CF01EFDB44E064E1C801BE
:10116000EBDBD0932303C0932203DF91CF911F9138
:101170000F910895789484B5826084BD84B58160B0
:1011800084BD85B5826085BD85B5816085BD809152
:101190006E00816080936E001092810080918100CA
:1011A00082608093810080918100816080938100C2
:1011B000809180008160809380008091B100846084
:1011C0008093B1008091B00081608093B0008091E5
:1011D0009100826080939100809191008160809362
:1011E0009100809190008160809390008091A10097
:1011F00082608093A1008091A10081608093A10012
:101200008091A00081608093A00080912101826084
:10121000809321018091210181608093210180913F
:10122000200181608093200180917A008460809306
:101230007A0080917A00826080937A0080917A00AF
:10124000816080937A0080917A00806880937A0030
:101250001092C100E0919502F091960282E08083A5
:10126000E0919102F09192021082E0919302F0914C
:1012700094028FEC808310929D02E0919902F0918C
:101280009A0286E08083E0919702F0919802808133
:1012900080618083E0919702F0919802808188605C
:1012A0008083E0919702F09198028081806880832A
:1012B000E0919702F091980280818F7D808386E093
:1012C00090E0DBD07C018CE692E0D70113969C93F2
:1012D0008E9312978AE192E011969C938E9381E708
:1012E00092E015969C938E931497C0912603D0910B
:1012F00027038E010F5F1F4FC0902A03D0902B034E
:10130000C114D10499F00138BFE31B0720F4C801D0
:10131000880F991F02C08FEF9FEFAFD0AE01440F2F
:10132000551F440F551FB601D9D10FC00138EFE347
:101330001E0720F4C801880F991F02C08FEF9FEF8E
:101340009CD090932B0380932A0310932703009340
:101350002603CC0FDD1F80912A0390912B03C80F29
:10136000D91FF982E882E0912A03F0912B0380E0F3
:1013700090E080179107C0F4A191B19112962D9140
:101380003C9113972C56324029F490932903809373
:1013900028030AC00196EDCF209126033091270340
:1013A0008217930754F06CD88091280390912903F9
:1013B0008F3FAFEF9A0781F7F6CF880F991FE09123
:1013C0002A03F0912B03E80FF91FC081D1812097E8
:1013D00051F3E881F9816091240370912503048021
:1013E000F581E02DCE011995809122039091230380
:1013F000DC01ED91FC910190F081E02DBE01199589
:10140000D2CFCF93DF938091240390912503CAD04C
:101410008091220390912303C5D0C0E0D0E02091B9
:1014200026033091270380912A0390912B03C21742
:10143000D30798F49E01220F331FFC01E20FF31F24
:1014400080819181009739F0DC01ED91FC9102805F
:10145000F381E02D19952196E2CF009719F0DF91E5
:10146000CF91A0C0DF91CF910895EE0FFF1F881F8D
:101470008BBF0790F691E02D1994CF93DF938230C4
:10148000910510F482E090E0E0912E03F0912F039B
:1014900020E030E0C0E0D0E0309711F14081518190
:1014A00048175907C0F04817590761F482819381A2
:1014B000209719F09B838A832BC090932F038093EE
:1014C0002E0326C02115310519F04217530718F4D1
:1014D0009A01BE01DF01EF010280F381E02DDCCF34
:1014E0002115310509F1281B390B2430310590F401
:1014F00012968D919C9113976115710521F0FB0156
:101500009383828304C090932F0380932E03FD0165
:10151000329644C0FD01E20FF31F81939193225054
:1015200031092D933C933AC020912C0330912D0327
:10153000232B41F4209102023091030230932D03BA
:1015400020932C03209100023091010221153105D6
:1015500041F42DB73EB74091040250910502241B7F
:10156000350BE0912C03F0912D03E217F307A0F463
:101570002E1B3F0B2817390778F0AC014E5F5F4FE9
:101580002417350748F04E0F5F1F50932D034093EB
:101590002C038193919302C0E0E0F0E0CF01DF9152
:1015A000CF9108950F931F93CF93DF93009709F482
:1015B0008CC0FC0132971382128200912E0310918D
:1015C0002F030115110581F420813181820F931FB2
:1015D00020912C0330912D032817390779F5F093CA
:1015E0002D03E0932C0371C0D80140E050E0AE170A
:1015F000BF0750F412962D913C911397AD01211520
:10160000310509F1D901F3CF9D01DA01338322833A
:1016100060817181860F971F8217930769F4EC012F
:1016200028813981260F371F2E5F3F4F318320835A
:101630008A819B8193838283452B29F4F0932F0326
:10164000E0932E0342C01396FC93EE931297ED01A4
:10165000499159919E01240F351FE217F30771F448
:1016600080819181840F951F029611969C938E9391
:101670008281938113969C938E931297E0E0F0E021
:10168000D80112968D919C911397009719F0F8014B
:101690008C01F6CF8D919C9198012E5F3F4F820F68
:1016A000931F20912C0330912D032817390769F4DB
:1016B000309729F410922F0310922E0302C0138248
:1016C000128210932D0300932C03DF91CF911F9171
:1016D0000F91089581E090E0F89409C0FB01DC01CE
:1016E00002C001900D9241505040D8F7089511E08A
:1016F000C5E1D1E000E005C0802FFE01B6DE2196F5
:10170000011DC631D10780E00807B1F7F894FFCF7B
:1017100000003003800031323341343536423738EF
:1017200039432A302344000000000F0711073E050B
:1017300000000000D901470172011F02A3018101CD
:101740009501000000000E040B04E40300000000FB
:10175000570500000000350547013B053A0500002C
:101760000000120755702070726573736564004441
:101770006F776E207072657373656400546573745F
:0C17800000436F6E6772617473210000FB
:00000001FF
